:02000002B0004C
:1040000000400B005A8C0B00000006000C0005025B
:084010000401B41400000000DB
:04401800C0840B0055
:10401C0010F8012B11F8013B012A28BF9A42F7D066
:10402C00D01A7047034613F8012B002AFBD1181A3B
:10403C000138704709480A49884208B505D0094A31
:10404C00824202D0121A04F083F90748074A002171
:10405C00121A04F08BF9014808BD00BFBCE503201F
:10406C00BC8B0B002CE603202CE60320F0E703208E
:10407C0070B5074E074C03F025FFA41BA4080025C0
:10408C00AC4200D170BD56F8043B98470135F7E7B8
:10409C00708B0B00988B0B0000F092B808B500F0F9
:1040AC00DFFFBDE8084003F0C5BE02F0A5BE02F07C
:1040BC00A3BE02F0A9BE02F0A7BE0078B0FA80F051
:1040CC004009704701230370704770472DE9F04198
:1040DC00DFF838800C4F04464518A54211D003F088
:1040EC0023FE264614F8011B0F2994BF414639467E
:1040FC0003F0BEF803F018FE3178102203F0DBF861
:10410C00EBE7BDE8F08100BF65850B00D4840B00A4
:10411C0010B503F009FE214903F0CBF803F004FEBF
:10412C001F4903F0C6F803F0FFFD1C4903F0C1F86A
:10413C001C4801F07BFF03F0F7FD1B4903F0B9F8B5
:10414C0003F0F2FD194903F0B4F803F0EDFD164944
:10415C0003F0AFF803F0E8FD154903F0AAF8114895
:10416C0002F0FAF8044603F0DFFD0F4903F0A1F862
:10417C0003F0DAFD0F4903F082F854B103F0D4FDDB
:10418C000D4903F096F803F0CFFDBDE8104003F0A5
:10419C007AB803F0C9FD0949F3E700BFD7840B00D7
:1041AC00F5840B0098E603200F850B002D850B0082
:1041BC004B850B005E850B0067850B006A850B0039
:1041CC0013B500210E2003F0EDFE0021052003F0B5
:1041DC00E9FE0121022003F0E5FE0121042003F099
:1041EC00E1FE0121082003F0DDFE0121082003F08F
:1041FC00EAFE0121072003F0D5FE0121072003F080
:10420C00E2FE0121062003F0CDFE0121062003F081
:10421C00DAFE1848184C01F018FC164801F04EFC58
:10422C0003F082FD4FF4165103F06EFD2178BFF3BD
:10423C005B8F11F001010BD120460191FFF73DFF7F
:10424C00019928B10D4803F091F82046FFF73AFF89
:10425C000A4803F095F80A4802F020F803F064FDD0
:10426C0003F056FD0028F9D002B0BDE81040FFF76E
:10427C004FBF00BFACE603202CE6032030E6032042
:10428C0098E603202DE9F0410C4F06460D4600241C
:10429C000A4801F007FE1FFA84F840450CD9324653
:1042AC004146384601F0B6FD384601F007FC284679
:1042BC0002F0DAFD0134EBE7BDE8F081ACE6032057
:1042CC00002108B53C22084601F0E7FD0121FFF76B
:1042DC00D9FF3C220321012001F0DFFD0121FFF772
:1042EC00D1FF3C220721022001F0D7FD0121FFF76D
:1042FC00C9FF3C220B21032001F0CFFD0121FFF768
:10430C00C1FF3C220F21042001F0C7FD0121FFF762
:10431C00B9FF3C221321052001F0BFFD0121FFF75D
:10432C00B1FF3C221621062001F0B7FD0121FFF759
:10433C00A9FF3C221A21072001F0AFFD0121FFF754
:10434C00A1FF3C221E21082001F0A7FD0121FFF74F
:10435C0099FF3C222221092001F09FFD0121FFF74A
:10436C0091FF3C2225210A2001F097FD0121FFF746
:10437C0089FF3C2229210B2001F08FFD0121FFF741
:10438C0081FF3C222D210C2001F087FD0121FFF73C
:10439C0079FF3C2229210B2001F07FFD0121FFF741
:1043AC0071FF3C2225210A2001F077FD0121FFF746
:1043BC0069FF3C222221092001F06FFD0121FFF74A
:1043CC0061FF3C221E21082001F067FD0121FFF74F
:1043DC0059FF3C221A21072001F05FFD0121FFF754
:1043EC0051FF3C221621062001F057FD0121FFF759
:1043FC0049FF3C221321052001F04FFD0121FFF75D
:10440C0041FF3C220F21042001F047FD0121FFF761
:10441C0039FF3C220B21032001F03FFD0121FFF766
:10442C0031FF3C220721022001F037FD0121FFF76B
:10443C0029FF3C220321012001F02FFD0121FFF770
:10444C0021FF00213C22084601F027FD0121FFF746
:10445C0019FF00213922084601F01FFD0121FFF749
:10446C0011FF00213722084601F017FD0121FFF74B
:10447C0009FF00213422084601F00FFD0121FFF74E
:10448C0001FF00213122084601F007FD0121FFF751
:10449C00F9FE00212F22084601F0FFFC0121FFF755
:1044AC00F1FE00212D22084601F0F7FC0121FFF757
:1044BC00E9FE00212A22084601F0EFFC0121FFF75A
:1044CC00E1FE00212822084601F0E7FC0121FFF75C
:1044DC00D9FE00212522084601F0DFFC0121FFF75F
:1044EC00D1FE00212322084601F0D7FC0121FFF761
:1044FC00C9FE00212022084601F0CFFC0121FFF764
:10450C00C1FE00211E22084601F0C7FC0121FFF765
:10451C00B9FE00212022084601F0BFFC0121FFF763
:10452C00B1FE00212322084601F0B7FC0121FFF760
:10453C00A9FE00212522084601F0AFFC0121FFF75E
:10454C00A1FE00212822084601F0A7FC0121FFF75B
:10455C0099FE00212A22084601F09FFC0121FFF759
:10456C0091FE00212D22084601F097FC0121FFF756
:10457C0089FE00212F22084601F08FFC0121FFF754
:10458C0081FE00213122084601F087FC0121FFF752
:10459C0079FE00213422084601F07FFC0121FFF74F
:1045AC0071FE00213722084601F077FC0121FFF74C
:1045BC0069FE00210846392201F06FFCBDE8084075
:1045CC000121FFF75FBE002208B511463C2001F027
:1045DC0064FC0121FFF756FE012211463C2001F03C
:1045EC005CFC0121FFF74EFE022211463C2001F03B
:1045FC0054FC0121FFF746FE032211463C2001F03A
:10460C004CFC0121FFF73EFE042211463C2001F038
:10461C0044FC0121FFF736FE052211463C2001F037
:10462C003CFC0121FFF72EFE062211463C2001F036
:10463C0034FC0121FFF726FE072211463C2001F035
:10464C002CFC0121FFF71EFE082211463C2001F034
:10465C0024FC0121FFF716FE092211463C2001F033
:10466C001CFC0121FFF70EFE0A2211463C2001F032
:10467C0014FC0121FFF706FE0B2211463C2001F031
:10468C000CFC0121FFF7FEFD0C2211463C2001F031
:10469C0004FC0121FFF7F6FD0B2211463C2001F032
:1046AC00FCFB0121FFF7EEFD0A2211463C2001F034
:1046BC00F4FB0121FFF7E6FD092211463C2001F035
:1046CC00ECFB0121FFF7DEFD082211463C2001F036
:1046DC00E4FB0121FFF7D6FD072211463C2001F037
:1046EC00DCFB0121FFF7CEFD062211463C2001F038
:1046FC00D4FB0121FFF7C6FD052211463C2001F039
:10470C00CCFB0121FFF7BEFD042211463C2001F039
:10471C00C4FB0121FFF7B6FD032211463C2001F03A
:10472C00BCFB0121FFF7AEFD022211463C2001F03B
:10473C00B4FB0121FFF7A6FD012211463C2001F03C
:10474C00ACFB0121FFF79EFD002211463C2001F03D
:10475C00A4FB0121FFF796FD00221146392001F040
:10476C009CFB0121FFF78EFD00221146372001F042
:10477C0094FB0121FFF786FD00221146342001F045
:10478C008CFB0121FFF77EFD00221146312001F048
:10479C0084FB0121FFF776FD002211462F2001F04A
:1047AC007CFB0121FFF76EFD002211462D2001F04C
:1047BC0074FB0121FFF766FD002211462A2001F04F
:1047CC006CFB0121FFF75EFD00221146282001F051
:1047DC0064FB0121FFF756FD00221146252001F054
:1047EC005CFB0121FFF74EFD00221146232001F056
:1047FC0054FB0121FFF746FD00221146202001F059
:10480C004CFB0121FFF73EFD002211461E2001F05A
:10481C0044FB0121FFF736FD00221146202001F058
:10482C003CFB0121FFF72EFD00221146232001F055
:10483C0034FB0121FFF726FD00221146252001F053
:10484C002CFB0121FFF71EFD00221146282001F050
:10485C0024FB0121FFF716FD002211462A2001F04E
:10486C001CFB0121FFF70EFD002211462D2001F04B
:10487C0014FB0121FFF706FD002211462F2001F049
:10488C000CFB0121FFF7FEFC00221146312001F048
:10489C0004FB0121FFF7F6FC00221146342001F045
:1048AC00FCFA0121FFF7EEFC00221146372001F043
:1048BC00F4FA0121FFF7E6FC00221146392001F041
:1048CC00ECFABDE808400121FFF7DCBC08B530224A
:1048DC001821242001F0E1FA0121FFF7D3FC2E224C
:1048EC001621232001F0D9FA0121FFF7CBFC2C2251
:1048FC001421232001F0D1FA0121FFF7C3FC2B2254
:10490C001221222001F0C9FA0121FFF7BBFC292258
:10491C001021222001F0C1FA0121FFF7B3FC28225B
:10492C000E21212001F0B9FA0121FFF7ABFC27225F
:10493C000C21212001F0B1FA0121FFF7A3FC252263
:10494C000A21202001F0A9FA0121FFF79BFC242267
:10495C000821202001F0A1FA0121FFF793FC22226B
:10496C0006211F2001F099FA0121FFF78BFC21226F
:10497C0004211F2001F091FA0121FFF783FC1F2273
:10498C0002211E2001F089FA0121FFF77BFC1E2277
:10499C001046002101F081FA0121FFF773FC1F2260
:1049AC0002211E2001F079FA0121FFF76BFC212274
:1049BC0004211F2001F071FA0121FFF763FC222270
:1049CC0006211F2001F069FA0121FFF75BFC24226C
:1049DC000821202001F061FA0121FFF753FC252268
:1049EC000A21202001F059FA0121FFF74BFC272264
:1049FC000C21212001F051FA0121FFF743FC282260
:104A0C000E21212001F049FA0121FFF73BFC29225C
:104A1C001021222001F041FA0121FFF733FC2B2257
:104A2C001221222001F039FA0121FFF72BFC2C2254
:104A3C001421232001F031FA0121FFF723FC2E224F
:104A4C001621232001F029FA0121FFF71BFC30224B
:104A5C001821242001F021FA0121FFF713FC312247
:104A6C001621262001F019FA0121FFF70BFC322246
:104A7C001421282001F011FA0121FFF703FC332245
:104A8C0012212A2001F009FA0121FFF7FBFB342245
:104A9C0010212C2001F001FA0121FFF7F3FB352244
:104AAC000E212E2001F0F9F90121FFF7EBFB362244
:104ABC000C21302001F0F1F90121FFF7E3FB372243
:104ACC000A21322001F0E9F90121FFF7DBFB382242
:104ADC000821342001F0E1F90121FFF7D3FB392241
:104AEC000621362001F0D9F90121FFF7CBFB3A2240
:104AFC000421382001F0D1F90121FFF7C3FB3B223F
:104B0C0002213A2001F0C9F90121FFF7BBFB3C223D
:104B1C001046002101F0C1F90121FFF7B3FB3B2244
:104B2C0002213A2001F0B9F90121FFF7ABFB3A223F
:104B3C000421382001F0B1F90121FFF7A3FB392240
:104B4C000621362001F0A9F90121FFF79BFB382241
:104B5C000821342001F0A1F90121FFF793FB372242
:104B6C000A21322001F099F90121FFF78BFB362243
:104B7C000C21302001F091F90121FFF783FB352244
:104B8C000E212E2001F089F90121FFF77BFB342245
:104B9C0010212C2001F081F90121FFF773FB332246
:104BAC0012212A2001F079F90121FFF76BFB322247
:104BBC001421282001F071F90121FFF763FB162164
:104BCC003122262001F069F9BDE808400121FFF7E8
:104BDC0059BB002208B510461E2101F05EF90121D7
:104BEC00FFF750FB00221046202101F056F901215D
:104BFC00FFF748FB00221046232101F04EF901215A
:104C0C00FFF740FB00221046252101F046F9012157
:104C1C00FFF738FB00221046282101F03EF9012154
:104C2C00FFF730FB002210462A2101F036F9012152
:104C3C00FFF728FB002210462D2101F02EF901214F
:104C4C00FFF720FB002210462F2101F026F901214D
:104C5C00FFF718FB00221046312101F01EF901214B
:104C6C00FFF710FB00221046342101F016F9012148
:104C7C00FFF708FB00221046372101F00EF9012145
:104C8C00FFF700FB00221046392101F006F9012143
:104C9C00FFF7F8FA002210463C2101F0FEF8012142
:104CAC00FFF7F0FA00221046392101F0F6F8012145
:104CBC00FFF7E8FA00221046372101F0EEF8012147
:104CCC00FFF7E0FA00221046342101F0E6F801214A
:104CDC00FFF7D8FA00221046312101F0DEF801214D
:104CEC00FFF7D0FA002210462F2101F0D6F801214F
:104CFC00FFF7C8FA002210462D2101F0CEF8012151
:104D0C00FFF7C0FA002210462A2101F0C6F8012153
:104D1C00FFF7B8FA00221046282101F0BEF8012155
:104D2C00FFF7B0FA00221046252101F0B6F8012158
:104D3C00FFF7A8FA00221046232101F0AEF801215A
:104D4C00FFF7A0FA00221046202101F0A6F801215D
:104D5C00FFF798FA002210461E2101F09EF801215F
:104D6C00FFF790FA002210461E2101F096F801215F
:104D7C00FFF788FA012210461F2101F08EF801215D
:104D8C00FFF780FA012210461F2101F086F801215D
:104D9C00FFF778FA02221046202101F07EF801215B
:104DAC00FFF770FA02221046202101F076F801215B
:104DBC00FFF768FA03221046212101F06EF8012159
:104DCC00FFF760FA03221046212101F066F8012159
:104DDC00FFF758FA04221046222101F05EF8012157
:104DEC00FFF750FA04221046222101F056F8012157
:104DFC00FFF748FA05221046232101F04EF8012155
:104E0C00FFF740FA05221046232101F046F8012154
:104E1C00FFF738FA06221046242101F03EF8012152
:104E2C00FFF730FA05221046232101F036F8012154
:104E3C00FFF728FA05221046232101F02EF8012154
:104E4C00FFF720FA04221046222101F026F8012156
:104E5C00FFF718FA04221046222101F01EF8012156
:104E6C00FFF710FA03221046212101F016F8012158
:104E7C00FFF708FA03221046212101F00EF8012158
:104E8C00FFF700FA02221046202101F006F801215A
:104E9C00FFF7F8F902221046202100F0FEFF012155
:104EAC00FFF7F0F9012210461F2100F0F6FF012157
:104EBC00FFF7E8F9012210461F2100F0EEFF012157
:104ECC00FFF7E0F900221E21104600F0E6FFBDE8D6
:104EDC0008400121FFF7D6B910B500210446022085
:104EEC0003F071F80A2001F0BFFF0121022003F04A
:104EFC006AF84FF47A7001F0B7FF0021204603F0F6
:104F0C0062F8642001F0B0FF20460121BDE810409A
:104F1C0003F059B810B50021052003F054F8012016
:104F2C0001F0A2FF0121052003F04DF82C4C02F0FA
:104F3C00FBFE2C4902F0B3F902F0F6FE2A4902F00E
:104F4C009EF92179601DFFF7C1F802F0EDFE02F029
:104F5C009AF9A3798B2B26D004D8472B12D07B2B14
:104F6C002FD010BDF12BFCD1204A2149214800F053
:104F7C00A8FB02F0D9FE204902F091F9FFF723FBC0
:104F8C0007200CE01D4A1A491A4800F09AFB02F05F
:104F9C00CBFE1B4902F083F9FFF798FC0820BDE813
:104FAC001040FFF799BF174A1149124800F089FBCE
:104FBC0002F0BAFE144902F072F9FFF781F90620EB
:104FCC00EDE7124A0A490B4800F07BFB02F0ACFEFD
:104FDC000F4902F064F9BDE81040FFF7FABD00BFBD
:104FEC0098E603207C850B0089850B00AC850B00B3
:104FFC009C850B0038E60320B5850B0093850B00D0
:10500C00A9850B00B8850B00C1850B00C4850B006E
:10501C00CD850B0007B50021012001F061FE0223B4
:10502C0004221021094800F037FD05220E21084802
:10503C0000F04EFF002300930649074B074840F24F
:10504C005B7200F0E7F803B05DF804FBACE60320FC
:10505C0098E60320D0850B00D7400B0038E60320E0
:10506C001FB5174800F0B2F9C8B1164C144800F03F
:10507C0084FB237833B102F057FE134902F00FF989
:10508C0000232370114801F0DBFAB8B10F4800F08F
:10509C0013FF98B104B0BDE81040FFF73BBF684662
:1050AC0001F03AFE0099064800F080FA684602F0DA
:1050BC0009FA0749024800F0A8FCE3E704B010BD68
:1050CC0038E60320BCE50320DF850B0098E60320BF
:1050DC009C850B00704710B510210446FEF7EBFFC2
:1050EC00204610BD0EB403B503AB002153F8042BBE
:1050FC00019302F0FEF802B05DF804EB03B07047C8
:10510C0073B5044608462279A36832B1A3B90B499A
:10511C0002B0BDE8704002F0ABB8094A267B094DDD
:10512C000949647B012E18BF2946CDE900140749B3
:10513C00FFF7D8FF02B070BD054AEFE7FA850B0008
:10514C0066850B00F6850B00F2850B0010860B00B4
:10515C00E9850B0013B50B4C2178BFF35B8F11F075
:10516C0001010BD120460191FEF7A7FF019928B14F
:10517C00054802F0FBF82046FEF7A4FF024802B0F7
:10518C0010BD00BF2CE6032030E6032091F85C3004
:10519C0010B50446016013B1886D01F0D1FB2046B7
:1051AC0010BD10B5036893F85C20044612B1986DDD
:1051BC0001F0CEFB204610BDF8B51F469DF82430FB
:1051CC0004460D4616462BB1012380F85C3058304E
:1051DC0001F0AEFB089B23630023636306B1A66456
:1051EC0025B1294604F1380002F0CBF9069B236562
:1051FC00079BE069A4F84C70FF2BB8BFFF23A4F801
:10520C00543008B1FEF755FFB4F85400FEF74FFFC9
:10521C00E061F8BD2DE9FF4104460025174698468C
:10522C000E4602F0AFFC0D49E56104F1380002F0C6
:10523C0094F99DF82830A564CDE90283FF220F2351
:10524C00CDE90032204684F85C503B462A46314674
:10525C00FFF7B2FF204604B0BDE8F08166850B0075
:10526C0010B50446204602F0E9FB0028FAD020468F
:10527C0002F0CEF9C0B210BD2DE9F04705468846C4
:10528C00FFF7EEFFEB691870EB6993F800A04FF095
:10529C0001090AF0F00A00274C462846FFF7E0FF08
:1052AC002646EB69985500F07F0313FB09F31F4466
:1052BC0001340306A4B2BFB24FEAC919EDD4631E80
:1052CC00BAF1300F88F800301ED12846FFF7C8FF1E
:1052DC00EB6918552846FFF7C3FFF41C0236B6B22B
:1052EC00EB69A4B298550226B6B2BE420ED228463D
:1052FC00FFF7B6FFB5F85430A34284BFEB691855DD
:10530C000134A4B20136EFE70026EDE7B5F85430CE
:10531C00A3422CBF20460020BDE8F0872DE9F341C5
:10532C0015461E461A4607460023964602A802F06A
:10533C007F0CBEF17F0F03F10104034488BF4CF0D6
:10534C00800CBEF17F0F4FEAD212E4B203F804CC0A
:10535C001ED8C4F10403C4F10500E954224601A986
:10536C00284405EB030802F0F3FF721C224441466B
:10537C00384602F038F9054601F012FB621C7862DF
:10538C003244A8B2131A5842584102B0BDE8F08119
:10539C002346CAE70233F0B5054698B20023CE5C2B
:1053AC009CB256B1B5F854C0844503F1010704D939
:1053BC00441C16543B46A0B2F1E799B2411A0A4478
:1053CC00210A02F8021C02F8013CF0BD38B5044673
:1053DC0002F056FA002814BF0125002502D1204600
:1053EC0002F086FB284638BD2DE9F04788B004460C
:1053FC00DDF840809DF850A0894617461E46FFF701
:10540C00E5FF0546002840F0CD80214601A8FFF7B6
:10541C00BDFEA16C002940F08880B4F84C20A16B33
:10542C002B46204602F0AEF900287AD001232384C3
:10543C009DF85430E269042B5B4B40F08180186876
:10544C0099889B79ADF80C108DF80E300290C2F84B
:10545C0005009DF80E30BDF80C10A2F80910D3729F
:10546C000C23B8F1000F00F081809DF848009DF8E6
:10547C004420400140EAC20040F00600C0B2BAF13C
:10548C00000F01D100F0FD001FB1002E70D140F0D3
:10549C008000E269D054226DE169581C12120A5442
:1054AC009A1CE169206D88540333E2694946204611
:1054BC00FFF770FF0346B8F1000F0BD0E2694146CD
:1054CC002046FFF767FFE269139903462046FFF772
:1054DC0061FF034667B1E26939462046FFF75AFF80
:1054EC0003462EB1E26931462046FFF753FF0346CF
:1054FC00053BE2699BB210212046FFF70FFF01F03C
:10550C004FFAC4E909004FF47A76204602F096FA75
:10551C0088BB01F045FAA36AC01A236D7343984205
:10552C00F3D9204602F0E4FA35E002A801F0AEFD12
:10553C00B4F84C202B4602A9204602F003FA73E77C
:10554C00D3F80700D3F80B10DB7B0DF1080CACE89B
:10555C0003008CF8003002AB03CBC2F80500C2F894
:10556C0009109CF8003053730E237AE7022086E76B
:10557C0040F0C0008DE702A92046FFF77DFE04280D
:10558C00CFD1E369DE78002ECBD101F009FA0125E9
:10559C00A06284F82C6001A8FFF703FE284608B02F
:1055AC00BDE8F0870025F9E7B0840B007FB5012337
:1055BC000422CDE904320023CDE90233CDE90033D6
:1055CC001A46FFF711FF07B05DF804FB2DE9F74F02
:1055DC00DDF83C809DF834509DF8389004468B469D
:1055EC0016461F46FFF7F2FE8246002851D0214690
:1055FC0001A8FFF7CBFDB4F85420E069002102F0BC
:10560C00B5FE0523E26959462046FFF7C3FE6B1E23
:10561C00012B15D8218CE369013189B22184090A47
:10562C001954421CE369218C92B20230995480B215
:10563C00B8F1000F04D0238C5A1C2284A8F8003037
:10564C0000210B188F42E2699BB20AD9B4F854C0FE
:10565C009C4506D916F801C002F803C0013189B285
:10566C00EFE79DF8301000290CBF30213121B9F142
:10567C00000F01D041F00801022D0ED141F00401C0
:10568C00053B9BB22046FFF749FE824601A8FFF777
:10569C0088FD504603B0BDE8F08F012D08BF41F0E6
:1056AC000201EDE71FB5089C0394002402949DF8B9
:1056BC001C4001949DF818400094FFF787FF04B03C
:1056CC0010BD30B587B00446104605910492FEF724
:1056DC00A9FC00250346CDE90155DDE9042100951F
:1056EC002046FFF7DFFF07B030BD73B504460E460A
:1056FC00FFF76CFE0546C8B1214601A8FFF746FD31
:10570C00E36962221A70E36902225A70E369320A71
:10571C009A70E369DE70E1690422204601F063FFB0
:10572C00051E01A818BF0125FFF73BFD284602B056
:10573C0070BD73B504460E46FFF748FE0546C8B16A
:10574C00214601A8FFF722FDE36972221A70E36972
:10575C0002225A70E369320A9A70E369DE70E169D9
:10576C000422204601F03FFF051E01A818BF0125A9
:10577C00FFF717FD284602B070BD2DE9F04F2DED57
:10578C00028B87B000AF0446FFF720FE8146F8B1CC
:10579C00214607F11400FFF7F9FC01F001F9236D24
:1057AC004FF47A725343A26A821A9A42064603D87D
:1057BC00626A821A934221D294F82C307BB1204633
:1057CC0002F096F94FF0000907F11400FFF7E9FC1D
:1057DC0048461C37BD46BDEC028BBDE8F08FE26934
:1057EC00C0211170E2695370E1690222204601F078
:1057FC00FAFEC4E90966012384F82C30204602F035
:10580C001DF90028E0D007F113012046FFF734FD05
:10581C0083460028D8D0E369A662197801F0F0021B
:10582C00302A7FD1D4F830A0BAF1000FCCD097F841
:10583C0013C06A4608EE102A03EB0C0251789578D7
:10584C0005EB0125ADB205F108026946D208A1EBC2
:10585C00C20295460CF10302FA6003EB020E0DEB4B
:10586C0005026846C7F808D07A60D7E901218A4258
:10587C0006D00A461EF8018B02F8018BBA60F4E7D9
:10588C000022425593F80080F96808F00608ABEB4B
:10589C000C02033AB8F1020FA2EB0502294425D100
:1058AC0013F801E01944023A91F801B00CF105012A
:1058BC00294419440BEB0E2BD047E36940221A7094
:1058CC00E3691FFA8BFB83F80180E3694FEA1B2223
:1058DC009A70E36983F803B0E1690422204601F071
:1058EC0082FE666218EE103A9D466DE7B8F1040F21
:1058FC0015D113F801E01944023A91F801B00CF1FA
:10590C000501294419440BEB0E2BD047E3695022B7
:10591C001A70E36902221FFA8BFB5A70D5E71944FF
:10592C00D047DFE7502A08D19A78D97801EB0221C9
:10593C0089B22046FFF7D9FE46E7402A12D1626BA6
:10594C00002A3FF441AFBBF1040F7FF43DAF11F0DF
:10595C00060F7FF439AF9978D87800EB012080B22C
:10596C00904731E7602A08D19A78D97801EB022167
:10597C0089B22046FFF7DDFE26E7702ADFD0902A99
:10598C003FF422AFC02A0AD1D0221A70E369002258
:10599C005A70E1690222204601F025FE14E7D02A54
:1059AC0004BF002384F82C300EE7F7B504460F46ED
:1059BC001646FFF70BFD054610B3214601A8FFF76D
:1059CC00E5FB238C01339BB2EBB12384238CE2697E
:1059DC001B0A5371E369228C9A71E26907233946D9
:1059EC002046FFF7D7FCE3691E54043883B2E26902
:1059FC0082212046FFF792FC054601A8FFF7D1FB58
:105A0C00284603B0F0BD0123DFE70022FFF7CDBF2E
:105A1C0038B50446C0680D4608B101F0F5F9A37914
:105A2C00062B0CBF0420032010FB05F080B2A080D5
:105A3C0001F0E2F9E06028B1A288002102F096FCA6
:105A4C00658038BDA0806080FBE710B5044601215D
:105A5C00C07902F0A7FAE079002102F0B4FA012330
:105A6C00237010BD37B5037805460C461BB1C079C1
:105A7C00002102F097FA2B78EC715BB1A0B20121F6
:105A8C00019002F08FFA0198002103B0BDE830407C
:105A9C0002F099BA03B030BD70B500250446164625
:105AAC008371C0E9035505700572FFF7B1FF2046FD
:105ABC003146FFF7D7FF204670BD0000C368002BAE
:105ACC0000F0A4812DE9F04F8379023BDBB2042B6B
:105ADC009CBFBF4A52F8234085B0054688BF32248C
:105AEC0000F056FF2B69C01AA042F9D3B94CAE880E
:105AFC00D4F800351BB9D4F86035002B7EDBB64CDE
:105B0C00D4F8003523B9D4F86035002BC0F26E817F
:105B1C00B24CD4F80035002B00F04481EB79B04A3C
:105B2C00B04C1268190102EB0313575CAE495B7859
:105B3C00D1F8FC2042F08072C1F8FC20226803F0FE
:105B4C001F0343EA471301273A432260A988D5F87B
:105B5C000C80D4F804909F40002944D04FF0000EE4
:105B6C0072464FF0A04118F801CB082080266368DC
:105B7C009B1A462BFBD96268D1F808351CEA060F34
:105B8C0043EA0703C1F808352FD063689B1A282B0A
:105B9C00FBD9D1F80C35013843EA07034FEA560616
:105BAC00C1F80C35E3D1AB880EF1010E1FFA8EFE55
:105BBC007345D8D84FF4307103FB01F163689B1A1D
:105BCC00462BFBD96368A3EB09098945C0F0E48037
:105BDC004FF4967000F0D4FEA988D5F80C80D4F858
:105BEC0004900029BAD10A46E8E763689B1A112B86
:105BFC00CFD863689B1A112BF7D9CAE7D4F8643550
:105C0C00002BBFF67CAFD4F86835002BBFF677AF0E
:105C1C00D4F86C35002BBFF672AF3601331D184625
:105C2C00009301F0E9F800283FF478AFAB88002B23
:105C3C0000F0ED80EA68013B12FA83F702F1FF3EB7
:105C4C00002348F2060248F20D011EF801CF1CF0A9
:105C5C00800F0CBF93468B461CF0400F0CBF1646B2
:105C6C000E461CF0200F0CBF9046884603F101092C
:105C7C00CDF80880019603F102081FFA89F9019EFC
:105C8C0020F813B01FFA88F820F81960029E20F84B
:105C9C00186003F103081CF0100F1FFA88F80CBFF2
:105CAC0093468B4620F818B003F104081CF0080F3B
:105CBC001FFA88F80CBF93468B4620F818B003F1F6
:105CCC0005081CF0040F1FFA88F80CBF93468B468E
:105CDC0020F818B003F1080A03F1060807339BB249
:105CEC001CF0020F1FFA88F80CBF93468B46CDF8B8
:105CFC000CA01CF0010F20F818B015BF20F81310E1
:105D0C0020F813201FFA8AF3BDF80C3077459CD18C
:105D1C00591C023389B29BB249005B004FF4004717
:105D2C004752009AC7522E4B56081F680022142364
:105D3C00C4F80425C4F80C25C4F80835C4F8142597
:105D4C00C4F81025C4F82005C4F82465C4F8282527
:105D5C00C4F82C25EB7907EB031C1B010121FE5C1D
:105D6C009CF8013003F01F0343EA4613C4F8603576
:105D7C00C4F80015C4F81021A160D4F81031002B20
:105D8C00FBD000234FF0FF32C4F81031C4F80035BB
:105D9C00C4F8602501F038F800F0FAFD286105B070
:105DAC00BDE8F08FD4F86035002BBFF6B7AED4F851
:105DBC006435002BBFF6B2AED4F86835002BBFF6B5
:105DCC00ADAED4F86C35002BBFF6A8AE25E700BFFE
:105DDC0044860B0000C0014000100240002002402D
:105DEC00C0E60320001000E000ED00E0D4F86435BC
:105DFC00002BBFF68DAED4F86835002BBFF688AEFD
:105E0C00D4F86C35002BBFF683AE06E7704704233D
:105E1C00022183E743888B42F0B52DD9067AC2F371
:105E2C000743C2F30724D5B23EB1734374437543A1
:105E3C00C3F30723C4F307242D0A90F806C0C768E0
:105E4C00BCF1060F0CBF042603264E43ACF1020C2A
:105E5C00B919BCF1060F1DD8DFE80CF0041C0804BE
:105E6C000F040400BC554B708D7005E0FE2B28BF51
:105E7C00FE23BB554D708C70F0BDBB554C708D70B6
:105E8C00037A120E13B9D2B2CA70F5E75A43C2F3B1
:105E9C000722F9E7BB554C70E6E742EA012141EADB
:105EAC00004070474088704708B500F081FD014BF9
:105EBC00186008BDC0E6032008B50146002251F861
:105ECC00043B1B689847B0FA80F0400908BD0000FD
:105EDC0010B5024C04600174427410BDFC870B00B9
:105EEC0007B50190FFF736F9019903B05DF804EBA3
:105EFC0001F0E2BA08B5FFF72DF9BDE8084001F052
:105F0C0053BA07B50190FFF725F9019903B05DF875
:105F1C0004EB01F063BA00002DE9FF4780461E46F2
:105F2C00254B00934FF0000A244B9DF83050029300
:105F3C0068460127144641F080098DF804A0ADF89D
:105F4C000C70FFF7DEFF98F81000514602F03BF89A
:105F5C00013C4846E4B2FFF7C3FF65B1FF23484656
:105F6C0003FA05F5FFF7BCFF337823EA0503054078
:105F7C002B4333703D4606EB050A2F46BC4207D92E
:105F8C004846FFF7ADFF01370AF8010BFFB2F5E702
:105F9C00621BD2B2AC4238BF002200201544FFF77E
:105FAC009FFF7055012198F8100002F00CF804B016
:105FBC00BDE8F047FFF79EBF38860B0000093D0097
:105FCC0010B49DF8044022B101945DF8044BFFF726
:105FDC00A3BF5DF8044B7047F0B585B00446114B78
:105FEC0000930025104B0293012768460E468DF84E
:105FFC000450ADF80C70FFF784FF2946207C01F0AB
:10600C00E2FF46F08000FFF76BFF2846FFF768FFC2
:10601C0039460546207C01F0D6FFFFF76BFF28467A
:10602C0005B0F0BD38860B0000093D0010B56E219F
:10603C00FFF7D2FF044601F077FE204901F01FF96B
:10604C0001F072FE1022214601F035F9122C23D0FA
:10605C0004F17803DBB20A2B22D8A4F188030A2BB3
:10606C001ED8DFE803F0061D1D1D1D1D1D1D0D1185
:10607C00150001F059FE1249BDE8104001F019B9A4
:10608C0001F052FE0F49F7E701F04EFE0E49F3E71F
:10609C0001F04AFE0D49EFE701F046FE0C49EBE733
:1060AC00013C01F041FEE4B20A4901F002F9FD2C79
:1060BC0003D901F039FE0849DEE710BD58860B0004
:1060CC006D860B0078860B0080860B0088860B0093
:1060DC0090860B00A4860B00B1860B002DE9FF41C6
:1060EC001C46144B00930646134B02934FF00008CA
:1060FC000123684615460F46ADF80C308DF8048028
:10610C00FFF7FFFE307C414601F05DFF3846FFF79C
:10611C00E7FE2544AC4204D014F8010BFFF7E0FE77
:10612C00F8E7307C012101F04EFF04B0BDE8F041EE
:10613C00FFF7E0BE38860B0000093D002DE9FF415A
:10614C000446114B00934FF00008104B02930127AB
:10615C00684615460E468DF80480ADF80C70FFF7B6
:10616C00D0FE4146207C01F02EFF3046FFF7B8FEF2
:10617C002846FFF7B5FE207C394601F024FF04B019
:10618C00BDE8F041FFF7B6BE38860B0000093D00B4
:10619C0070B5164604460D46FFF71EFF3043C2B2DB
:1061AC0029462046BDE87040FFF7C8BF70B51646BB
:1061BC0004460D46FFF710FF20EA0600C2B229463E
:1061CC002046BDE87040FFF7B9BFF8B50446164647
:1061DC000F46002202211D46FFF7B0FF04220A21C0
:1061EC002046FFF7ABFF802214212046FFF7A6FFC5
:1061FC003B46324612212046FFF770FF0322022154
:10620C002046FFF79BFF00F0CBFB00F159060A215B
:10621C002046FFF7E1FE430710D50022022120465D
:10622C00FFF78CFF44212046FFF7D6FE4221287051
:10623C002046FFF7D1FE68700020F8BD00F070FB1F
:10624C0000F0AEFB8642E2D80320F6E738B50F2209
:10625C0002210546FFF772FF0324322000F004FEF2
:10626C0002212846FFF7B8FEC30603D5013C14F003
:10627C00FF04F2D138BD10B528210446FFF7ACFE5F
:10628C0000F00303032B08D040F00302D2B22046E7
:10629C002821BDE81040FFF751BF10BD38B50446AA
:1062AC000121007C01F07EFE207C012101F08BFE9F
:1062BC00607CFF284CD0002101F074FE607C01F062
:1062CC009BFE0546002843D1607C012101F06AFE4B
:1062DC002946607C01F077FE022000F051FB607CC7
:1062EC00012101F070FE322000F0BEFD204600229C
:1062FC002421FFF723FF204600222621FFF71EFF53
:10630C00204626224821FFF719FF204680225421DF
:10631C00FFF714FF2046A9225621FFF70FFF204656
:10632C0003225821FFF70AFF2046E8225A21FFF7E3
:10633C0005FF204640222A21FFF700FF20463D2280
:10634C002221FFF7FBFE2046BDE83840FFF793BF44
:10635C002046FFF77BFFC9E730B500259BB004460C
:10636C00FFF774FF2946152204A8039501F0FEFFE0
:10637C00802214212046FFF7E1FE03AB19221221E3
:10638C002046FFF7ABFE012202212046FFF7D6FE86
:10639C0009226C212046FFF7D1FE2A461221204605
:1063AC00FFF7CCFE032202212046FFF7C7FEFF2594
:1063BC0014212046FFF710FE3F2803D8013D15F0AD
:1063CC00FF05F5D10022022120460025FFF7B6FE7D
:1063DC000AAB4022122120460095FFF79DFD2A466C
:1063EC006C212046FFF7AAFE6E212046FFF7F4FD34
:1063FC0088380A281FD8DFE800F01C1E1E1E1E1E3F
:10640C001E1E06181A000D4B591E0AAA3F3312F80D
:10641C00010B11F8015F85420DD19942F7D120464D
:10642C00FFF73CFF01201BB030BD054BECE7054BE3
:10643C00EAE7054BE8E70020F5E700BF34870B00DF
:10644C0074870B00B4870B00F4860B002DE9F04F1A
:10645C0087B09246DDF84C809DF854209DF850B0E2
:10646C000292DDE9117504468946B8F1000F3ED061
:10647C0098F800600393002202212046FFF75EFE8D
:10648C007F2208212046FFF759FE06EB0B168022CF
:10649C0014212046FFF752FEF6B2039B9DF84020D4
:1064AC0012212046FFF71AFE32461A212046FFF72A
:1064BC0045FE4A4602212046FFF740FEB9F10C0F7B
:1064CC0004D180221A212046FFF762FE00F068FA00
:1064DC0000F1240608212046FFF77EFD10EA0A0F82
:1064EC005BD1C30705D5032007B0BDE8F08F464646
:1064FC00C0E700F015FA00F053FA8642EAD8F2E74A
:10650C00DFB1D5B114212046FFF766FD2B7883420D
:10651C0002463ED328703B4612212046CDF800B0EF
:10652C00FFF74EFD18212046FFF756FD00F007033C
:10653C00B8F1000F01D088F8003016F008002AD10D
:10654C00002FD1D0002DCFD0029A002ACCD02A789F
:10655C00012A03D1042B1AD1FF20C5E717D9B3B9EF
:10656C00023A05ABD2B239462046FFF72EFE002880
:10657C00BAD12B781F449DF8143017F8022C9A428C
:10658C0005D117F8012C9DF815309A42ACD0072094
:10659C00AAE70420A8E70220A6E70C212046FFF773
:1065AC001BFD10F013030646AAD001209CE710B582
:1065BC0086B09DF82C4005949DF828400494099CC5
:1065CC000394089C0092CDE9013430220B460C2137
:1065DC00FFF73CFF06B010BD70B588B006461C46F0
:1065EC008DF81710154612B31B78012B1FD980227A
:1065FC001C21FFF7DBFD07238DF81F300023CDE9AD
:10660C0002330DF11F03CDE9004301222B460DF19E
:10661C0017013046FFF7CBFF38B92378022B08D18E
:10662C009DF81F00003818BF012008B070BD042071
:10663C00FBE70120F9E713460A462621FFF7CCBFFA
:10664C0013B502230446002224218DF80330FFF7F2
:10665C0075FD204600222621FFF770FD20462622DC
:10666C004821FFF76BFD0DF1030201A92046FFF74E
:10667C00E2FF10F0FD0F0CBF0120002002B010BD96
:10668C002DE9F04F502A8BB082460F46904600F20F
:10669C003E8180221C21FFF789FD93238DF81C304D
:1066AC00B8F1000F00F0B9803B78042B94BF0023A5
:1066BC000123012500260BE095238DF81C30B8F141
:1066CC00000F00F0AC803B78072B94BF0023012314
:1066DC00A8EBC60464B224EAE474002B00F0A18099
:1066EC0088228DF81E20032114F0070218BF012206
:1066FC0002EBE40212F0FF02E0B21DD0002B14BF3B
:10670C004FF003094FF0040906F1010C914594BFB9
:10671C0001EB090E01EB020E57FA8CFC5FFA8EFEB0
:10672C000A460DF1280B0131C9B25A441CF8019BE1
:10673C0002F80C9C7145F3D10BB1083044B21F2CFC
:10674C0071DD4FF070039DF81F208DF81D309DF802
:10675C001E3053409DF8202053409DF8212053407B
:10676C008DF8223007220DF1230307A95046FFF7BD
:10677C002CFD8146002840F0C68003238DF81A00BA
:10678C008DF81B3004940DF1220B4FF009099DF884
:10679C001A30059303EB0312D2B21A215046FFF7BD
:1067AC00CDFC059B02930DF11A03002201930DF110
:1067BC001B03039200934A465B4607A95046FFF71A
:1067CC00F6FE022881464AD11C215046FFF704FCF4
:1067DC00830600F1988010F01F0008BF2020A04213
:1067EC0040F3868010F0070318BF012303EBD0039E
:1067FC000AAA0133134444B20138012200F0070005
:10680C0002FA00F013F80C2C104303F80C0C96E76A
:10681C0097228DF81C2006265AE7434649E7434643
:10682C0056E7022160E7E3100233DBB204F0070203
:10683C0014F007098DF81A2002EB03128DF81D20B5
:10684C0018BF4FF0010907AA994402EB030BC3F1DF
:10685C0009035FFA89F98DF81B30049497E7002837
:10686C0051D1049B1F2B4FF020047FF76AAF9DF88A
:10687C001E30882B3FD103231A4601361A4457FA8F
:10688C0086F6D2B219460AA801330144DBB211F8DC
:10689C000C1C06F8011B9342F4D19DF81B60032ECF
:1068AC0038D19DF81A30ABBB0DF11E0301225946AD
:1068BC005046FFF78AFC8146034620BB9DF81E100C
:1068CC009BF80120914228D19DF81F109BF80220C3
:1068DC00914222D19BF8002012F004090ED0013510
:1068EC00EDB2032D94D0042D02D0022D3FF4E4AE72
:1068FC004FF0050907E002230422BEE705EB45052E
:10690C000135FA723D7048460BB0BDE8F08F4FF080
:10691C000609F8E74FF00109F5E74FF00709F2E730
:10692C0008B5024B1B68DB68019308BD48020300E5
:10693C0008B5024B1B681B6B019308BD4802030092
:10694C0008B5024B1B689B6B019308BD4802030002
:10695C0008B5024B1B681B6C019308BD4802030071
:10696C0008B5024B1B685B6C019308BD4802030021
:10697C0008B5024B1B685B68019308BD1802030045
:10698C0008B5024B1B68DB68019308BD18020300B5
:10699C0008B5024B1B681B69019308BD1802030064
:1069AC0008B5024B1B685B69019308BD1802030014
:1069BC0008B5024B1B681B68019308BD2C02030031
:1069CC0008B5024B1B689B68019308BD2C020300A1
:1069DC0008B5024B1B68DB68019308BD2C02030051
:1069EC0008B5024B1B681B69019308BD2C02030000
:1069FC0008B5024B1B685B69019308BD2C020300B0
:106A0C0008B5024B1B681B6A019308BD28020300E2
:106A1C0008B5024B1B685B6A019308BD2802030092
:106A2C0008B5024B1B689B6A019308BD2802030042
:106A3C0008B5024B1B68DB6A019308BD28020300F2
:106A4C0008B5024B1B681B6B019308BD28020300A1
:106A5C0008B5024B1B685B6B019308BD2802030051
:106A6C0008B5024B1B681B6C019308BD2802030080
:106A7C0008B5024B1B685B69019308BD6C020300EF
:106A8C0008B5024B1B685B69019308BD64020300E7
:106A9C0008B5024B1B681B6A019308BD6402030016
:106AAC0008B5024B1B689B6A019308BD6402030086
:106ABC0008B5024B1B689B68019308BD6802030074
:106ACC0008B5024B1B68DB68019308BD6802030024
:106ADC0008B5024B1B689B69019308BD3802030083
:106AEC0008B5024B1B68DB69019308BD3802030033
:106AFC0008B5024B1B681B6A019308BD38020300E2
:106B0C0008B5024B1B689B6A019308BD3802030051
:106B1C0008B5024B1B681B6B019308BD38020300C0
:106B2C0008B5024B1B689B6B019308BD3802030030
:106B3C0008B5024B1B681B68019308BD30020300AB
:106B4C0008B5024B1B685B69019308BD300203005A
:106B5C0008B5024B1B68DB69019308BD30020300CA
:106B6C0008B5024B1B681B6A019308BD3002030079
:106B7C0008B5024B1B685B6A019308BD3002030029
:106B8C0008B5024B1B68DB6B019308BD3002030098
:106B9C0008B5024B1B681B6C019308BD3002030047
:106BAC0008B5024B1B685B6C019308BD30020300F7
:106BBC0008B5024B1B68DB68019308BD3C0203005F
:106BCC0008B5024B1B681B69019308BD3C0203000E
:106BDC0008B5024B1B685B69019308BD3C020300BE
:106BEC0008B5024B1B689B69019308BD3C0203006E
:106BFC0008B5024B1B68DB69019308BD3C0203001E
:106C0C0008B5024B1B681B6A019308BD3C020300CC
:106C1C0008B5024B1B689B6A019308BD3C0203003C
:106C2C0008B5024B1B681B6C019308BD3C020300AA
:106C3C0008B5024B1B681B68019308BD4C0203008E
:106C4C0008B5024B1B685B68019308BD4C0203003E
:106C5C0008B5024B1B681B69019308BD4C0203006D
:106C6C0008B5024B1B685B69019308BD4C0203001D
:106C7C0008B5024B1B689B69019308BD4C020300CD
:106C8C0008B5024B1B68DB69019308BD4C0203007D
:106C9C0008B5024B1B681B6A019308BD4C0203002C
:106CAC0008B5024B1B689B6A019308BD4C0203009C
:106CBC0008B5024B1B681B6D019308BD60020300F5
:106CCC0008B5024B1B685B68019308BD20020300EA
:106CDC0008B5024B1B685B69019308BD20020300D9
:106CEC0008B5024B1B68DB6A019308BD2002030048
:106CFC0008B5034B1B68D3F88830019308BD00001E
:106D0C002002030008B5034B1B68D3F894300193A1
:106D1C0008BD00002002030008B5024B1B68DB69AC
:106D2C00019308BD4402030008B5024B1B68DB6BE2
:106D3C00019308BD4402030008B5024B1B685B6855
:106D4C00019308BD4002030008B5024B1B689B6809
:106D5C00019308BD4002030008B5024B1B68DB68B9
:106D6C00019308BD4002030008B5024B1B681B6968
:106D7C00019308BD4002030008B5024B1B685B6918
:106D8C00019308BD4002030008B5024B1B689B69C8
:106D9C00019308BD4002030008B5024B1B68DB6978
:106DAC00019308BD4002030008B5024B1B681B6A27
:106DBC00019308BD4002030008B5024B1B681B6B16
:106DCC00019308BD4002030008B5024B1B685B6BC6
:106DDC00019308BD4002030008B5024B1B681B6CF5
:106DEC00019308BD4002030008B5024B1B685B6CA5
:106DFC00019308BD4002030008B5024B1B681B68D9
:106E0C00019308BD1C02030008B5024B1B685B68AC
:106E1C00019308BD1C02030008B5024B1B689B685C
:106E2C00019308BD1C02030008B5024B1B685B6A8A
:106E3C00019308BD1C02030008B5024B1B68DB6BF9
:106E4C00019308BD1C02030008B5024B1B681B6CA8
:106E5C00019308BD1C02030008B5024B1B685B6C58
:106E6C00019308BD1C0203000021FFF731BF000095
:106E7C00024800230360FFF773BD00BFC4E6032084
:106E8C00002240681146FFF78FBF00224068114670
:106E9C00FFF79ABF40680022FFF78EBF40680022C0
:106EAC0081F00101FFF778BF002340681A461946AC
:106EBC00FFF76ABF002340681A461946FFF75CBF0C
:106ECC00002240681146FFF74FBF00224068114670
:106EDC00FFF73ABF406800220221FFF73DBF0023B5
:106EEC0040681A46FFF728BF024B03225A60024A39
:106EFC001A607047C8E6032018880B007047F8B575
:106F0C00064615460C468F18BC4206D0336814F85A
:106F1C00011B9B6830469847F6E72846F8BD007C75
:106F2C000022FFF76DBD007C0021FFF771BD007CD6
:106F3C000021FFF775BD007C0021FFF779BD007CB7
:106F4C000021FFF77DBD10B514210446FDF7B3F801
:106F5C00204610BD38B5044615464FF47A7300220E
:106F6C00C4E90123094B2174084623602946FFF725
:106F7C0077FDBF3008D16B69DB0705D56868FFF773
:106F8C0043FFE868FFF740FF204638BD54880B00EC
:106F9C00704710B518210446FDF78DF8204610BD3A
:106FAC00F0B5037D062B8DB00E4600F104074FF0B3
:106FBC00000412D000F1080515F8011D0A22304614
:106FCC0000F079F9AF42044419D0002CF4D02E21F2
:106FDC00304600F051F90444EEE72F236A46394657
:106FEC000A208DF80040FFF74BFD6846FDF71AF8B4
:106FFC0033680246DB6869463046984704462046AB
:10700C000DB0F0BD10B5054B0446112240F8043B01
:10701C00002101F0ABF9204610BD00BF7C880B00AD
:10702C000346074A10B543F8042B01F1100251F83E
:10703C00044B43F8044B9142F9D10A781A7010BDF5
:10704C007C880B00037D042B04D14068003818BFEA
:10705C0001207047062B07D143683BB983682BB9D5
:10706C00C3681BB90069F1E7002070470120704725
:10707C0010B59DF8084044EA032343EA024242EA71
:10708C00016104234160037510BD000007B5064B78
:10709C000360CB7800938B784A780978FFF7E8FF88
:1070AC0003B05DF804FB00BF7C880B00014B024A67
:1070BC001A607047D0E6032088880B0000234068D4
:1070CC001A46FFF739BE406800220221FFF744BE82
:1070DC00002240681146FFF737BE00224068114677
:1070EC00FFF742BE002340681A461946FFF744BE1C
:1070FC00002340681A461946FFF746BE4068002137
:10710C00FFF76ABE40680021FFF76EBE40680022A0
:10711C0081F00101FFF740BE40680022FFF74CBE32
:10712C00002240681146FFF74FBE0022406811460E
:10713C00FFF73ABE2DE9F04395B014460D460746CD
:10714C00FFF760FF00211C220DA8009101F00EF941
:10715C0040230C9320466B460CAA0021FFF7B0FC91
:10716C00044600284BD1024601216868FFF7FCFD5C
:10717C000221804622466868FFF7F6FD009E814694
:10718C002146002E3BD0002939D17368022B03D045
:10719C000A2B11D0F669F4E7B8F1000FFAD0716937
:1071AC0006A8043107ADFFF771FF0FCD3C1D0FC4CE
:1071BC002B6823704146EDE7B9F1000FEAD07469F2
:1071CC00102201A801F0D2F806238DF8143001AD7D
:1071DC0004F108031834186859682A4603C20833A6
:1071EC00A3421546F7D101A906A807ADFFF718FF72
:1071FC000FCD3C1D0FC42B6823704946CAE700987D
:10720C00FFF756FC384615B0BDE8F083024B034A35
:10721C001A6000225A607047D4E6032094880B0051
:10722C00F8B506460D468F180024BD420CD03368C5
:10723C0015F8011B9B6830469847031E01DB1C4464
:10724C00F3E7002C08BF1C462046F8BD13B50446D6
:10725C00084659B10191FCF7E5FE23680199DB68FA
:10726C000246204602B0BDE81040184702B010BDDF
:10727C0008B5FFF7EBFF08BD03689B68184708B516
:10728C00FFF7E4FF08BD38B50D210546FFF7F4FF05
:10729C000A2104462846FFF7EFFF204438BD38B5D5
:1072AC000546FFF7D3FF04462846FFF7ECFF2044C2
:1072BC0038BDFFF7F4BF30B58BB00023012A8DF831
:1072CC00243098BF0A2209AC0D46B1FBF2F101FB48
:1072DC00125303F0FF03092B94BF30333733DBB267
:1072EC00AA4204F8013DEFD92146FFF7AFFF0BB0DE
:1072FC0030BD2DE9F04186B000AF05460E46381D75
:10730C00142114463B60FFF78FFD13280ED8391D4E
:10731C002846FFF79BFF04461EB12846FFF7B3FF34
:10732C00044420461837BD46BDE8F08100F108033F
:10733C0023F00703E846ADEB030D2246411C3B68E6
:10734C006846FFF771FD69462846FFF77FFF044644
:10735C00C546E1E7014B00229A607047DCE603204A
:10736C000021FFF71DBC0021FFF712BC10B504462D
:10737C0008462170FFF7ECFB00236360204610BD2C
:10738C0013B504460078FFF7EEFF58B9207801904A
:10739C004FF6FF71FFF7CCFB019802B0BDE810402F
:1073AC00FFF7DEBF02B010BD0078FFF7D9BF0000B9
:1073BC00400830B51860002418688842E5B206D938
:1073CC000134082C02D040081860F5E70725024B61
:1073DC005B5D137030BD00BFC8880B002DE9F04316
:1073EC0006468FB000780C46FFF7BDFF00281BDB6C
:1073FC0035781422002109A800F0B8FF0B230022D5
:10740C0009A92846ADF82430FFF7B2FB9DF82D30C2
:10741C0013B19DF82C5055B10027B946B84601253B
:10742C0023795DB1C3B100200FB0BDE8F083DDF866
:10743C0030809DF834909DF83570F1E7002B35D1F4
:10744C00A368434508D18DF820908DF82170BDF8C4
:10745C002020A3899A42E6D00023A1688DF80F3032
:10746C000A9804AB0DF10F02FFF7A2FF217985B941
:10747C0089B9A36843450ED38DF820908DF82170FF
:10748C00BDF82020A3899A4205D1049B434502D123
:10749C00C9E70029F9D100230193637B00939DF880
:1074AC000F20237B3078FFF76BFBBCE7CDE9005551
:1074BC002B462A460121F5E708B50078FFF740FB7B
:1074CC00C0B208BD10B504460068FFF79DFC20460D
:1074DC0010BD10B50446006808B1FFF795FC0023F9
:1074EC00C4E90133236010BD38B504460D4600686D
:1074FC000131FFF791FC10B1C4E90005012038BD42
:10750C0010B50368044623B143688B4201D30120B4
:10751C0010BD2046FFF7E8FF0028F9D0A368002B28
:10752C00F5D122681370F2E737B50D46114601927A
:10753C000446FFF7E5FF019A28B92046FFF7C9FF7B
:10754C00204603B030BDA2602946206800F000FF41
:10755C002268A3680021D154F2E7002313B5C0E9D7
:10756C00003304468360037341B108460191FCF774
:10757C0059FD019902462046FFF7D6FF204602B07E
:10758C0010BD13B5044659B108460191FCF74AFDEC
:10759C00019902462046FFF7C7FF204602B010BDF6
:1075AC00FFF797FFF9E70000054B02221A60054B25
:1075BC00054A9A600020C3E90000FFF781BB00BFB9
:1075CC00F8E60320ECE603200000FFFF13B5036888
:1075DC008DF80710DC6B01224FF0FF330DF1070122
:1075EC00A04702B010BD10B40368DC6B4FF0FF3342
:1075FC00A4465DF8044B604713B5134602688DF83A
:10760C000710D46B0DF107010122A04702B010BD89
:10761C0010B54369B3F88620B3F884309A42044617
:10762C0008D06369B3F88420511CA3F88410134468
:10763C00187910BD03681B6998470028F1D14FF0E9
:10764C00FF30F6E7704743691868C043C00F7047B6
:10765C0070470000064B994210B500F10C0405D0A0
:10766C00084600F05DFD002808BF0024204610BD30
:10767C0008880B0010B5AC210446FCF71CFD204615
:10768C0010BDAC21FCF717BD2DE9F0414FF00008FF
:10769C0086B01C46C0F8048005460E461746414687
:1076AC00102202A800F062FE631C09D04FF47A731A
:1076BC00B4FBF3F203FB1244CDE902285C430494BF
:1076CC00686910230093006802AB41F2050240F692
:1076DC00FF71FFF7FDF9002807DAFFF7ADFB036830
:1076EC006B60002006B0BDE8F0816869002300687B
:1076FC003A463146FFF70CFA031EEEDB1846F1E76B
:10770C0038B584690A4B036005467CB16368013B5C
:10771C0063605BB9236820469B689847A368013B6C
:10772C00A3601BB923682046DB689847284638BD00
:10773C000C890B0010B50446FFF7E2FF20461C2114
:10774C00FCF7B9FC204610BD30B587B0044601AD3E
:10775C006846FFF79BFC0FCD04340FC42B682370D5
:10776C0007B030BD70B54D69054B04468C3544F8F7
:10777C00043B06460FCD0FC42B682370304670BDFA
:10778C007C880B002DE9F0439846036893B00D46B6
:10779C000024DB6A06461746984728466B46224665
:1077AC0021460094FFF78CF90546002863D1009B15
:1077BC00002B4BD05B69002B48D006A8FFF722FCAE
:1077CC00009B5C696378022B04D1211D06A8FFF78E
:1077DC00BBFF26E00A2B24D11122294601A800F078
:1077EC00C5FDA368002B38D004F108030DF1040C7F
:1077FC00183418685968624603C20833A342944689
:10780C00F7D1062301A90CA88DF81430FFF708FC5A
:10781C000DF1340CBCE80F0007AC0FC4DCF80030E1
:10782C00237006A8FFF70EFC80B1336807ADD3F8C0
:10783C002090124B0C930FCD0DAC0FC42B68237002
:10784C003A4643460CA93046C84705460098FFF710
:10785C002FF9284613B0BDE8F083E368002BC3D1A1
:10786C004FF6FF70D4F81090FFF712F98145BBD199
:10787C0004F11401AAE72546E8E700BF7C880B0059
:10788C0038B543691A68002A054610DAB3F8862021
:10789C00B3F884309A420AD103681B6998470446AE
:1078AC0028B92B682846DB6A9847204638BD01204A
:1078BC00FCE710B54369B3F88620B3F884309A42DC
:1078CC00044605D06369B3F884201344187910BDBD
:1078DC0003681B6998470028F4D14FF0FF30F6E796
:1078EC00F8B543691746B3F88620B3F884309A424A
:1078FC0005460E4616D06969B1F88430B1F8864059
:10790C00E41ABC4228BF3C46043322461944304694
:10791C0000F01EFD6A69B2F884302344A2F884306A
:10792C002046F8BD03681B6998470028E3D14FF047
:10793C00FF34F5E742690023A2F884304269A2F8CB
:10794C00863070472DE9F0411F4603680C46DB6A10
:10795C008AB0054616469847237DD5F81480042B2B
:10796C000CBF02200A2006220121FFF7D9F8C8F823
:10797C0000006B691B68002B08DA2B682846DB6A51
:10798C000024984720460AB0BDE8F0812846FFF74E
:10799C00D1FFB7B1002303A9F8B20393ADF81030AF
:1079AC00FFF766F80028E8D16869062300930068A1
:1079BC0003AB41F20B0240F6FF71FFF789F8002888
:1079CC00DBD11C22002103A800F0D0FC237D042B6A
:1079DC001DD14FF407733046ADF80C30FFF760F84B
:1079EC00ADF80E006068FFF753F804906B691C2229
:1079FC00186803A9FFF77CF80028BED104340FCC1B
:107A0C006D698C350FC523682B700124BAE740F6DD
:107A1C001C233046ADF80C30FFF742F805AEADF83C
:107A2C000E00231D04F1140718685968324603C26E
:107A3C000833BB421646F7D1D8E7000030B542698F
:107A4C00B2F886308BB004462BB1B2F884209A423F
:107A5C0001D1FFF76FFF61690868002818DBB1F8E6
:107A6C0086507F2D14D804310823C5F18002294497
:107A7C00FFF746F8002813DD6369B3F886200AB9CE
:107A8C00A3F884206369B3F886201044A3F8860019
:107A9C006369B3F88600B3F88430C01A0BB030BDFC
:107AAC00FFF7CAF903680B2BF2D0FFF7C5F903688F
:107ABC000B2BEDD020230025CDE90235FFF7BCF9C7
:107ACC0003680193084B0949009302AA2B46322004
:107ADC00FFF7EEF863691868FFF702F863694FF077
:107AEC00FF321A60D4E700BFD7880B00D0880B0098
:107AFC0010B5436904461868002801DBFEF7F0FF57
:107B0C0063694FF0FF321A606069112200218C30DA
:107B1C0000F02CFC2046BDE81040FFF70BBF10B561
:107B2C00002304460160C0F884308830FFF76AFAFD
:107B3C00204610BD73B500234FF47A72C0E90132B0
:107B4C000E4A0361026043610446AC200191FCF7CC
:107B5C00ACFA051E05F10C0608D00123C5E901336A
:107B6C00074B01992B603046FFF7D9FF2046C4E93B
:107B7C000565FFF7DFFE02B070BD00BF0C890B007E
:107B8C00F0880B0010B54FF0FF310446FFF7D2FF21
:107B9C00204610BD10B504460068002801DBFEF736
:107BAC009FFF204610BD0C30FFF7F4BF024B1A6844
:107BBC00024B1A60704700BFC0E50320FCE60320AF
:107BCC0070474174704708B5007CFFF721F820EA34
:107BDC00E07008BD08B5007CFEF7F2FF20EAE0700B
:107BEC0008BD08B5007CFEF7FBFF40EAE07008BD5D
:107BFC0008B5007CFEF7ECFF40EAE07008BD007CA5
:107C0C00FEF7F6BF37B5457C04462DB1207C03B09A
:107C1C00BDE83040FEF7CCBF007C0191FEF7F8FFC9
:107C2C0000280199F2DC284603B030BD10B51421B0
:107C3C000446FCF740FA204610BD000010B54FF486
:107C4C007A730446084611460022C4E90123044B0A
:107C5C002360012320746374FEF7E2FF204610BDFD
:107C6C0074890B00417470477047704708B5002148
:107C7C00007CFEF7FDFF40EAE07008BD08B501216D
:107C8C00007CFEF7F5FF40EAE07008BD08B5007C0B
:107C9C00FEF7E6FF20EAE07008BD08B5007CFEF7B1
:107CAC00D7FF20EAE07008BD13B50446007C0191B3
:107CBC00FEF7D6FF0028019901DC607C20B1207C06
:107CCC00FEF7DEFF20EAE07002B010BD007CFEF78C
:107CDC00DFBF10B514210446FCF7EDF9204610BDAA
:107CEC0010B54FF47A73044608460021C4E9011319
:107CFC00044B23600123207463741146FEF798FF34
:107D0C00204610BDA4890B00007C0022FEF798BF12
:107D1C00007CFEF7C5BF10B514220446002100F00C
:107D2C0025FB204610BD000010B50F4C88B003A8F1
:107D3C00FFF7F1FF2178BFF35B8F11F001010FD139
:107D4C0020460191FCF7B9F9019948B103AA0748FB
:107D5C00FFF7C6FF2046FCF7B5F9054800F0F2FA2C
:107D6C00024808B010BD00BF00E7032004E7032061
:107D7C00757C0B00002240681146FEF7F5BF00220F
:107D8C0040681146FFF710B8002240681146FFF713
:107D9C001BB840680022FFF70FB84068002281F042
:107DAC000101FEF7F9BF002340681A461946FEF799
:107DBC00EBBF002340681A461946FEF7DDBF0022D0
:107DCC0040681146FEF7C0BF406800220221FEF752
:107DDC00C3BF002340681A46FEF7AEBF024B042215
:107DEC005A60024A1A60704718E70320D4890B00C6
:107DFC00014B1860704700BFC4E5032008B50B4B5E
:107E0C0043B1FFF791FF03681B699847002801DD18
:107E1C00AFF30080064B43B100F05CF903681B69BB
:107E2C009847002801DDAFF3008008BD000000007A
:107E3C000000000008B5FFF7E1FFFEF7B1FD014BB4
:107E4C00186008BD28E703200548064A064908B50E
:107E5C00121A00F07DFA054B054A1A6008BD00BFE6
:107E6C0000F4032004F403202C8C0B0000F40320FA
:107E7C001E1C279A07B5002300931A466FF0770152
:107E8C00FEF740FF03B05DF804FB000007B5438824
:107E9C000A2B08D0502B0BD1094B1B684BB103B0EC
:107EAC005DF804EB1847FFF7E5FF03B05DF804FB42
:107EBC00002300931A466FF07701FEF723FFF4E7D7
:107ECC0024E7032010B512480021FEF7C5FF114B23
:107EDC001A68114B9A42114B0CBF012200221A70E6
:107EEC0001D0FFF7B1FFFEF743FD044600F046FA60
:107EFC000B4B13B12046AFF3008000210848FEF76E
:107F0C0013FFBDE8104007480021FEF7F1BE00BF8B
:107F1C00FD7D0B0000F403201E1C279A20E7032094
:107F2C0000000000997E0B00232813B502D9002015
:107F3C0002B010BDA0F10B03022B1AD8174C2178FC
:107F4C00BFF35B8F11F001010BD120460191FCF7BF
:107F5C00B4F8019928B11248FFF708FA2046FCF74B
:107F6C00B1F80F4B1878FEF7FBFD0028DFD101208C
:107F7C00DEE7012809D800F06DF80021007CFEF73F
:107F8C0067FD80F00100C0B2D2E709380128EED8B5
:107F9C0000F0A0F8007CFEF733FEF2E72CE603209D
:107FAC0030E60320232838B504460D460AD8FF29AD
:107FBC0008D0FFF7B9FF28B129462046BDE8384064
:107FCC00FEF7FEBC38BD38B504460D46FEF700FD85
:107FDC00FF2810D0062804D84D2323FA00F0C3073D
:107FEC0009D42046FFF7A0FF28B129462046BDE85A
:107FFC003840FEF7F5BC38BD10B50446FEF7E8FC7A
:10800C00031FDBB2012B08D92046FFF78DFF20B1EF
:10801C002046BDE81040FEF7EBBC002010BD7047B9
:10802C0038B50A4B036001230446436108492020FC
:10803C0000F074F8202560600549A560284600F022
:10804C006DF8C4E90305204638BD00BF18000100D7
:10805C00088A0B0030B50E4D2978BFF35B8F11F0F9
:10806C00010487B011D12846FCF727F868B168469F
:10807C00FFF7D6FF6A4621460648FEF76BFF2846F7
:10808C00FCF720F8044800F05DF9024807B030BD59
:10809C002CE7032030E703202B800B0070470000F7
:1080AC0038B5044614252A46002100F05FF92580D6
:1080BC004025074925812846258200F02FF80449E0
:1080CC006060284600F02AF8E060204638BD00BF0A
:1080DC00088A0B0030B50E4D2978BFF35B8F11F079
:1080EC00010487B011D12846FBF7E7FF68B101A85E
:1080FC00FFF7D6FF01AA21460648FFF79FFD284649
:10810C00FBF7E0FF044800F01DF9024807B030BD52
:10811C0044E7032048E70320A9800B00FBF7C7BF07
:10812C00014900F0F9B800BF248A0B007FB5002488
:10813C001023CDE90234036815469E6912686B461C
:10814C00CDE90044B0479DF8043003F00603062B3C
:10815C0003BF009B2B600120204604B070BD00982B
:10816C00904214BF012006207047000010B5034B4D
:10817C000360044600F0CDF8204610BD648A0B0065
:10818C0010B50446FFF7F2FF20460821FBF793FFDA
:10819C00204610BD2DE9F0411F46DDE90834DDF81D
:1081AC00188098450646154607D1079900F0B4F893
:1081BC0018B165710020BDE8F0813946304600F0F9
:1081CC00ABF80028F6D00123C4F800802571A37108
:1081DC00F0E738B515461C4600F09EF820B1082390
:1081EC00E36006232560237138BD73B505460C4644
:1081FC0001921E4600F090F850B9032E08D823685F
:10820C00019A5B692946204602B0BDE870401847C8
:10821C0002B070BD10B5034B03600446FFF7A6FF18
:10822C00204610BDC48A0B0010B50446FFF7F2FFC0
:10823C0020460C21FBF73FFF204610BDF7B5089FE9
:10824C00974205460E4614460AD0A868026808975D
:10825C00156A31462246AC4603B0BDE8F040604793
:10826C001946019300F058F8019B0028EDD0062028
:10827C0003B0F0BD2DE9F14F0D461946DDE90A4B6F
:10828C00DDE90CA681461746984600F045F890B1FA
:10829C00002D3460377109DB61198A450CBF06214A
:1082AC000121B171002001B0BDE8F08F0235F9D188
:1082BC000123B371F6E7544506D15946484600F000
:1082CC002BF808B17771EDE7D9F808000368CDE910
:1082DC000CA6CDE90A4BDC693A4643462946A4462E
:1082EC0001B0BDE8F04F60472DE9F04107460C4660
:1082FC0015461E46FFF76DFF48B9B86803689F69BD
:10830C002A4633462146BC46BDE8F0416047BDE8ED
:10831C00F081704700207047814208B50ED040684C
:10832C0003782A2B0CD049680B782A2B08BF013113
:10833C00FBF76EFEB0FA80F0400908BD0120FCE7A7
:10834C000020FAE7002301461A46184600F044B80C
:10835C000A44914200F1FF3300D1704710B511F877
:10836C00014B03F8014F9142F9D110BD0244034671
:10837C00934200D1704703F8011BF9E738B5104B55
:10838C001D68AB6B0446B3B91820FEF735FD0246E9
:10839C00A86320B90B4B0C484221FEF755FD0B4945
:1083AC000B4BC0E900130B4B83600B238381002123
:1083BC000120C2E90401AB6B00221C615A6138BD7B
:1083CC00C4E50320FD8A0B00148B0B000E33CDABE0
:1083DC0034126DE6ECDE05002DE9F843DFF8B880C9
:1083EC000646D8F800001F460D46914600F056F898
:1083FC00254B1C6834B9254C1C60254B13B11B68EC
:10840C00C4F8883063681F2B07DDD8F8000000F033
:10841C0047F84FF0FF30BDE8F8834EB3D4F888002E
:10842C0088B91C4B23B9D8F8000000F038F8F0E7F5
:10843C004FF48470FEF7E0FC0028F4D00023C0E970
:10844C004033C4F88800636840F8239001229A40B6
:10845C0000EB8301D0F800311343C0F80031022E39
:10846C00C1F8807002BFD0F804311343C0F8043156
:10847C006368D8F800005A1C0233626044F8235039
:10848C0000F00EF80020C6E7E8E703205CE70320C5
:10849C0000000000056E0B0028E6032070477047B3
:1084AC007047000000044D5154540400064D5149CE
:1084BC007364700341400B007D400B00A5400B0022
:1084CC00A9400B00000000002030002A2A2A2A2A8A
:1084DC002A2A2A2A2A2A2A2A2A2A2A2A2A2A2A2AF0
:1084EC002A2A2A2A2A2A2A2A004D4652433532326F
:1084FC00204469676974616C2073656C66207465CF
:10850C007374002D2D2D2D2D2D2D2D2D2D2D2D2D2F
:10851C002D2D2D2D2D2D2D2D2D2D2D2D2D2D2D2D7F
:10852C00004F6E6C79206B6E6F776E207665727370
:10853C00696F6E7320737570706F72746564005020
:10854C006572666F726D696E6720746573742E2E1A
:10855C002E00526573756C743A20004F4B004445E5
:10856C0046454354206F7220554E4B4E4F574E008C
:10857C00436172642050726573656E74004361725E
:10858C0064205549443A004C6967687420312100D5
:10859C0043617073746F6E654E6F6465004C31008F
:1085AC004C69676874203221004C32004C69676852
:1085BC0074203321004C33004C69676874203421DB
:1085CC00004C34006C61622E74686577636C2E63AA
:1085DC006F6D00436F6E6E656374656400646566F1
:1085EC0061756C7420004D5342004C5342003C5357
:1085FC00504953657474696E677320646566617560
:10860C006C743E003C53504953657474696E6773C7
:10861C002025732575202573204D4F444525753E27
:10862C000000000000000000000000000D510B00D5
:10863C00E1500B00E3500B002C010000180000006F
:10864C00F40100002C010000500000004669726D1E
:10865C00776172652056657273696F6E3A20307857
:10866C0000203D2028636C6F6E652900203D20762C
:10867C00302E3000203D2076312E3000203D2076EB
:10868C00322E3000203D20636F756E746572666506
:10869C006974206368697000203D2028756E6B6ECC
:1086AC006F776E29005741524E494E473A20436F1F
:1086BC006D6D756E69636174696F6E206661696C4E
:1086CC007572652C20697320746865204D46524381
:1086DC003532322070726F7065726C7920636F6EF8
:1086EC006E65637465643F0000D6788CE2AA0C1842
:1086FC002AB87A7FD36ACF0BB137634B69AE91C777
:10870C00C397AE77F437D79B7CF53C118F15C3D745
:10871C00C15B002AD075DE9E5164AB3EE915B5AB4A
:10872C00569A988226EA2A620087980F49FF071901
:10873C00BF2230495963ADCA7FE34E035C4E4950AA
:10874C00479A3761E7E2C62E755AED043D024B7825
:10875C0032FF583B7CE90094B44A595BFDC929DFD0
:10876C003596989E4F30328D00C637D532B7575C50
:10877C00C2D87C4DD970C77310E6D2AA5EA13E5AFE
:10878C0014AF3061C970DB2E642272B5BD65F4EC98
:10879C0022BCD37235CDAA411FA7F35314DE7E023F
:1087AC00D90FB55E251D297900EB66BA57BF239505
:1087BC00D0E30D3D27895CDE9D3BA700215B8982C0
:1087CC00513AEB020CA500497C844DB3CCD21B81F1
:1087DC005D4876D5716121A986968338CF9D5B6DF6
:1087EC00DC15BA3E7D953B2F000000000000000018
:1087FC008D660B004D660B00C55E0B000000000083
:10880C00000000000000000000000000EB6E0B00F8
:10881C00E16E0B00D76E0B00CD6E0B00C16E0B0022
:10882C00B56E0B0009710B0011710B00A96E0B00DA
:10883C00A16E0B00976E0B008D6E0B0041710B003F
:10884C000000000000000000096F0B00536F0B00CC
:10885C002B6F0B000B6F0B00336F0B003B6F0B0080
:10886C00436F0B004B6F0B0000000000000000007A
:10887C00AD6F0B009D6F0B009F6F0B006170700054
:10888C000000000000000000C9700B00D3700B004A
:10889C00DD700B00E7700B00F1700B00FD700B002E
:1088AC0009710B0011710B0019710B0025710B0074
:1088BC002D710B0037710B0041710B000008101863
:1088CC0020283038776972696E670072656376208C
:1088DC006572726F72203D2025640000000000005C
:1088EC00000000005D760B0081760B00B37B0B0063
:1088FC008F760B0061760B0000000000000000007A
:10890C000D770B0041770B00D9750B00F3750B003D
:10891C00497A0B001D760B00BF780B0051760B00CB
:10892C0051790B0091770B00ED780B00FD7A0B0061
:10893C008D780B0053760B0005760B0095760B00AB
:10894C0071770B0025592D256D2D25645425483A3A
:10895C00254D3A2553257A0061736374696D650062
:10896C000000000000000000CD7B0B00397C0B00E8
:10897C00117C0B002D720B00E17B0B00FD7B0B00BF
:10898C00EF7B0B000B7C0B00CF7B0B00D37B0B0026
:10899C000000000000000000777C0B00DF7C0B0067
:1089AC00B57C0B002D720B00A77C0B00797C0B00A7
:1089BC00897C0B00D97C0B00997C0B00717C0B0023
:1089CC000000000000000000DF7D0B00D57D0B00D7
:1089DC00CB7D0B00817D0B00BF7D0B00B37D0B00AD
:1089EC0009710B0011710B00A77D0B009F7D0B0013
:1089FC00957D0B008B7D0B0041710B000053743186
:108A0C00395F53705F6D616B655F7368617265642C
:108A1C005F74616700000000648A0B00098A0B0018
:108A2C00C48A0B00388A0B00E88A0B004E31305F89
:108A3C005F637878616269763131375F5F636C614F
:108A4C0073735F747970655F696E666F45000000C3
:108A5C00000000002C8A0B0079810B008D810B002B
:108A6C0021830B0021830B00F7810B0039810B0054
:108A7C00DF810B00A1810B006B810B00C48A0B0002
:108A8C00948A0B002C8A0B004E31305F5F63787830
:108A9C00616269763132305F5F73695F636C6173F9
:108AAC00735F747970655F696E666F4500000000D6
:108ABC0000000000888A0B0021820B0035820B001D
:108ACC0021830B0021830B00F7810B0039810B00F4
:108ADC00F5820B0081820B0049820B00648A0B002B
:108AEC00F08A0B00537439747970655F696E666F28
:108AFC00005245454E54206D616C6C6F632073754C
:108B0C0063636565646564002F746D702F6A656EB0
:108B1C006B696E732D4743432D31302D7069706531
:108B2C006C696E652D34385F32303230313132340D
:108B3C005F313630363138303633392F7372632F1C
:108B4C006E65776C69622F6E65776C69622F6C69E4
:108B5C0062632F7374646C69622F72616E642E632E
:108B6C000000000021500B00B55E0B007D6E0B0069
:108B7C00F56E0B00B9700B0019720B0061730B00D2
:0C8B8C00B5750B00B97B0B00E97D0B00F8
:108B9800040000001400000003000000474E5500C8
:108BA800475176A3BCF7400489EBCF16D128354549
:048BB8000AF0B645C4
:108BBC000100000064890B00C8E5032000000000E0
:108BCC000000000000000000000000000000000099
:108BDC000000000000000000000000000000000089
:108BEC000000000000000000000000000000000079
:108BFC000000000000000000000000000000000069
:108C0C000000000000000000000000000000000058
:108C1C00000000000000000000000000ECE7032052
:048C2C000000000044
:108C360000000102030405060708090A0B0C0D0EC5
:108C46000F101112131415161718191A1B1C1D1EB6
:048C56001F202800B3
:048C5A007856341202
:04000003B000401CED
:00000001FF
