:02000002B0004C
:1040000000400B00668C0B00000006000C0005024F
:084010000401B41400000000DB
:04401800CC840B0049
:10401C0010F8012B11F8013B012A28BF9A42F7D066
:10402C00D01A7047034613F8012B002AFBD1181A3B
:10403C000138704709480A49884208B505D0094A31
:10404C00824202D0121A04F089F90748074A00216B
:10405C00121A04F091F9014808BD00BFBCE5032019
:10406C00C88B0B002CE603202CE60320F0E7032082
:10407C0070B5074E074C03F02BFFA41BA4080025BA
:10408C00AC4200D170BD56F8043B98470135F7E7B8
:10409C007C8B0B00A48B0B0000F0F2B808B500F081
:1040AC00EFFFBDE8084003F0CBBE02F0AFBE02F05C
:1040BC00ADBE02F0B3BE02F0B1BE0078B0FA80F033
:1040CC004009704701230370704770472DE9F04198
:1040DC00DFF838800C4F04464518A54211D003F088
:1040EC0029FE264614F8011B0F2994BF4146394678
:1040FC0003F0C8F803F01EFE3178102203F0E5F847
:10410C00EBE7BDE8F08100BF88850B00E0840B0075
:10411C0010B50021052003F05CFF012002F0AEFE7B
:10412C000121052003F055FF264C03F003FE264920
:10413C0003F0BFF803F0FEFD244903F0AAF821793F
:10414C00601DFFF7C3FF03F0F5FD03F0A6F8A3799C
:10415C008B2B1FD004D8472B0AD07B2B24D010BD1F
:10416C00F12BFCD10021062003F033FF012104E0E8
:10417C000121062003F02DFF0021072003F029FF69
:10418C000021082003F025FF0021BDE8104003208A
:10419C0003F01FBF0021062003F01BFF00210720A6
:1041AC0003F017FF0121ECE70021062003F011FFBB
:1041BC000021072003F00DFF0021082003F009FF68
:1041CC000121E2E798E60320E3840B00F0840B0066
:1041DC0010B503F0AFFD214903F075F803F0AAFD0B
:1041EC001F4903F070F803F0A5FD1C4903F06BF8B0
:1041FC001C4801F0D9FC03F09DFD1B4903F063F84A
:10420C0003F098FD194903F05EF803F093FD16498D
:10421C0003F059F803F08EFD154903F054F81148DA
:10422C0001F058FE044603F085FD0F4903F04BF8EE
:10423C0003F080FD0F4903F02CF854B103F07AFD24
:10424C000D4903F040F803F075FDBDE8104003F094
:10425C0024B803F06FFD0949F3E700BFFA840B00A3
:10426C0018850B0098E6032032850B0050850B0057
:10427C006E850B0081850B008A850B008D850B00EC
:10428C0013B500210E2003F093FE0021052003F04E
:10429C008FFE0121062003F08BFE0121072003F085
:1042AC0087FE0121082003F083FE0121032003F087
:1042BC007FFE0121042003F07BFE1548154C02F013
:1042CC000AF9134802F040F903F034FD4FF416518B
:1042DC0003F024FD2178BFF35B8F11F001010BD1AA
:1042EC0020460191FFF7E9FE019928B10A4803F035
:1042FC0047F82046FFF7E6FE074803F04BF807485F
:10430C0001F08AFD02B0BDE81040FFF761BF00BFAD
:10431C00ACE603202CE6032030E6032098E60320CD
:10432C002DE9F0410C4F06460D4600240A4802F0D8
:10433C00FFFA1FFA84F840450CD9324641463846FC
:10434C0002F0AEFA384602F0FFF8284602F096FD6D
:10435C000134EBE7BDE8F081ACE60320002108B5A1
:10436C003C22084602F0DFFA0A21FFF7D9FF3C2273
:10437C000321012002F0D7FA0A21FFF7D1FF3C22DA
:10438C000721022002F0CFFA0A21FFF7C9FF3C22D5
:10439C000B21032002F0C7FA0A21FFF7C1FF3C22D0
:1043AC000F21042002F0BFFA0A21FFF7B9FF3C22CB
:1043BC001321052002F0B7FA0A21FFF7B1FF3C22C6
:1043CC001621062002F0AFFA0A21FFF7A9FF3C22C2
:1043DC001A21072002F0A7FA0A21FFF7A1FF3C22BD
:1043EC001E21082002F09FFA0A21FFF799FF3C22B8
:1043FC002221092002F097FA0A21FFF791FF3C22B3
:10440C0025210A2002F08FFA0A21FFF789FF3C22AE
:10441C0029210B2002F087FA0A21FFF781FF3C22A9
:10442C002D210C2002F07FFA0A21FFF779FF3C22A4
:10443C0029210B2002F077FA0A21FFF771FF3C22A9
:10444C0025210A2002F06FFA0A21FFF769FF3C22AE
:10445C002221092002F067FA0A21FFF761FF3C22B2
:10446C001E21082002F05FFA0A21FFF759FF3C22B7
:10447C001A21072002F057FA0A21FFF751FF3C22BC
:10448C001621062002F04FFA0A21FFF749FF3C22C1
:10449C001321052002F047FA0A21FFF741FF3C22C5
:1044AC000F21042002F03FFA0A21FFF739FF3C22CA
:1044BC000B21032002F037FA0A21FFF731FF3C22CF
:1044CC000721022002F02FFA0A21FFF729FF3C22D4
:1044DC000321012002F027FA0A21FFF721FF002116
:1044EC003C22084602F01FFA0A21FFF719FF0021AF
:1044FC003922084602F017FA0A21FFF711FF0021B2
:10450C003722084602F00FFA0A21FFF709FF0021B3
:10451C003422084602F007FA0A21FFF701FF0021B6
:10452C003122084602F0FFF90A21FFF7F9FE0021BB
:10453C002F22084602F0F7F90A21FFF7F1FE0021BD
:10454C002D22084602F0EFF90A21FFF7E9FE0021BF
:10455C002A22084602F0E7F90A21FFF7E1FE0021C2
:10456C002822084602F0DFF90A21FFF7D9FE0021C4
:10457C002522084602F0D7F90A21FFF7D1FE0021C7
:10458C002322084602F0CFF90A21FFF7C9FE0021C9
:10459C002022084602F0C7F90A21FFF7C1FE0021CC
:1045AC001E22084602F0BFF90A21FFF7B9FE0021CE
:1045BC002022084602F0B7F90A21FFF7B1FE0021CC
:1045CC002322084602F0AFF90A21FFF7A9FE0021C9
:1045DC002522084602F0A7F90A21FFF7A1FE0021C7
:1045EC002822084602F09FF90A21FFF799FE0021C4
:1045FC002A22084602F097F90A21FFF791FE0021C2
:10460C002D22084602F08FF90A21FFF789FE0021BE
:10461C002F22084602F087F90A21FFF781FE0021BC
:10462C003122084602F07FF90A21FFF779FE0021BA
:10463C003422084602F077F90A21FFF771FE0021B7
:10464C003722084602F06FF90A21FFF769FE0021B4
:10465C000846392202F067F9BDE808400A21FFF745
:10466C005FBE002208B511463C2002F05CF90A211D
:10467C00FFF756FE012211463C2002F054F90A21A4
:10468C00FFF74EFE022211463C2002F04CF90A21A3
:10469C00FFF746FE032211463C2002F044F90A21A2
:1046AC00FFF73EFE042211463C2002F03CF90A21A1
:1046BC00FFF736FE052211463C2002F034F90A21A0
:1046CC00FFF72EFE062211463C2002F02CF90A219F
:1046DC00FFF726FE072211463C2002F024F90A219E
:1046EC00FFF71EFE082211463C2002F01CF90A219D
:1046FC00FFF716FE092211463C2002F014F90A219C
:10470C00FFF70EFE0A2211463C2002F00CF90A219A
:10471C00FFF706FE0B2211463C2002F004F90A2199
:10472C00FFF7FEFD0C2211463C2002F0FCF80A219A
:10473C00FFF7F6FD0B2211463C2002F0F4F80A219B
:10474C00FFF7EEFD0A2211463C2002F0ECF80A219C
:10475C00FFF7E6FD092211463C2002F0E4F80A219D
:10476C00FFF7DEFD082211463C2002F0DCF80A219E
:10477C00FFF7D6FD072211463C2002F0D4F80A219F
:10478C00FFF7CEFD062211463C2002F0CCF80A21A0
:10479C00FFF7C6FD052211463C2002F0C4F80A21A1
:1047AC00FFF7BEFD042211463C2002F0BCF80A21A2
:1047BC00FFF7B6FD032211463C2002F0B4F80A21A3
:1047CC00FFF7AEFD022211463C2002F0ACF80A21A4
:1047DC00FFF7A6FD012211463C2002F0A4F80A21A5
:1047EC00FFF79EFD002211463C2002F09CF80A21A6
:1047FC00FFF796FD00221146392002F094F80A21A9
:10480C00FFF78EFD00221146372002F08CF80A21AA
:10481C00FFF786FD00221146342002F084F80A21AD
:10482C00FFF77EFD00221146312002F07CF80A21B0
:10483C00FFF776FD002211462F2002F074F80A21B2
:10484C00FFF76EFD002211462D2002F06CF80A21B4
:10485C00FFF766FD002211462A2002F064F80A21B7
:10486C00FFF75EFD00221146282002F05CF80A21B9
:10487C00FFF756FD00221146252002F054F80A21BC
:10488C00FFF74EFD00221146232002F04CF80A21BE
:10489C00FFF746FD00221146202002F044F80A21C1
:1048AC00FFF73EFD002211461E2002F03CF80A21C3
:1048BC00FFF736FD00221146202002F034F80A21C1
:1048CC00FFF72EFD00221146232002F02CF80A21BE
:1048DC00FFF726FD00221146252002F024F80A21BC
:1048EC00FFF71EFD00221146282002F01CF80A21B9
:1048FC00FFF716FD002211462A2002F014F80A21B7
:10490C00FFF70EFD002211462D2002F00CF80A21B3
:10491C00FFF706FD002211462F2002F004F80A21B1
:10492C00FFF7FEFC00221146312001F0FCFF0A21AA
:10493C00FFF7F6FC00221146342001F0F4FF0A21A7
:10494C00FFF7EEFC00221146372001F0ECFF0A21A4
:10495C00FFF7E6FC00221146392001F0E4FFBDE828
:10496C0008400A21FFF7DCBC08B5302218212420AE
:10497C0001F0D9FF0A21FFF7D3FC2E2216212320A8
:10498C0001F0D1FF0A21FFF7CBFC2C2214212320AC
:10499C0001F0C9FF0A21FFF7C3FC2B2212212220B0
:1049AC0001F0C1FF0A21FFF7BBFC292210212220B4
:1049BC0001F0B9FF0A21FFF7B3FC28220E212120B8
:1049CC0001F0B1FF0A21FFF7ABFC27220C212120BB
:1049DC0001F0A9FF0A21FFF7A3FC25220A212020C0
:1049EC0001F0A1FF0A21FFF79BFC242208212020C3
:1049FC0001F099FF0A21FFF793FC222206211F20C8
:104A0C0001F091FF0A21FFF78BFC212204211F20CA
:104A1C0001F089FF0A21FFF783FC1F2202211E20CF
:104A2C0001F081FF0A21FFF77BFC1E2210460021BA
:104A3C0001F079FF0A21FFF773FC1F2202211E20CF
:104A4C0001F071FF0A21FFF76BFC212204211F20CA
:104A5C0001F069FF0A21FFF763FC222206211F20C7
:104A6C0001F061FF0A21FFF75BFC242208212020C2
:104A7C0001F059FF0A21FFF753FC25220A212020BF
:104A8C0001F051FF0A21FFF74BFC27220C212120BA
:104A9C0001F049FF0A21FFF743FC28220E212120B7
:104AAC0001F041FF0A21FFF73BFC292210212220B3
:104ABC0001F039FF0A21FFF733FC2B2212212220AF
:104ACC0001F031FF0A21FFF72BFC2C2214212320AB
:104ADC0001F029FF0A21FFF723FC2E2216212320A7
:104AEC0001F021FF0A21FFF71BFC302218212420A2
:104AFC0001F019FF0A21FFF713FC312216212620A1
:104B0C0001F011FF0A21FFF70BFC3222142128209F
:104B1C0001F009FF0A21FFF703FC332212212A209E
:104B2C0001F001FF0A21FFF7FBFB342210212C209E
:104B3C0001F0F9FE0A21FFF7F3FB35220E212E209E
:104B4C0001F0F1FE0A21FFF7EBFB36220C2130209D
:104B5C0001F0E9FE0A21FFF7E3FB37220A2132209C
:104B6C0001F0E1FE0A21FFF7DBFB3822082134209B
:104B7C0001F0D9FE0A21FFF7D3FB3922062136209A
:104B8C0001F0D1FE0A21FFF7CBFB3A220421382099
:104B9C0001F0C9FE0A21FFF7C3FB3B2202213A2098
:104BAC0001F0C1FE0A21FFF7BBFB3C22104600219D
:104BBC0001F0B9FE0A21FFF7B3FB3B2202213A2098
:104BCC0001F0B1FE0A21FFF7ABFB3A220421382099
:104BDC0001F0A9FE0A21FFF7A3FB3922062136209A
:104BEC0001F0A1FE0A21FFF79BFB3822082134209B
:104BFC0001F099FE0A21FFF793FB37220A2132209C
:104C0C0001F091FE0A21FFF78BFB36220C2130209C
:104C1C0001F089FE0A21FFF783FB35220E212E209D
:104C2C0001F081FE0A21FFF77BFB342210212C209E
:104C3C0001F079FE0A21FFF773FB332212212A209F
:104C4C0001F071FE0A21FFF76BFB322214212820A0
:104C5C0001F069FE0A21FFF763FB162131222620A1
:104C6C0001F061FEBDE808400A21FFF759BB0022A4
:104C7C0008B510461E2101F056FE0A21FFF750FB25
:104C8C0000221046202101F04EFE0A21FFF748FBBE
:104C9C0000221046232101F046FE0A21FFF740FBBB
:104CAC0000221046252101F03EFE0A21FFF738FBB9
:104CBC0000221046282101F036FE0A21FFF730FBB6
:104CCC00002210462A2101F02EFE0A21FFF728FBB4
:104CDC00002210462D2101F026FE0A21FFF720FBB1
:104CEC00002210462F2101F01EFE0A21FFF718FBAF
:104CFC0000221046312101F016FE0A21FFF710FBAD
:104D0C0000221046342101F00EFE0A21FFF708FBA9
:104D1C0000221046372101F006FE0A21FFF700FBA6
:104D2C0000221046392101F0FEFD0A21FFF7F8FAA6
:104D3C00002210463C2101F0F6FD0A21FFF7F0FAA3
:104D4C0000221046392101F0EEFD0A21FFF7E8FAA6
:104D5C0000221046372101F0E6FD0A21FFF7E0FAA8
:104D6C0000221046342101F0DEFD0A21FFF7D8FAAB
:104D7C0000221046312101F0D6FD0A21FFF7D0FAAE
:104D8C00002210462F2101F0CEFD0A21FFF7C8FAB0
:104D9C00002210462D2101F0C6FD0A21FFF7C0FAB2
:104DAC00002210462A2101F0BEFD0A21FFF7B8FAB5
:104DBC0000221046282101F0B6FD0A21FFF7B0FAB7
:104DCC0000221046252101F0AEFD0A21FFF7A8FABA
:104DDC0000221046232101F0A6FD0A21FFF7A0FABC
:104DEC0000221046202101F09EFD0A21FFF798FABF
:104DFC00002210461E2101F096FD0A21FFF790FAC1
:104E0C00002210461E2101F08EFD0A21FFF788FAC0
:104E1C00012210461F2101F086FD0A21FFF780FABE
:104E2C00012210461F2101F07EFD0A21FFF778FABE
:104E3C0002221046202101F076FD0A21FFF770FABC
:104E4C0002221046202101F06EFD0A21FFF768FABC
:104E5C0003221046212101F066FD0A21FFF760FABA
:104E6C0003221046212101F05EFD0A21FFF758FABA
:104E7C0004221046222101F056FD0A21FFF750FAB8
:104E8C0004221046222101F04EFD0A21FFF748FAB8
:104E9C0005221046232101F046FD0A21FFF740FAB6
:104EAC0005221046232101F03EFD0A21FFF738FAB6
:104EBC0006221046242101F036FD0A21FFF730FAB4
:104ECC0005221046232101F02EFD0A21FFF728FAB6
:104EDC0005221046232101F026FD0A21FFF720FAB6
:104EEC0004221046222101F01EFD0A21FFF718FAB8
:104EFC0004221046222101F016FD0A21FFF710FAB8
:104F0C0003221046212101F00EFD0A21FFF708FAB9
:104F1C0003221046212101F006FD0A21FFF700FAB9
:104F2C0002221046202101F0FEFC0A21FFF7F8F9BD
:104F3C0002221046202101F0F6FC0A21FFF7F0F9BD
:104F4C00012210461F2101F0EEFC0A21FFF7E8F9BF
:104F5C00012210461F2101F0E6FC0A21FFF7E0F9BF
:104F6C0000221E21104601F0DEFCBDE808400A219B
:104F7C00FFF7D6B9F8B5062003F044F8074607202A
:104F8C0003F040F80646082003F03CF805460320E1
:104F9C0003F038F8012F04460BD11C4A1C491D485C
:104FAC0000F0A1FB02F0C6FE1B4902F082F9FFF7EC
:104FBC00DBFC012E0BD1194A1549164800F093FB66
:104FCC0002F0B8FE164902F074F9FFF74AFB012D06
:104FDC000BD1144A0E490F4800F085FB02F0AAFED3
:104FEC00114902F066F9FFF7B9F9012C0DD10F4AFE
:104FFC000749084800F077FB02F09CFE0C4902F0D0
:10500C0058F9BDE8F840FFF732BEF8BD9F850B009C
:10501C00A8850B0038E60320B5850B00B8850B007E
:10502C00C1850B00C4850B00CD850B00D0850B0012
:10503C00D9850B0007B50021012001F05BFE02238E
:10504C0004221021094801F06DFA05220E210848AE
:10505C0000F0FCFC002300930649074B074840F284
:10506C005B7200F0E9F803B05DF804FBACE60320DA
:10507C0098E60320DC850B00D7400B0038E60320B4
:10508C001FB5184800F0B4F9D8B1174C154800F00A
:10509C0086FB237833B102F04DFE144902F009F976
:1050AC0000232370FFF766FF114801F087F8B8B1B1
:1050BC000F4800F0BFFC98B104B0BDE81040FFF7FA
:1050CC0027B8684601F032FE0099064800F080FAD5
:1050DC00684602F001FA0749024800F0A8FCE3E731
:1050EC0004B010BD38E60320BCE50320EB850B00B3
:1050FC0098E60320A8850B00704710B510210446D4
:10510C00FEF7D9FF204610BD0EB403B503AB00214A
:10511C0053F8042B019302F0F6F802B05DF804EB9F
:10512C0003B0704773B5044608462279A36832B1C0
:10513C00A3B90B4902B0BDE8704002F0A3B8094A0C
:10514C00267B094D0949647B012E18BF2946CDE900
:10515C0000140749FFF7D8FF02B070BD054AEFE70E
:10516C0006860B0089850B0002860B00FE850B0062
:10517C001C860B00F5850B0013B50B4C2178BFF387
:10518C005B8F11F001010BD120460191FEF795FFC9
:10519C00019928B1054802F0F3F82046FEF792FF7A
:1051AC00024802B010BD00BF2CE6032030E60320FD
:1051BC0091F85C3010B50446016013B1886D01F0B4
:1051CC00D1FB204610BD10B5036893F85C20044653
:1051DC0012B1986D01F0CEFB204610BDF8B51F46FC
:1051EC009DF8243004460D4616462BB1012380F859
:1051FC005C30583001F0AEFB089B236300236363E3
:10520C0006B1A66425B1294604F1380002F0C3F9B1
:10521C00069B2365079BE069A4F84C70FF2BB8BF75
:10522C00FF23A4F8543008B1FEF743FFB4F8540040
:10523C00FEF73DFFE061F8BD2DE9FF410446002576
:10524C00174698460E4602F0A7FC0D49E56104F19D
:10525C00380002F08CF99DF82830A564CDE9028362
:10526C00FF220F23CDE90032204684F85C503B46E8
:10527C002A463146FFF7B2FF204604B0BDE8F08164
:10528C0089850B0010B50446204602F0E1FB00288E
:10529C00FAD0204602F0C6F9C0B210BD2DE9F04795
:1052AC0005468846FFF7EEFFEB691870EB6993F83B
:1052BC0000A04FF001090AF0F00A00274C462846DE
:1052CC00FFF7E0FF2646EB69985500F07F0313FBD0
:1052DC0009F31F4401340306A4B2BFB24FEAC91943
:1052EC00EDD4631EBAF1300F88F800301ED1284679
:1052FC00FFF7C8FFEB6918552846FFF7C3FFF41CEE
:10530C000236B6B2EB69A4B298550226B6B2BE42CA
:10531C000ED22846FFF7B6FFB5F85430A34284BF2F
:10532C00EB6918550134A4B20136EFE70026EDE71E
:10533C00B5F85430A3422CBF20460020BDE8F087BE
:10534C002DE9F34115461E461A460746002396469C
:10535C0002A802F07F0CBEF17F0F03F1010403449D
:10536C0088BF4CF0800CBEF17F0F4FEAD212E4B232
:10537C0003F804CC1ED8C4F10403C4F10500E954AD
:10538C00224601A9284405EB030802F0E7FF721C32
:10539C0022444146384602F030F9054601F012FB32
:1053AC00621C78623244A8B2131A5842584102B0B7
:1053BC00BDE8F0812346CAE70233F0B5054698B242
:1053CC000023CE5C9CB256B1B5F854C0844503F1B1
:1053DC00010704D9441C16543B46A0B2F1E799B21C
:1053EC00411A0A44210A02F8021C02F8013CF0BDE1
:1053FC0038B5044602F04EFA002814BF01250025EA
:10540C0002D1204602F07EFB284638BD2DE9F0473C
:10541C0088B00446DDF840809DF850A089461746B8
:10542C001E46FFF7E5FF0546002840F0CD802146DB
:10543C0001A8FFF7BDFEA16C002940F08880B4F8EC
:10544C004C20A16B2B46204602F0A6F900287AD0FE
:10545C00012323849DF85430E269042B5B4B40F00C
:10546C008180186899889B79ADF80C108DF80E30F6
:10547C000290C2F805009DF80E30BDF80C10A2F891
:10548C000910D3720C23B8F1000F00F081809DF845
:10549C0048009DF84420400140EAC20040F006005C
:1054AC00C0B2BAF1000F01D100F0FD001FB1002E07
:1054BC0070D140F08000E269D054226DE169581C33
:1054CC0012120A549A1CE169206D88540333E26964
:1054DC0049462046FFF770FF0346B8F1000F0BD08A
:1054EC00E26941462046FFF767FFE26913990346DC
:1054FC002046FFF761FF034667B1E2693946204653
:10550C00FFF75AFF03462EB1E26931462046FFF7FA
:10551C0053FF0346053BE2699BB210212046FFF77F
:10552C000FFF01F04FFAC4E909004FF47A762046D8
:10553C0002F08EFA88BB01F045FAA36AC01A236DFB
:10554C0073439842F3D9204602F0DCFA35E002A806
:10555C0001F0A6FDB4F84C202B4602A9204602F01F
:10556C00FBF973E7D3F80700D3F80B10DB7B0DF1D5
:10557C00080CACE803008CF8003002AB03CBC2F88B
:10558C000500C2F809109CF8003053730E237AE71B
:10559C00022086E740F0C0008DE702A92046FFF705
:1055AC007DFE0428CFD1E369DE78002ECBD101F04B
:1055BC0009FA0125A06284F82C6001A8FFF703FE0C
:1055CC00284608B0BDE8F0870025F9E7BC840B003D
:1055DC007FB501230422CDE904320023CDE9023347
:1055EC00CDE900331A46FFF711FF07B05DF804FB55
:1055FC002DE9F74FDDF83C809DF834509DF838903C
:10560C0004468B4616461F46FFF7F2FE82460028DC
:10561C0051D0214601A8FFF7CBFDB4F85420E06926
:10562C00002102F0A9FE0523E26959462046FFF746
:10563C00C3FE6B1E012B15D8218CE369013189B295
:10564C002184090A1954421CE369218C92B202305C
:10565C00995480B2B8F1000F04D0238C5A1C2284C8
:10566C00A8F8003000210B188F42E2699BB20AD9CE
:10567C00B4F854C09C4506D916F801C002F803C012
:10568C00013189B2EFE79DF8301000290CBF3021B1
:10569C003121B9F1000F01D041F00801022D0ED1DA
:1056AC0041F00401053B9BB22046FFF749FE8246C0
:1056BC0001A8FFF788FD504603B0BDE8F08F012D1F
:1056CC0008BF41F00201EDE71FB5089C03940024CC
:1056DC0002949DF81C4001949DF818400094FFF72B
:1056EC0087FF04B010BD30B587B004461046059155
:1056FC000492FEF797FC00250346CDE90155DDE940
:10570C00042100952046FFF7DFFF07B030BD73B5CD
:10571C0004460E46FFF76CFE0546C8B1214601A8AB
:10572C00FFF746FDE36962221A70E36902225A70A0
:10573C00E369320A9A70E369DE70E169042220465B
:10574C0001F05BFF051E01A818BF0125FFF73BFD0B
:10575C00284602B070BD73B504460E46FFF748FEEE
:10576C000546C8B1214601A8FFF722FDE369722264
:10577C001A70E36902225A70E369320A9A70E3697B
:10578C00DE70E1690422204601F037FF051E01A8F6
:10579C0018BF0125FFF717FD284602B070BD2DE993
:1057AC00F04F2DED028B87B000AF0446FFF720FEC3
:1057BC008146F8B1214607F11400FFF7F9FC01F01E
:1057CC0001F9236D4FF47A725343A26A821A9A42FA
:1057DC00064603D8626A821A934221D294F82C307E
:1057EC007BB1204602F08EF94FF0000907F114004E
:1057FC00FFF7E9FC48461C37BD46BDEC028BBDE803
:10580C00F08FE269C0211170E2695370E1690222E4
:10581C00204601F0F2FEC4E90966012384F82C301D
:10582C00204602F015F90028E0D007F113012046BC
:10583C00FFF734FD83460028D8D0E369A6621978B7
:10584C0001F0F002302A7FD1D4F830A0BAF1000F69
:10585C00CCD097F813C06A4608EE102A03EB0C0262
:10586C005178957805EB0125ADB205F10802694632
:10587C00D208A1EBC20295460CF10302FA6003EBCD
:10588C00020E0DEB05026846C7F808D07A60D7E91E
:10589C0001218A4206D00A461EF8018B02F8018BC0
:1058AC00BA60F4E70022425593F80080F96808F0DA
:1058BC000608ABEB0C02033AB8F1020FA2EB05029F
:1058CC00294425D113F801E01944023A91F801B0AA
:1058DC000CF10501294419440BEB0E2BD047E3695D
:1058EC0040221A70E3691FFA8BFB83F80180E3698D
:1058FC004FEA1B229A70E36983F803B0E169042232
:10590C00204601F07AFE666218EE103A9D466DE76D
:10591C00B8F1040F15D113F801E01944023A91F8CB
:10592C0001B00CF10501294419440BEB0E2BD047A7
:10593C00E36950221A70E36902221FFA8BFB5A703A
:10594C00D5E71944D047DFE7502A08D19A78D9789F
:10595C0001EB022189B22046FFF7D9FE46E7402A27
:10596C0012D1626B002A3FF441AFBBF1040F7FF4FC
:10597C003DAF11F0060F7FF439AF9978D87800EB72
:10598C00012080B2904731E7602A08D19A78D97803
:10599C0001EB022189B22046FFF7DDFE26E7702AD3
:1059AC00DFD0902A3FF422AFC02A0AD1D0221A703D
:1059BC00E36900225A70E1690222204601F01DFEC3
:1059CC0014E7D02A04BF002384F82C300EE7F7B577
:1059DC0004460F461646FFF70BFD054610B321464D
:1059EC0001A8FFF7E5FB238C01339BB2EBB12384B9
:1059FC00238CE2691B0A5371E369228C9A71E26968
:105A0C00072339462046FFF7D7FCE3691E540438B8
:105A1C0083B2E26982212046FFF792FC054601A879
:105A2C00FFF7D1FB284603B0F0BD0123DFE70022CE
:105A3C00FFF7CDBF08B50146002251F8043B1B68A7
:105A4C009847B0FA80F0400908BD000010B5024C30
:105A5C0004600174427410BDF4870B0007B501900B
:105A6C00FFF78AFB019903B05DF804EB01F02EBD42
:105A7C0008B5FFF781FBBDE8084001F09FBC07B5F6
:105A8C000190FFF779FB019903B05DF804EB01F08D
:105A9C00AFBC00002DE9FF4780461E46254B009306
:105AAC004FF0000A244B9DF83050029368460127B2
:105ABC00144641F080098DF804A0ADF80C70FFF786
:105ACC00DEFF98F81000514602F083FA013C48467C
:105ADC00E4B2FFF7C3FF65B1FF23484603FA05F5AF
:105AEC00FFF7BCFF337823EA050305402B433370E3
:105AFC003D4606EB050A2F46BC4207D94846FFF740
:105B0C00ADFF01370AF8010BFFB2F5E7621BD2B209
:105B1C00AC4238BF002200201544FFF79FFF7055A0
:105B2C00012198F8100002F054FA04B0BDE8F047D7
:105B3C00FFF79EBF44860B0000093D0010B49DF892
:105B4C00044022B101945DF8044BFFF7A3BF5DF84C
:105B5C00044B7047F0B585B00446114B00930025FB
:105B6C00104B0293012768460E468DF80450ADF891
:105B7C000C70FFF784FF2946207C02F02AFA46F0CD
:105B8C008000FFF76BFF2846FFF768FF3946054694
:105B9C00207C02F01EFAFFF76BFF284605B0F0BD23
:105BAC0044860B0000093D0010B56E21FFF7D2FFB3
:105BBC00044602F0BFF8204901F06BFB02F0BAF882
:105BCC001022214601F081FB122C23D004F1780322
:105BDC00DBB20A2B22D8A4F188030A2B1ED8DFE8EB
:105BEC0003F0061D1D1D1D1D1D1D0D11150002F0C0
:105BFC00A1F81249BDE8104001F065BB02F09AF81B
:105C0C000F49F7E702F096F80E49F3E702F092F825
:105C1C000D49EFE702F08EF80C49EBE7013C02F07E
:105C2C0089F8E4B20A4901F04EFBFD2C03D902F0CD
:105C3C0081F80849DEE710BD50860B0065860B0025
:105C4C0070860B0078860B0080860B0088860B0014
:105C5C009C860B00A9860B002DE9FF411C46144BBA
:105C6C0000930646134B02934FF00008012368463D
:105C7C0015460F46ADF80C308DF80480FFF7FFFE8B
:105C8C00307C414602F0A5F93846FFF7E7FE254483
:105C9C00AC4204D014F8010BFFF7E0FEF8E7307CBF
:105CAC00012102F096F904B0BDE8F041FFF7E0BE27
:105CBC0044860B0000093D002DE9FF410446114BC1
:105CCC0000934FF00008104B0293012768461546CD
:105CDC000E468DF80480ADF80C70FFF7D0FE4146EF
:105CEC00207C02F076F93046FFF7B8FE2846FFF725
:105CFC00B5FE207C394602F06CF904B0BDE8F041E9
:105D0C00FFF7B6BE44860B0000093D0070B5164681
:105D1C0004460D46FFF71EFF3043C2B2294620460B
:105D2C00BDE87040FFF7C8BF70B5164604460D4677
:105D3C00FFF710FF20EA0600C2B229462046BDE854
:105D4C007040FFF7B9BFF8B5044616460F4600225F
:105D5C0002211D46FFF7B0FF04220A212046FFF75F
:105D6C00ABFF802214212046FFF7A6FF3B463246AC
:105D7C0012212046FFF770FF032202212046FFF775
:105D8C009BFF00F01FFE00F159060A212046FFF789
:105D9C00E1FE430710D5002202212046FFF78CFFBD
:105DAC0044212046FFF7D6FE422128702046FFF7FB
:105DBC00D1FE68700020F8BD00F0C4FD00F002FEBA
:105DCC008642E2D80320F6E738B50F2202210546B9
:105DDC00FFF772FF0324322001F050F8022128460D
:105DEC00FFF7B8FEC30603D5013C14F0FF04F2D153
:105DFC0038BD10B528210446FFF7ACFE00F00303B4
:105E0C00032B08D040F00302D2B220462821BDE873
:105E1C001040FFF751BF10BD38B504460121007C7E
:105E2C0002F0C6F8207C012102F0D3F8607CFF2838
:105E3C004CD0002102F0BCF8607C02F0E3F805467F
:105E4C00002843D1607C012102F0B2F82946607C25
:105E5C0002F0BFF8022000F0A5FD607C012102F0E9
:105E6C00B8F8322001F00AF8204600222421FFF76E
:105E7C0023FF204600222621FFF71EFF2046262264
:105E8C004821FFF719FF204680225421FFF714FF09
:105E9C002046A9225621FFF70FFF20460322582146
:105EAC00FFF70AFF2046E8225A21FFF705FF20469C
:105EBC0040222A21FFF700FF20463D222221FFF736
:105ECC00FBFE2046BDE83840FFF793BF2046FFF7A6
:105EDC007BFFC9E730B500259BB00446FFF774FF84
:105EEC002946152204A8039502F046FA80221421B3
:105EFC002046FFF7E1FE03AB192212212046FFF7E3
:105F0C00ABFE012202212046FFF7D6FE09226C21AE
:105F1C002046FFF7D1FE2A4612212046FFF7CCFE81
:105F2C00032202212046FFF7C7FEFF25142120463D
:105F3C00FFF710FE3F2803D8013D15F0FF05F5D102
:105F4C000022022120460025FFF7B6FE0AAB4022B4
:105F5C00122120460095FFF79DFD2A466C21204614
:105F6C00FFF7AAFE6E212046FFF7F4FD88380A28B9
:105F7C001FD8DFE800F01C1E1E1E1E1E1E1E06185B
:105F8C001A000D4B591E0AAA3F3312F8010B11F8D7
:105F9C00015F85420DD19942F7D12046FFF73CFFB6
:105FAC0001201BB030BD054BECE7054BEAE7054B78
:105FBC00E8E70020F5E700BF2C870B006C870B008F
:105FCC00AC870B00EC860B002DE9F04F87B09246A6
:105FDC00DDF84C809DF854209DF850B00292DDE91C
:105FEC00117504468946B8F1000F3ED098F8006050
:105FFC000393002202212046FFF75EFE7F22082138
:10600C002046FFF759FE06EB0B1680221421204682
:10601C00FFF752FEF6B2039B9DF84020122120465A
:10602C00FFF71AFE32461A212046FFF745FE4A4674
:10603C0002212046FFF740FEB9F10C0F04D180225B
:10604C001A212046FFF762FE00F0BCFC00F124068A
:10605C0008212046FFF77EFD10EA0A0F5BD1C3072B
:10606C0005D5032007B0BDE8F08F4646C0E700F029
:10607C0069FC00F0A7FC8642EAD8F2E7DFB1D5B1A3
:10608C0014212046FFF766FD2B78834202463ED34F
:10609C0028703B4612212046CDF800B0FFF74EFD8C
:1060AC0018212046FFF756FD00F00703B8F1000F4A
:1060BC0001D088F8003016F008002AD1002FD1D07A
:1060CC00002DCFD0029A002ACCD02A78012A03D1F5
:1060DC00042B1AD1FF20C5E717D9B3B9023A05AB87
:1060EC00D2B239462046FFF72EFE0028BAD12B78C3
:1060FC001F449DF8143017F8022C9A4205D117F85A
:10610C00012C9DF815309A42ACD00720AAE7042048
:10611C00A8E70220A6E70C212046FFF71BFD10F094
:10612C0013030646AAD001209CE710B586B09DF853
:10613C002C4005949DF828400494099C0394089CD9
:10614C000092CDE9013430220B460C21FFF73CFFC5
:10615C0006B010BD70B588B006461C468DF81710F9
:10616C00154612B31B78012B1FD980221C21FFF777
:10617C00DBFD07238DF81F300023CDE902330DF131
:10618C001F03CDE9004301222B460DF117013046C8
:10619C00FFF7CBFF38B92378022B08D19DF81F00ED
:1061AC00003818BF012008B070BD0420FBE70120A7
:1061BC00F9E713460A462621FFF7CCBF13B5022395
:1061CC000446002224218DF80330FFF775FD20468C
:1061DC0000222621FFF770FD204626224821FFF7DA
:1061EC006BFD0DF1030201A92046FFF7E2FF10F051
:1061FC00FD0F0CBF0120002002B010BD2DE9F04FA7
:10620C00502A8BB082460F46904600F23E81802287
:10621C001C21FFF789FD93238DF81C30B8F1000F7A
:10622C0000F0B9803B78042B94BF00230123012597
:10623C0000260BE095238DF81C30B8F1000F00F010
:10624C00AC803B78072B94BF00230123A8EBC6043A
:10625C0064B224EAE474002B00F0A18088228DF84B
:10626C001E20032114F0070218BF012202EBE402E6
:10627C0012F0FF02E0B21DD0002B14BF4FF0030947
:10628C004FF0040906F1010C914594BF01EB090E86
:10629C0001EB020E57FA8CFC5FFA8EFE0A460DF1EA
:1062AC00280B0131C9B25A441CF8019B02F80C9C12
:1062BC007145F3D10BB1083044B21F2C71DD4FF096
:1062CC0070039DF81F208DF81D309DF81E30534033
:1062DC009DF8202053409DF8212053408DF822300A
:1062EC0007220DF1230307A95046FFF72CFD814629
:1062FC00002840F0C68003238DF81A008DF81B305F
:10630C0004940DF1220B4FF009099DF81A300593F6
:10631C0003EB0312D2B21A215046FFF7CDFC059BBA
:10632C0002930DF11A03002201930DF11B0303924A
:10633C0000934A465B4607A95046FFF7F6FE022833
:10634C0081464AD11C215046FFF704FC830600F11C
:10635C00988010F01F0008BF2020A04240F38680D8
:10636C0010F0070318BF012303EBD0030AAA013373
:10637C00134444B20138012200F0070002FA00F085
:10638C0013F80C2C104303F80C0C96E797228DF89D
:10639C001C2006265AE7434649E7434656E70221A6
:1063AC0060E7E3100233DBB204F0070214F00709D4
:1063BC008DF81A2002EB03128DF81D2018BF4FF038
:1063CC00010907AA994402EB030BC3F109035FFA15
:1063DC0089F98DF81B30049497E7002851D1049B60
:1063EC001F2B4FF020047FF76AAF9DF81E30882BCF
:1063FC003FD103231A4601361A4457FA86F6D2B215
:10640C0019460AA801330144DBB211F80C1C06F83A
:10641C00011B9342F4D19DF81B60032E38D19DF8DB
:10642C001A30ABBB0DF11E03012259465046FFF743
:10643C008AFC8146034620BB9DF81E109BF8012068
:10644C00914228D19DF81F109BF80220914222D135
:10645C009BF8002012F004090ED00135EDB2032D8B
:10646C0094D0042D02D0022D3FF4E4AE4FF0050978
:10647C0007E002230422BEE705EB45050135FA725D
:10648C003D7048460BB0BDE8F08F4FF00609F8E7B9
:10649C004FF00109F5E74FF00709F2E738B504466C
:1064AC00C0680D4608B100F0B9FCA379062B0CBFEF
:1064BC000420032010FB05F080B2A08000F0A6FCA5
:1064CC00E06028B1A288002101F056FF658038BD3C
:1064DC00A0806080FBE710B504460121C07901F073
:1064EC0067FDE079002101F074FD0123237010BDDC
:1064FC0037B5037805460C461BB1C079002101F075
:10650C0057FD2B78EC715BB1A0B20121019001F029
:10651C004FFD0198002103B0BDE8304001F059BD9A
:10652C0003B030BD70B50025044616468371C0E932
:10653C00035505700572FFF7B1FF20463146FFF792
:10654C00D7FF204670BD0000C368002B00F0A4816B
:10655C002DE9F04F8379023BDBB2042B9CBFBF4A81
:10656C0052F8234085B0054688BF322400F022FA49
:10657C002B69C01AA042F9D3B94CAE88D4F80035B7
:10658C001BB9D4F86035002B7EDBB64CD4F8003543
:10659C0023B9D4F86035002BC0F26E81B24CD4F81C
:1065AC000035002B00F04481EB79B04AB04C1268F6
:1065BC00190102EB0313575CAE495B78D1F8FC2050
:1065CC0042F08072C1F8FC20226803F01F0343EAFA
:1065DC00471301273A432260A988D5F80C80D4F8D8
:1065EC0004909F40002944D04FF0000E72464FF0AB
:1065FC00A04118F801CB0820802663689B1A462B13
:10660C00FBD96268D1F808351CEA060F43EA070388
:10661C00C1F808352FD063689B1A282BFBD9D1F809
:10662C000C35013843EA07034FEA5606C1F80C351E
:10663C00E3D1AB880EF1010E1FFA8EFE7345D8D84C
:10664C004FF4307103FB01F163689B1A462BFBD9A5
:10665C006368A3EB09098945C0F0E4804FF4967098
:10666C0000F0A0F9A988D5F80C80D4F80490002982
:10667C00BAD10A46E8E763689B1A112BCFD8636836
:10668C009B1A112BF7D9CAE7D4F86435002BBFF647
:10669C007CAFD4F86835002BBFF677AFD4F86C35E7
:1066AC00002BBFF672AF3601331D1846009300F075
:1066BC00ADFB00283FF478AFAB88002B00F0ED80E9
:1066CC00EA68013B12FA83F702F1FF3E002348F21D
:1066DC00060248F20D011EF801CF1CF0800F0CBF12
:1066EC0093468B461CF0400F0CBF16460E461CF012
:1066FC00200F0CBF9046884603F10109CDF80880A5
:10670C00019603F102081FFA89F9019E20F813B0D3
:10671C001FFA88F820F81960029E20F8186003F11F
:10672C0003081CF0100F1FFA88F80CBF93468B4619
:10673C0020F818B003F104081CF0080F1FFA88F8B1
:10674C000CBF93468B4620F818B003F105081CF0DB
:10675C00040F1FFA88F80CBF93468B4620F818B02C
:10676C0003F1080A03F1060807339BB21CF0020F71
:10677C001FFA88F80CBF93468B46CDF80CA01CF082
:10678C00010F20F818B015BF20F8131020F81320B3
:10679C001FFA8AF3BDF80C3077459CD1591C023393
:1067AC0089B29BB249005B004FF400474752009AF4
:1067BC00C7522E4B56081F6800221423C4F8042518
:1067CC00C4F80C25C4F80835C4F81425C4F81025F1
:1067DC00C4F82005C4F82465C4F82825C4F82C2571
:1067EC00EB7907EB031C1B010121FE5C9CF80130CB
:1067FC0003F01F0343EA4613C4F86035C4F80015D0
:10680C00C4F81021A160D4F81031002BFBD0002368
:10681C004FF0FF32C4F81031C4F80035C4F86025CD
:10682C0000F0FCFA00F0C6F8286105B0BDE8F08F66
:10683C00D4F86035002BBFF6B7AED4F86435002B16
:10684C00BFF6B2AED4F86835002BBFF6ADAED4F8B7
:10685C006C35002BBFF6A8AE25E700BF00880B00F7
:10686C0000C001400010024000200240C0E603209E
:10687C00001000E000ED00E0D4F86435002BBFF60A
:10688C008DAED4F86835002BBFF688AED4F86C35D5
:10689C00002BBFF683AE06E770470423022183E783
:1068AC0043888B42F0B52DD9067AC2F30743C2F365
:1068BC000724D5B23EB1734374437543C3F3072326
:1068CC00C4F307242D0A90F806C0C768BCF1060F64
:1068DC000CBF042603264E43ACF1020CB919BCF1D3
:1068EC00060F1DD8DFE80CF0041C08040F0404008C
:1068FC00BC554B708D7005E0FE2B28BFFE23BB559D
:10690C004D708C70F0BDBB554C708D70037A120EAF
:10691C0013B9D2B2CA70F5E75A43C2F30722F9E7AA
:10692C00BB554C70E6E742EA012141EA0040704752
:10693C004088704708B500F04DF8014B186008BD51
:10694C00C0E6032008B5024B1B68DB68019308BD49
:10695C004802030008B5024B1B681B6B019308BD72
:10696C004802030008B5024B1B689B6B019308BDE2
:10697C004802030008B5024B1B681B6C019308BD51
:10698C004802030008B5024B1B685B6C019308BD01
:10699C004802030008B5024B1B685B68019308BDF5
:1069AC001802030008B5024B1B68DB68019308BD95
:1069BC001802030008B5024B1B681B69019308BD44
:1069CC001802030008B5024B1B685B69019308BDF4
:1069DC001802030008B5024B1B681B68019308BD25
:1069EC002C02030008B5024B1B689B68019308BD81
:1069FC002C02030008B5024B1B68DB68019308BD31
:106A0C002C02030008B5024B1B681B69019308BDDF
:106A1C002C02030008B5024B1B685B69019308BD8F
:106A2C002C02030008B5024B1B681B6A019308BDBE
:106A3C002802030008B5024B1B685B6A019308BD72
:106A4C002802030008B5024B1B689B6A019308BD22
:106A5C002802030008B5024B1B68DB6A019308BDD2
:106A6C002802030008B5024B1B681B6B019308BD81
:106A7C002802030008B5024B1B685B6B019308BD31
:106A8C002802030008B5024B1B681B6C019308BD60
:106A9C002802030008B5024B1B685B69019308BD13
:106AAC006C02030008B5024B1B685B69019308BDBF
:106ABC006402030008B5024B1B681B6A019308BDF6
:106ACC006402030008B5024B1B689B6A019308BD66
:106ADC006402030008B5024B1B689B68019308BD58
:106AEC006802030008B5024B1B68DB68019308BD04
:106AFC006802030008B5024B1B689B69019308BD33
:106B0C003802030008B5024B1B68DB69019308BD12
:106B1C003802030008B5024B1B681B6A019308BDC1
:106B2C003802030008B5024B1B689B6A019308BD31
:106B3C003802030008B5024B1B681B6B019308BDA0
:106B4C003802030008B5024B1B689B6B019308BD10
:106B5C003802030008B5024B1B681B68019308BD83
:106B6C003002030008B5024B1B685B69019308BD3A
:106B7C003002030008B5024B1B68DB69019308BDAA
:106B8C003002030008B5024B1B681B6A019308BD59
:106B9C003002030008B5024B1B685B6A019308BD09
:106BAC003002030008B5024B1B68DB6B019308BD78
:106BBC003002030008B5024B1B681B6C019308BD27
:106BCC003002030008B5024B1B685B6C019308BDD7
:106BDC003002030008B5024B1B68DB68019308BD4B
:106BEC003C02030008B5024B1B681B69019308BDEE
:106BFC003C02030008B5024B1B685B69019308BD9E
:106C0C003C02030008B5024B1B689B69019308BD4D
:106C1C003C02030008B5024B1B68DB69019308BDFD
:106C2C003C02030008B5024B1B681B6A019308BDAC
:106C3C003C02030008B5024B1B689B6A019308BD1C
:106C4C003C02030008B5024B1B681B6C019308BD8A
:106C5C003C02030008B5024B1B681B68019308BD7E
:106C6C004C02030008B5024B1B685B68019308BD1E
:106C7C004C02030008B5024B1B681B69019308BD4D
:106C8C004C02030008B5024B1B685B69019308BDFD
:106C9C004C02030008B5024B1B689B69019308BDAD
:106CAC004C02030008B5024B1B68DB69019308BD5D
:106CBC004C02030008B5024B1B681B6A019308BD0C
:106CCC004C02030008B5024B1B681B6D019308BDF9
:106CDC006002030008B5024B1B685B68019308BD9A
:106CEC002002030008B5024B1B685B69019308BDC9
:106CFC002002030008B5024B1B68DB6A019308BD38
:106D0C002002030008B5034B1B68D3F888300193AD
:106D1C0008BD00002002030008B5034B1B68D3F824
:106D2C009430019308BD00002002030008B5024B0B
:106D3C001B68DB69019308BD4402030008B5024BD4
:106D4C001B68DB6B019308BD4402030008B5024BC2
:106D5C001B685B68019308BD4002030008B5024B39
:106D6C001B689B68019308BD4002030008B5024BE9
:106D7C001B68DB68019308BD4002030008B5024B99
:106D8C001B681B69019308BD4002030008B5024B48
:106D9C001B685B69019308BD4002030008B5024BF8
:106DAC001B689B69019308BD4002030008B5024BA8
:106DBC001B68DB69019308BD4002030008B5024B58
:106DCC001B681B6A019308BD4002030008B5024B07
:106DDC001B681B6B019308BD4002030008B5024BF6
:106DEC001B685B6B019308BD4002030008B5024BA6
:106DFC001B681B6C019308BD4002030008B5024BD5
:106E0C001B685B6C019308BD4002030008B5024B84
:106E1C001B681B68019308BD1C02030008B5024BDC
:106E2C001B685B68019308BD1C02030008B5024B8C
:106E3C001B689B68019308BD1C02030008B5024B3C
:106E4C001B685B6A019308BD1C02030008B5024B6A
:106E5C001B68DB6B019308BD1C02030008B5024BD9
:106E6C001B681B6C019308BD1C02030008B5024B88
:106E7C001B685B6C019308BD1C0203000021FFF72B
:106E8C0031BF0000024800230360FFF77BBD00BF49
:106E9C00C4E60320002240681146FFF78FBF002292
:106EAC0040681146FFF79ABF40680022FFF78EBF7B
:106EBC004068002281F00101FFF778BF0023406891
:106ECC001A461946FFF76ABF002340681A4619464E
:106EDC00FFF75CBF002240681146FFF74FBF00224E
:106EEC0040681146FFF73ABF406800220221FFF7C5
:106EFC003DBF002340681A46FFF728BF024B032210
:106F0C005A60024A1A607047C8E6032024880B00B6
:106F1C007047F8B5064615460C468F18BC4206D08D
:106F2C00336814F8011B9B6830469847F6E72846EF
:106F3C00F8BD007C0022FFF775BD007C0021FFF737
:106F4C0079BD007C0021FFF77DBD007C0021FFF79F
:106F5C0081BD007C0021FFF785BD10B514210446CE
:106F6C00FDF7A9F8204610BD38B5044615464FF478
:106F7C007A730022C4E90123094B2174084623606B
:106F8C002946FFF77FFDBF3008D16B69DB0705D5BC
:106F9C006868FFF743FFE868FFF740FF204638BDFD
:106FAC0060880B00704710B518210446FDF783F874
:106FBC00204610BDF0B5037D062B8DB00E4600F1BA
:106FCC0004074FF0000412D000F1080515F8011D5C
:106FDC000A22304600F079F9AF42044419D0002C53
:106FEC00F4D02E21304600F051F90444EEE72F2363
:106FFC006A4639460A208DF80040FFF753FD684673
:10700C00FDF710F833680246DB686946304698474E
:10701C00044620460DB0F0BD10B5054B04461122B8
:10702C0040F8043B002101F0A7F9204610BD00BF39
:10703C0088880B000346074A10B543F8042B01F16E
:10704C00100251F8044B43F8044B9142F9D10A78E1
:10705C001A7010BD88880B00037D042B04D1406886
:10706C00003818BF01207047062B07D143683BB985
:10707C0083682BB9C3681BB90069F1E7002070471E
:10708C000120704710B59DF8084044EA032343EAF9
:10709C00024242EA016104234160037510BD000005
:1070AC0007B5064B0360CB7800938B784A78097848
:1070BC00FFF7E8FF03B05DF804FB00BF88880B0006
:1070CC00014B024A1A607047D0E6032094880B00EB
:1070DC00002340681A46FFF739BE4068002202219F
:1070EC00FFF744BE002240681146FFF737BE00226E
:1070FC0040681146FFF742BE002340681A46194605
:10710C00FFF744BE002340681A461946FFF746BEF7
:10711C0040680021FFF76ABE40680021FFF76EBE91
:10712C004068002281F00101FFF740BE4068002258
:10713C00FFF74CBE002240681146FFF74FBE0022FD
:10714C0040681146FFF73ABE2DE9F04395B014465E
:10715C000D460746FFF760FF00211C220DA8009189
:10716C0001F00AF940230C9320466B460CAA00212F
:10717C00FFF7B8FC044600284BD102460121686891
:10718C00FFF7FCFD0221804622466868FFF7F6FDFA
:10719C00009E81462146002E3BD0002939D17368D0
:1071AC00022B03D00A2B11D0F669F4E7B8F1000FCB
:1071BC00FAD0716906A8043107ADFFF771FF0FCD46
:1071CC003C1D0FC42B6823704146EDE7B9F1000F4D
:1071DC00EAD07469102201A801F0CEF806238DF8CC
:1071EC00143001AD04F108031834186859682A46A4
:1071FC0003C20833A3421546F7D101A906A807AD6F
:10720C00FFF718FF0FCD3C1D0FC42B6823704946A8
:10721C00CAE70098FFF75EFC384615B0BDE8F0836E
:10722C00024B034A1A6000225A607047D4E60320CE
:10723C00A0880B00F8B506460D468F180024BD42F9
:10724C000CD0336815F8011B9B6830469847031E19
:10725C0001DB1C44F3E7002C08BF1C462046F8BD9C
:10726C0013B50446084659B10191FCF7DBFE2368BF
:10727C000199DB680246204602B0BDE81040184771
:10728C0002B010BD08B5FFF7EBFF08BD03689B68A3
:10729C00184708B5FFF7E4FF08BD38B50D210546C2
:1072AC00FFF7F4FF0A2104462846FFF7EFFF2044BE
:1072BC0038BD38B50546FFF7D3FF04462846FFF71F
:1072CC00ECFF204438BDFFF7F4BF30B58BB0002382
:1072DC00012A8DF8243098BF0A2209AC0D46B1FB67
:1072EC00F2F101FB125303F0FF03092B94BF30336F
:1072FC003733DBB2AA4204F8013DEFD92146FFF740
:10730C00AFFF0BB030BD2DE9F04186B000AF0546A4
:10731C000E46381D142114463B60FFF78FFD1328D1
:10732C000ED8391D2846FFF79BFF04461EB1284690
:10733C00FFF7B3FF044420461837BD46BDE8F08183
:10734C0000F1080323F00703E846ADEB030D2246DA
:10735C00411C3B686846FFF771FD69462846FFF7FC
:10736C007FFF0446C546E1E7014B00229A60704757
:10737C00DCE603200021FFF725BC0021FFF71ABC37
:10738C0010B5044608462170FFF7F4FB0023636038
:10739C00204610BD13B504460078FFF7EEFF58B930
:1073AC00207801904FF6FF71FFF7D4FB019802B0E3
:1073BC00BDE81040FFF7DEBF02B010BD0078FFF74C
:1073CC00D9BF0000400830B5186000241868884206
:1073DC00E5B206D90134082C02D040081860F5E754
:1073EC000725024B5B5D137030BD00BFD4880B00CA
:1073FC002DE9F04306468FB000780C46FFF7BDFF31
:10740C0000281BDB35781422002109A800F0B4FFFA
:10741C000B23002209A92846ADF82430FFF7BAFB4C
:10742C009DF82D3013B19DF82C5055B10027B9465D
:10743C00B846012523795DB1C3B100200FB0BDE87A
:10744C00F083DDF830809DF834909DF83570F1E7CD
:10745C00002B35D1A368434508D18DF820908DF8C9
:10746C002170BDF82020A3899A42E6D00023A168A0
:10747C008DF80F300A9804AB0DF10F02FFF7A2FF45
:10748C00217985B989B9A36843450ED38DF820902D
:10749C008DF82170BDF82020A3899A4205D1049B58
:1074AC00434502D1C9E70029F9D100230193637B3D
:1074BC0000939DF80F20237B3078FFF773FBBCE71C
:1074CC00CDE900552B462A460121F5E708B5007891
:1074DC00FFF748FBC0B208BD10B504460068FFF7C3
:1074EC009DFC204610BD10B50446006808B1FFF79E
:1074FC0095FC0023C4E90133236010BD38B5044664
:10750C000D4600680131FFF791FC10B1C4E900058C
:10751C00012038BD10B50368044623B143688B4283
:10752C0001D3012010BD2046FFF7E8FF0028F9D059
:10753C00A368002BF5D122681370F2E737B50D461E
:10754C00114601920446FFF7E5FF019A28B920463F
:10755C00FFF7C9FF204603B030BDA2602946206862
:10756C0000F0FCFE2268A3680021D154F2E700234E
:10757C0013B5C0E9003304468360037341B1084678
:10758C000191FCF74FFD019902462046FFF7D6FF0B
:10759C00204602B010BD13B5044659B108460191FE
:1075AC00FCF740FD019902462046FFF7C7FF204635
:1075BC0002B010BDFFF797FFF9E70000054B022260
:1075CC001A60054B054A9A600020C3E90000FFF7DA
:1075DC0081BB00BFF8E60320ECE603200000FFFFB0
:1075EC0013B503688DF80710DC6B01224FF0FF33E5
:1075FC000DF10701A04702B010BD10B40368DC6B9D
:10760C004FF0FF33A4465DF8044B604713B51346A7
:10761C0002688DF80710D46B0DF107010122A04709
:10762C0002B010BD10B54369B3F88620B3F88430AE
:10763C009A42044608D06369B3F88420511CA3F81D
:10764C0084101344187910BD03681B6998470028EF
:10765C00F1D14FF0FF30F6E7704743691868C0432B
:10766C00C00F704770470000064B994210B500F1EF
:10767C000C0405D0084600F059FD002808BF002472
:10768C00204610BD14880B0010B5AC210446FCF745
:10769C0012FD204610BDAC21FCF70DBD2DE9F041CB
:1076AC004FF0000886B01C46C0F8048005460E4614
:1076BC0017464146102202A800F05EFE631C09D05A
:1076CC004FF47A73B4FBF3F203FB1244CDE90228B6
:1076DC005C430494686910230093006802AB41F288
:1076EC00050240F6FF71FFF705FA002807DAFFF7ED
:1076FC00ADFB03686B60002006B0BDE8F0816869E3
:10770C00002300683A463146FFF714FA031EEEDBFD
:10771C001846F1E738B584690A4B036005467CB11D
:10772C006368013B63605BB9236820469B6898479C
:10773C00A368013BA3601BB923682046DB6898470C
:10774C00284638BD18890B0010B50446FFF7E2FF38
:10775C0020461C21FCF7AFFC204610BD30B587B08D
:10776C00044601AD6846FFF79BFC0FCD04340FC4F3
:10777C002B68237007B030BD70B54D69054B0446BE
:10778C008C3544F8043B06460FCD0FC42B68237090
:10779C00304670BD88880B002DE9F043984603688D
:1077AC0093B00D460024DB6A0646174698472846D8
:1077BC006B46224621460094FFF794F905460028B3
:1077CC0063D1009B002B4BD05B69002B48D006A8E3
:1077DC00FFF722FC009B5C696378022B04D1211D0E
:1077EC0006A8FFF7BBFF26E00A2B24D1112229465D
:1077FC0001A800F0C1FDA368002B38D004F10803E8
:10780C000DF1040C183418685968624603C2083329
:10781C00A3429446F7D1062301A90CA88DF8143085
:10782C00FFF708FC0DF1340CBCE80F0007AC0FC4DB
:10783C00DCF80030237006A8FFF70EFC80B133682B
:10784C0007ADD3F82090124B0C930FCD0DAC0FC499
:10785C002B6823703A4643460CA93046C847054668
:10786C000098FFF737F9284613B0BDE8F083E368BA
:10787C00002BC3D14FF6FF70D4F81090FFF71AF914
:10788C008145BBD104F11401AAE72546E8E700BF06
:10789C0088880B0038B543691A68002A054610DA47
:1078AC00B3F88620B3F884309A420AD103681B6976
:1078BC009847044628B92B682846DB6A9847204627
:1078CC0038BD0120FCE710B54369B3F88620B3F846
:1078DC0084309A42044605D06369B3F8842013447B
:1078EC00187910BD03681B6998470028F4D14FF034
:1078FC00FF30F6E7F8B543691746B3F88620B3F8BE
:10790C0084309A4205460E4616D06969B1F8843027
:10791C00B1F88640E41ABC4228BF3C4604332246E8
:10792C001944304600F01AFD6A69B2F884302344D9
:10793C00A2F884302046F8BD03681B6998470028DC
:10794C00E3D14FF0FF34F5E742690023A2F884300D
:10795C004269A2F8863070472DE9F0411F46036852
:10796C000C46DB6A8AB0054616469847237DD5F847
:10797C001480042B0CBF02200A2006220121FFF7E1
:10798C00E1F8C8F800006B691B68002B08DA2B685B
:10799C002846DB6A0024984720460AB0BDE8F081EF
:1079AC002846FFF7D1FFB7B1002303A9F8B2039320
:1079BC00ADF81030FFF76EF80028E8D1686906239F
:1079CC000093006803AB41F20B0240F6FF71FFF726
:1079DC0091F80028DBD11C22002103A800F0CCFC7C
:1079EC00237D042B1DD14FF407733046ADF80C30BA
:1079FC00FFF768F8ADF80E006068FFF75BF80490CD
:107A0C006B691C22186803A9FFF784F80028BED103
:107A1C0004340FCC6D698C350FC523682B70012491
:107A2C00BAE740F61C233046ADF80C30FFF74AF8A5
:107A3C0005AEADF80E00231D04F114071868596843
:107A4C00324603C20833BB421646F7D1D8E70000D2
:107A5C0030B54269B2F886308BB004462BB1B2F81F
:107A6C0084209A4201D1FFF76FFF616908680028F2
:107A7C0018DBB1F886507F2D14D804310823C5F1DA
:107A8C0080022944FFF74EF8002813DD6369B3F830
:107A9C0086200AB9A3F884206369B3F886201044C1
:107AAC00A3F886006369B3F88600B3F88430C01A73
:107ABC000BB030BDFFF7CAF903680B2BF2D0FFF700
:107ACC00C5F903680B2BEDD020230025CDE9023539
:107ADC00FFF7BCF903680193084B0949009302AA0C
:107AEC002B463220FFF7EEF863691868FFF70AF8A7
:107AFC0063694FF0FF321A60D4E700BFE3880B00D4
:107B0C00DC880B0010B5436904461868002801DBBB
:107B1C00FEF7F8FF63694FF0FF321A6060691122BB
:107B2C0000218C3000F028FC2046BDE81040FFF707
:107B3C000BBF10B5002304460160C0F884308830B8
:107B4C00FFF76AFA204610BD73B500234FF47A7222
:107B5C00C0E901320E4A0361026043610446AC2065
:107B6C000191FCF7A2FA051E05F10C0608D00123C1
:107B7C00C5E90133074B01992B603046FFF7D9FF5C
:107B8C002046C4E90565FFF7DFFE02B070BD00BFFB
:107B9C0018890B00FC880B0010B54FF0FF31044620
:107BAC00FFF7D2FF204610BD10B504460068002830
:107BBC0001DBFEF7A7FF204610BD0C30FFF7F4BF2A
:107BCC00024B1A68024B1A60704700BFC0E50320D5
:107BDC00FCE6032070474174704708B5007CFFF742
:107BEC0029F820EAE07008BD08B5007CFEF7FAFF22
:107BFC0020EAE07008BD08B5007CFFF703F840EA06
:107C0C00E07008BD08B5007CFEF7F4FF40EAE070B8
:107C1C0008BD007CFEF7FEBF37B5457C04462DB190
:107C2C00207C03B0BDE83040FEF7D4BF007C01914E
:107C3C00FFF700F800280199F2DC284603B030BDAC
:107C4C0010B514210446FCF736FA204610BD00008E
:107C5C0010B54FF47A730446084611460022C4E965
:107C6C000123044B2360012320746374FEF7EAFFA5
:107C7C00204610BD80890B004174704770477047D7
:107C8C0008B50021007CFFF705F840EAE07008BD5C
:107C9C0008B50121007CFEF7FDFF40EAE07008BD4D
:107CAC0008B5007CFEF7EEFF20EAE07008BD08B5D1
:107CBC00007CFEF7DFFF20EAE07008BD13B5044638
:107CCC00007C0191FEF7DEFF0028019901DC607C4D
:107CDC0020B1207CFEF7E6FF20EAE07002B010BD78
:107CEC00007CFEF7E7BF10B514210446FCF7E3F95E
:107CFC00204610BD10B54FF47A7304460846002197
:107D0C00C4E90113044B23600123207463741146EE
:107D1C00FEF7A0FF204610BDB0890B00007C0022AE
:107D2C00FEF7A0BF10B514220446002100F024FB7E
:107D3C00204610BD10B50F4C88B003A8FFF7F2FF1A
:107D4C002178BFF35B8F11F001010FD12046019117
:107D5C00FCF7B3F9019948B103AA0748FFF7CAFF2A
:107D6C002046FCF7AFF9054800F0F2FA024808B0DB
:107D7C0010BD00BF00E7032004E70320897C0B0043
:107D8C00002240681146FEF7F9BF002240681146F8
:107D9C00FFF714B8002240681146FFF71FB840687F
:107DAC000022FFF713B84068002281F00101FEF7B2
:107DBC00FDBF002340681A461946FEF7EFBF0023AB
:107DCC0040681A461946FEF7E1BF0022406811468A
:107DDC00FEF7C4BF406800220221FEF7C7BF002394
:107DEC0040681A46FEF7B2BF024B04225A60024AA0
:107DFC001A60704718E70320E0890B00014B1860EC
:107E0C00704700BFC4E5032008B50B4B43B1FFF727
:107E1C0091FF03681B699847002801DDAFF30080D0
:107E2C00064B43B100F05CF903681B6998470028C6
:107E3C0001DDAFF3008008BD000000000000000071
:107E4C0008B5FFF7E1FFFEF7BDFD014B186008BD5B
:107E5C0028E703200548064A064908B5121A00F01F
:107E6C007DFA054B054A1A6008BD00BF00F40320DB
:107E7C0004F40320388C0B0000F403201E1C279AFA
:107E8C0007B5002300931A466FF07701FEF744FF05
:107E9C0003B05DF804FB000007B543880A2B08D03B
:107EAC00502B0BD1094B1B684BB103B05DF804EBA5
:107EBC001847FFF7E5FF03B05DF804FB00230093C0
:107ECC001A466FF07701FEF727FFF4E724E703204B
:107EDC0010B512480021FEF7C9FF114B1A68114B5F
:107EEC009A42114B0CBF012200221A7001D0FFF7ED
:107EFC00B1FFFEF74FFD044600F046FA0B4B13B1F1
:107F0C002046AFF3008000210848FEF717FFBDE8BC
:107F1C00104007480021FEF7F5BE00BF097E0B009C
:107F2C0000F403201E1C279A20E703200000000009
:107F3C00A57E0B00232813B502D9002002B010BD7A
:107F4C00A0F10B03022B1AD8174C2178BFF35B8FCF
:107F5C0011F001010BD120460191FCF7AEF801990B
:107F6C0028B11248FFF70CFA2046FCF7ABF80F4B80
:107F7C001878FEF707FE0028DFD10120DEE7012884
:107F8C0009D800F06DF80021007CFEF773FD80F03D
:107F9C000100C0B2D2E709380128EED800F0A0F8F1
:107FAC00007CFEF73FFEF2E72CE6032030E60320D0
:107FBC00232838B504460D460AD8FF2908D0FFF708
:107FCC00B9FF28B129462046BDE83840FEF70ABD66
:107FDC0038BD38B504460D46FEF70CFDFF2810D011
:107FEC00062804D84D2323FA00F0C30709D42046F1
:107FFC00FFF7A0FF28B129462046BDE83840FEF720
:10800C0001BD38BD10B50446FEF7F4FC031FDBB20E
:10801C00012B08D92046FFF78DFF20B12046BDE883
:10802C001040FEF7F7BC002010BD704738B50A4B66
:10803C0003600123044643610849202000F074F8D2
:10804C00202560600549A560284600F06DF8C4E95C
:10805C000305204638BD00BF18000100148A0B0030
:10806C0030B50E4D2978BFF35B8F11F0010487B04A
:10807C0011D12846FCF721F868B16846FFF7D6FF06
:10808C006A4621460648FEF76FFF2846FCF71AF8A9
:10809C00044800F05DF9024807B030BD2CE703201E
:1080AC0030E7032037800B007047000038B50446DA
:1080BC0014252A46002100F05FF925804025074948
:1080CC0025812846258200F02FF804496060284657
:1080DC0000F02AF8E060204638BD00BF148A0B007F
:1080EC0030B50E4D2978BFF35B8F11F0010487B0CA
:1080FC0011D12846FBF7E1FF68B101A8FFF7D6FFC5
:10810C0001AA21460648FFF7A3FD2846FBF7DAFF34
:10811C00044800F01DF9024807B030BD44E70320C5
:10812C0048E70320B5800B00FBF7C1BF014900F005
:10813C00F9B800BF308A0B007FB500241023CDE9BD
:10814C000234036815469E6912686B46CDE90044FB
:10815C00B0479DF8043003F00603062B03BF009BC9
:10816C002B600120204604B070BD0098904214BFD3
:10817C00012006207047000010B5034B0360044635
:10818C0000F0CDF8204610BD708A0B0010B50446E7
:10819C00FFF7F2FF20460821FBF78DFF204610BDAC
:1081AC002DE9F0411F46DDE90834DDF818809845CB
:1081BC000646154607D1079900F0B4F818B1657159
:1081CC000020BDE8F0813946304600F0ABF80028BD
:1081DC00F6D00123C4F800802571A371F0E738B5FF
:1081EC0015461C4600F09EF820B10823E3600623D8
:1081FC002560237138BD73B505460C4601921E46A9
:10820C0000F090F850B9032E08D82368019A5B69E6
:10821C002946204602B0BDE87040184702B070BD38
:10822C0010B5034B03600446FFF7A6FF204610BDB4
:10823C00D08A0B0010B50446FFF7F2FF20460C2144
:10824C00FBF739FF204610BDF7B5089F974205464E
:10825C000E4614460AD0A86802680897156A31467B
:10826C002246AC4603B0BDE8F04060471946019386
:10827C0000F058F8019B0028EDD0062003B0F0BDAB
:10828C002DE9F14F0D461946DDE90A4BDDE90CA647
:10829C0081461746984600F045F890B1002D3460A1
:1082AC00377109DB61198A450CBF06210121B171B7
:1082BC00002001B0BDE8F08F0235F9D10123B37174
:1082CC00F6E7544506D15946484600F02BF808B15C
:1082DC007771EDE7D9F808000368CDE90CA6CDE974
:1082EC000A4BDC693A4643462946A44601B0BDE830
:1082FC00F04F60472DE9F04107460C4615461E46E7
:10830C00FFF76DFF48B9B86803689F692A46334682
:10831C002146BC46BDE8F0416047BDE8F08170479E
:10832C0000207047814208B50ED0406803782A2B94
:10833C000CD049680B782A2B08BF0131FBF768FE7B
:10834C00B0FA80F0400908BD0120FCE70020FAE7F4
:10835C00002301461A46184600F044B80A449142DC
:10836C0000F1FF3300D1704710B511F8014B03F841
:10837C00014F9142F9D110BD02440346934200D102
:10838C00704703F8011BF9E738B5104B1D68AB6B50
:10839C000446B3B91820FEF739FD0246A86320B98C
:1083AC000B4B0C484221FEF759FD0B490B4BC0E916
:1083BC0000130B4B83600B23838100210120C2E946
:1083CC000401AB6B00221C615A6138BDC4E503206B
:1083DC00098B0B00208B0B000E33CDAB34126DE6EA
:1083EC00ECDE05002DE9F843DFF8B8800646D8F836
:1083FC0000001F460D46914600F056F8254B1C68B0
:10840C0034B9254C1C60254B13B11B68C4F888305B
:10841C0063681F2B07DDD8F8000000F047F84FF019
:10842C00FF30BDE8F8834EB3D4F8880088B91C4BF4
:10843C0023B9D8F8000000F038F8F0E74FF4847056
:10844C00FEF7E4FC0028F4D00023C0E94033C4F864
:10845C008800636840F8239001229A4000EB830166
:10846C00D0F800311343C0F80031022EC1F88070EF
:10847C0002BFD0F804311343C0F804316368D8F854
:10848C0000005A1C0233626044F8235000F00EF8CE
:10849C000020C6E7E8E703205CE7032000000000AB
:1084AC00196E0B0028E603207047704770470000D8
:1084BC0000044D5154540400064D5149736470032B
:1084CC0041400B007D400B00A5400B00A9400B0068
:1084DC00000000002030004361726420507265730C
:1084EC00656E740043617264205549443A002A2A2F
:1084FC002A2A2A2A2A2A2A2A2A2A2A2A2A2A2A2AD0
:10850C002A2A2A2A2A2A2A2A2A2A2A004D46524369
:10851C00353232204469676974616C2073656C660E
:10852C002074657374002D2D2D2D2D2D2D2D2D2D9D
:10853C002D2D2D2D2D2D2D2D2D2D2D2D2D2D2D2D5F
:10854C002D2D2D004F6E6C79206B6E6F776E207613
:10855C00657273696F6E7320737570706F7274656A
:10856C006400506572666F726D696E672074657316
:10857C00742E2E2E00526573756C743A20004F4B7E
:10858C0000444546454354206F7220554E4B4E4F88
:10859C00574E004C69676874203121004361707339
:1085AC00746F6E654E6F6465004C31004C69676882
:1085BC0074203221004C32004C69676874203321DE
:1085CC00004C33004C69676874203421004C340033
:1085DC006C61622E74686577636C2E636F6D0043FB
:1085EC006F6E6E65637465640064656661756C744A
:1085FC0020004D5342004C5342003C5350495365AC
:10860C007474696E67732064656661756C743E0082
:10861C003C53504953657474696E677320257325F8
:10862C0075202573204D4F444525753E00000000F4
:10863C00000000000000000031510B0005510B0040
:10864C0007510B004669726D776172652056657231
:10865C0073696F6E3A20307800203D2028636C6F70
:10866C006E652900203D2076302E3000203D20768E
:10867C00312E3000203D2076322E3000203D2063FC
:10868C006F756E74657266656974206368697000D5
:10869C00203D2028756E6B6E6F776E290057415206
:1086AC004E494E473A20436F6D6D756E6963617428
:1086BC00696F6E206661696C7572652C2069732018
:1086CC00746865204D4652433532322070726F709B
:1086DC0065726C7920636F6E6E65637465643F00C0
:1086EC0000D6788CE2AA0C182AB87A7FD36ACF0B02
:1086FC00B137634B69AE91C7C397AE77F437D79B4D
:10870C007CF53C118F15C3D7C15B002AD075DE9E5A
:10871C005164AB3EE915B5AB569A988226EA2A62AB
:10872C000087980F49FF0719BF2230495963ADCA1A
:10873C007FE34E035C4E4950479A3761E7E2C62E01
:10874C00755AED043D024B7832FF583B7CE900949E
:10875C00B44A595BFDC929DF3596989E4F30328D4E
:10876C0000C637D532B7575CC2D87C4DD970C773A9
:10877C0010E6D2AA5EA13E5A14AF3061C970DB2E4E
:10878C00642272B5BD65F4EC22BCD37235CDAA411E
:10879C001FA7F35314DE7E02D90FB55E251D297970
:1087AC0000EB66BA57BF2395D0E30D3D27895CDEFD
:1087BC009D3BA700215B8982513AEB020CA5004935
:1087CC007C844DB3CCD21B815D4876D5716121A9D7
:1087DC0086968338CF9D5B6DDC15BA3E7D953B2F1D
:1087EC00000000000000000009620B00C9610B00D2
:1087FC00415A0B002C01000018000000F40100008D
:10880C002C010000500000000000000000000000DF
:10881C000000000000000000FF6E0B00F56E0B0066
:10882C00EB6E0B00E16E0B00D56E0B00C96E0B00EE
:10883C001D710B0025710B00BD6E0B00B56E0B008E
:10884C00AB6E0B00A16E0B0055710B00000000000D
:10885C00000000001D6F0B00676F0B003F6F0B00DB
:10886C001F6F0B00476F0B004F6F0B00576F0B0008
:10887C005F6F0B000000000000000000C16F0B00D8
:10888C00B16F0B00B36F0B00617070000000000043
:10889C0000000000DD700B00E7700B00F1700B00A6
:1088AC00FB700B0005710B0011710B001D710B009F
:1088BC0025710B002D710B0039710B0041710B00F0
:1088CC004B710B0055710B00000810182028303824
:1088DC00776972696E670072656376206572726F74
:1088EC0072203D2025640000000000000000000004
:1088FC0071760B0095760B00C77B0B00A3760B00F3
:10890C0075760B00000000000000000021770B00C2
:10891C0055770B00ED750B0007760B005D7A0B009D
:10892C0031760B00D3780B0065760B0065790B0064
:10893C00A5770B0001790B00117B0B00A1780B00C4
:10894C0067760B0019760B00A9760B0085770B0068
:10895C0025592D256D2D25645425483A254D3A254C
:10896C0053257A0061736374696D65000000000023
:10897C0000000000E17B0B004D7C0B00257C0B0004
:10898C0041720B00F57B0B00117C0B00037C0B0080
:10899C001F7C0B00E37B0B00E77B0B00000000004F
:1089AC00000000008B7C0B00F37C0B00C97C0B00DF
:1089BC0041720B00BB7C0B008D7C0B009D7C0B0073
:1089CC00ED7C0B00AD7C0B00857C0B0000000000E7
:1089DC0000000000EB7D0B00E17D0B00D77D0B0050
:1089EC008D7D0B00CB7D0B00BF7D0B001D710B0033
:1089FC0025710B00B37D0B00AB7D0B00A17D0B0033
:108A0C00977D0B0055710B0000537431395F537017
:108A1C005F6D616B655F7368617265645F746167DC
:108A2C0000000000708A0B00158A0B00D08A0B0026
:108A3C00448A0B00F48A0B004E31305F5F63787808
:108A4C00616269763131375F5F636C6173735F7438
:108A5C007970655F696E666F45000000000000006C
:108A6C00388A0B0085810B0099810B002D830B003C
:108A7C002D830B0003820B0045810B00EB810B0057
:108A8C00AD810B0077810B00D08A0B00A08A0B0004
:108A9C00388A0B004E31305F5F637878616269769B
:108AAC003132305F5F73695F636C6173735F7479CC
:108ABC0070655F696E666F45000000000000000085
:108ACC00948A0B002D820B0041820B002D830B002E
:108ADC002D830B0003820B0045810B0001830B00DF
:108AEC008D820B0055820B00708A0B00FC8A0B00E8
:108AFC00537439747970655F696E666F00524545C1
:108B0C004E54206D616C6C6F632073756363656587
:108B1C00646564002F746D702F6A656E6B696E737B
:108B2C002D4743432D31302D706970656C696E652E
:108B3C002D34385F32303230313132345F313630AF
:108B4C00363138303633392F7372632F6E65776C4C
:108B5C0069622F6E65776C69622F6C6962632F7323
:108B6C0074646C69622F72616E642E630000000085
:108B7C0041500B0041690B00916E0B00096F0B000B
:108B8C00CD700B002D720B0075730B00C9750B00AB
:088B9C00CD7B0B00F57D0B0001
:108BA400040000001400000003000000474E5500BC
:108BB400E0391A6743D90550E6D171E5ECB515D80B
:048BC400A219528020
:108BC8000100000070890B00C8E5032000000000C8
:108BD800000000000000000000000000000000008D
:108BE800000000000000000000000000000000007D
:108BF800000000000000000000000000000000006D
:108C0800000000000000000000000000000000005C
:108C1800000000000000000000000000000000004C
:108C2800000000000000000000000000ECE7032046
:048C38000000000038
:108C420000000102030405060708090A0B0C0D0EB9
:108C52000F101112131415161718191A1B1C1D1EAA
:048C62001F202800A7
:048C660078563412F6
:04000003B000401CED
:00000001FF
