:02000002B0004C
:1040000000400B00FA7A0B00000006000C000502CD
:084010000401B41400000000DB
:0440180078730B00AE
:10401C0010F8012B11F8013B012A28BF9A42F7D066
:10402C00D01A7047034613F8012B002AFBD1181A3B
:10403C000138704709480A49884208B505D0094A31
:10404C00824202D0121A03F0DFF80748074A002117
:10405C00121A03F0E7F8014808BD00BFD4E50320AD
:10406C005C7A0B0044E6032044E60320F0E70320CF
:10407C0070B5074E074C02F081FEA41BA408002566
:10408C00AC4200D170BD56F8043B98470135F7E7B8
:10409C00147A0B00387A0B0000F04AB908B500F01E
:1040AC00A9F9BDE8084002F021BE01F005BE01F0FF
:1040BC0003BE01F009BE01F007BE0078B0FA80F033
:1040CC004009704701230370704770472DE9F04198
:1040DC00DFF838800C4F04464518A54211D002F089
:1040EC007FFD264614F8011B0F2994BF4146394623
:1040FC0002F01EF802F074FD3178102202F03BF849
:10410C00EBE7BDE8F08100BF71740B008C730B0002
:10411C0010B50021052002F0B2FE012001F004FED2
:10412C000121052002F0ABFE264C02F059FD264978
:10413C0002F015F802F054FD244902F000F8217940
:10414C00601DFFF7C3FF02F04BFD01F0FCFFA379EC
:10415C008B2B1FD004D8472B0AD07B2B24D010BD1F
:10416C00F12BFCD10021042002F089FE012104E096
:10417C000121042002F083FE0021062002F07FFEC4
:10418C000021072002F07BFE0021BDE81040082032
:10419C0002F075BE0021042002F071FE0021062001
:1041AC0002F06DFE0121ECE70021042002F067FE15
:1041BC000021062002F063FE0021072002F05FFEC2
:1041CC000121E2E7B0E603208F730B009C730B0018
:1041DC00F8B5042002F06CFE0746062002F068FEDB
:1041EC000646072002F064FE0546082002F060FE39
:1041FC00012F044609D11849184A194800F02DFC22
:10420C0002F0EEFC174901F0AAFF012E09D1124968
:10421C00154A134800F021FC02F0E2FC134901F0AE
:10422C009EFF012D09D10C49114A0D4800F015FCD7
:10423C0002F0D6FC0F4901F092FF012C0BD106497C
:10424C000D4A074800F009FC02F0CAFCBDE8F84032
:10425C000A4901F084BFF8BDAF730B00A6730B00C5
:10426C0050E60320BC730B00BF730B00C8730B002C
:10427C00CB730B00D4730B00D7730B00E0730B00E4
:10428C0010B502F0ADFC214901F073FF02F0A8FC5F
:10429C001F4901F06EFF02F0A3FC1C4901F069FFFD
:1042AC001C4800F03BFE02F09BFC1B4901F061FF37
:1042BC0002F096FC194901F05CFF02F091FC1649E2
:1042CC0001F057FF02F08CFC154901F052FF114828
:1042DC0000F0BAFF044602F083FC0F4901F049FFDD
:1042EC0002F07EFC0F4901F02AFF54B102F078FC79
:1042FC000D4901F03EFF02F073FCBDE8104001F0E7
:10430C0022BF02F06DFC0949F3E700BFE3730B0019
:10431C0001740B00B0E603201B740B0039740B0006
:10432C0057740B006A740B0073740B0076740B00DB
:10433C0013B500210E2002F091FD0021052002F0A2
:10434C008DFD0121042002F089FD0121062002F0DF
:10435C0085FD0121072002F081FD144C012108206C
:10436C0002F07CFD02F03CFC4FF4165102F02CFCE8
:10437C002178BFF35B8F11F001010BD12046019125
:10438C00FFF79BFE019928B1094801F04FFF204629
:10439C00FFF798FE064801F053FF064800F0F6FEC2
:1043AC0002B0BDE81040FFF76BBF00BF44E603202E
:1043BC0048E60320B0E6032007B50021012001F0F8
:1043CC00EFFB05220E21074800F0FAFC00230093B6
:1043DC000549064B064840F25B7200F0E7F803B063
:1043EC005DF804FBB0E6032088740B00D7400B008B
:1043FC0050E603201FB5184800F0B4F9D8B1174C9B
:10440C00154800F086FB237833B102F0E9FB144920
:10441C0001F0A5FE00232370FFF7DAFE114801F02E
:10442C0087F8B8B10F4800F0BFFC98B104B0BDE8F4
:10443C001040FFF76DBE684601F0CEFB00990648B0
:10444C0000F080FA684601F09DFF0749024800F031
:10445C00A8FCE3E704B010BD50E60320D4E503202C
:10446C0097740B00B0E60320AF730B00704710B5C8
:10447C0010210446FFF71FFE204610BD0EB403B5F5
:10448C0003AB002153F8042B019301F092FE02B010
:10449C005DF804EB03B0704773B504460846227907
:1044AC00A36832B1A3B90B4902B0BDE8704001F06A
:1044BC003FBE094A267B094D0949647B012E18BF72
:1044CC002946CDE900140749FFF7D8FF02B070BDAB
:1044DC00054AEFE7B2740B0072740B00AE740B005C
:1044EC00AA740B00C8740B00A1740B0013B50B4C11
:1044FC002178BFF35B8F11F001010BD120460191A4
:10450C00FFF7DBFD019928B1054801F08FFE20462D
:10451C00FFF7D8FD024802B010BD00BF44E60320EF
:10452C0048E6032091F85C3010B50446016013B1E5
:10453C00886D01F07DF9204610BD10B5036893F825
:10454C005C20044612B1986D01F07AF9204610BD3A
:10455C00F8B51F469DF8243004460D4616462BB17F
:10456C00012380F85C30583001F05AF9089B236322
:10457C000023636306B1A66425B1294604F1380013
:10458C0001F05FFF069B2365079BE069A4F84C7064
:10459C00FF2BB8BFFF23A4F8543008B1FFF789FDF7
:1045AC00B4F85400FFF783FDE061F8BD2DE9FF413D
:1045BC0004460025174698460E4602F043FA0D496C
:1045CC00E56104F1380001F028FF9DF82830A5645E
:1045DC00CDE90283FF220F23CDE90032204684F877
:1045EC005C503B462A463146FFF7B2FF204604B0EA
:1045FC00BDE8F08172740B0010B50446204602F041
:10460C007DF90028FAD0204601F062FFC0B210BD3F
:10461C002DE9F04705468846FFF7EEFFEB69187069
:10462C00EB6993F800A04FF001090AF0F00A00279B
:10463C004C462846FFF7E0FF2646EB69985500F0FC
:10464C007F0313FB09F31F4401340306A4B2BFB26A
:10465C004FEAC919EDD4631EBAF1300F88F8003057
:10466C001ED12846FFF7C8FFEB6918552846FFF7FF
:10467C00C3FFF41C0236B6B2EB69A4B298550226FD
:10468C00B6B2BE420ED22846FFF7B6FFB5F854308C
:10469C00A34284BFEB6918550134A4B20136EFE78D
:1046AC000026EDE7B5F85430A3422CBF204600207D
:1046BC00BDE8F0872DE9F34115461E461A4607461C
:1046CC000023964602A802F07F0CBEF17F0F03F187
:1046DC000104034488BF4CF0800CBEF17F0F4FEAFD
:1046EC00D212E4B203F804CC1ED8C4F10403C4F112
:1046FC000500E954224601A9284405EB030802F001
:10470C0083FD721C22444146384601F0CCFE05461E
:10471C0001F0B6F8621C78623244A8B2131A5842FF
:10472C00584102B0BDE8F0812346CAE70233F0B528
:10473C00054698B20023CE5C9CB256B1B5F854C075
:10474C00844503F1010704D9441C16543B46A0B21E
:10475C00F1E799B2411A0A44210A02F8021C02F844
:10476C00013CF0BD38B5044601F0EAFF002814BF47
:10477C000125002502D1204602F01AF9284638BD41
:10478C002DE9F04788B00446DDF840809DF850A034
:10479C00894617461E46FFF7E5FF0546002840F000
:1047AC00CD80214601A8FFF7BDFEA16C002940F089
:1047BC008880B4F84C20A16B2B46204601F042FFB8
:1047CC0000287AD0012323849DF85430E269042B0D
:1047DC005B4B40F08180186899889B79ADF80C1080
:1047EC008DF80E300290C2F805009DF80E30BDF821
:1047FC000C10A2F80910D3720C23B8F1000F00F0C2
:10480C0081809DF848009DF84420400140EAC20098
:10481C0040F00600C0B2BAF1000F01D100F0FD006B
:10482C001FB1002E70D140F08000E269D054226D8F
:10483C00E169581C12120A549A1CE169206D8854C3
:10484C000333E26949462046FFF770FF0346B8F18F
:10485C00000F0BD0E26941462046FFF767FFE26983
:10486C00139903462046FFF761FF034667B1E269DF
:10487C0039462046FFF75AFF03462EB1E26931460E
:10488C002046FFF753FF0346053BE2699BB210211C
:10489C002046FFF70FFF00F0F3FFC4E909004FF4C7
:1048AC007A76204602F02AF888BB00F0E9FFA36A6A
:1048BC00C01A236D73439842F3D9204602F078F85E
:1048CC0035E002A801F042FBB4F84C202B4602A9BB
:1048DC00204601F097FF73E7D3F80700D3F80B10CD
:1048EC00DB7B0DF1080CACE803008CF8003002AB5C
:1048FC0003CBC2F80500C2F809109CF800305373C2
:10490C000E237AE7022086E740F0C0008DE702A96B
:10491C002046FFF77DFE0428CFD1E369DE78002E18
:10492C00CBD100F0ADFF0125A06284F82C6001A86A
:10493C00FFF703FE284608B0BDE8F0870025F9E72D
:10494C0068730B007FB501230422CDE904320023E8
:10495C00CDE90233CDE900331A46FFF711FF07B05A
:10496C005DF804FB2DE9F74FDDF83C809DF83450E1
:10497C009DF8389004468B4616461F46FFF7F2FE0C
:10498C008246002851D0214601A8FFF7CBFDB4F890
:10499C005420E069002102F045FC0523E2695946E8
:1049AC002046FFF7C3FE6B1E012B15D8218CE36943
:1049BC00013189B22184090A1954421CE369218C02
:1049CC0092B20230995480B2B8F1000F04D0238C0B
:1049DC005A1C2284A8F8003000210B188F42E2697F
:1049EC009BB20AD9B4F854C09C4506D916F801C03C
:1049FC0002F803C0013189B2EFE79DF830100029AD
:104A0C000CBF30213121B9F1000F01D041F0080168
:104A1C00022D0ED141F00401053B9BB22046FFF75D
:104A2C0049FE824601A8FFF788FD504603B0BDE859
:104A3C00F08F012D08BF41F00201EDE71FB5089C76
:104A4C000394002402949DF81C4001949DF8184096
:104A5C000094FFF787FF04B010BD30B587B0044653
:104A6C00104605910492FFF7DDFA00250346CDE9C7
:104A7C000155DDE9042100952046FFF7DFFF07B063
:104A8C0030BD73B504460E46FFF76CFE0546C8B143
:104A9C00214601A8FFF746FDE36962221A70E3691B
:104AAC0002225A70E369320A9A70E369DE70E16996
:104ABC000422204601F0F7FC051E01A818BF0125B1
:104ACC00FFF73BFD284602B070BD73B504460E4699
:104ADC00FFF748FE0546C8B1214601A8FFF722FDA5
:104AEC00E36972221A70E36902225A70E369320A8E
:104AFC009A70E369DE70E1690422204601F0D3FC70
:104B0C00051E01A818BF0125FFF717FD284602B0A6
:104B1C0070BD2DE9F04F2DED028B87B000AF044630
:104B2C00FFF720FE8146F8B1214607F11400FFF78C
:104B3C00F9FC00F0A5FE236D4FF47A725343A26A80
:104B4C00821A9A42064603D8626A821A934221D28A
:104B5C0094F82C307BB1204601F02AFF4FF000096D
:104B6C0007F11400FFF7E9FC48461C37BD46BDECC5
:104B7C00028BBDE8F08FE269C0211170E2695370BD
:104B8C00E1690222204601F08EFCC4E9096601238A
:104B9C0084F82C30204601F0B1FE0028E0D007F15B
:104BAC0013012046FFF734FD83460028D8D0E36973
:104BBC00A662197801F0F002302A7FD1D4F830A027
:104BCC00BAF1000FCCD097F813C06A4608EE102A41
:104BDC0003EB0C025178957805EB0125ADB205F18C
:104BEC0008026946D208A1EBC20295460CF10302F9
:104BFC00FA6003EB020E0DEB05026846C7F808D00D
:104C0C007A60D7E901218A4206D00A461EF8018B48
:104C1C0002F8018BBA60F4E70022425593F8008049
:104C2C00F96808F00608ABEB0C02033AB8F1020F76
:104C3C00A2EB0502294425D113F801E01944023AEC
:104C4C0091F801B00CF10501294419440BEB0E2B22
:104C5C00D047E36940221A70E3691FFA8BFB83F893
:104C6C000180E3694FEA1B229A70E36983F803B071
:104C7C00E1690422204601F016FC666218EE103A37
:104C8C009D466DE7B8F1040F15D113F801E01944F6
:104C9C00023A91F801B00CF10501294419440BEBCF
:104CAC000E2BD047E36950221A70E36902221FFAD7
:104CBC008BFB5A70D5E71944D047DFE7502A08D14F
:104CCC009A78D97801EB022189B22046FFF7D9FEF8
:104CDC0046E7402A12D1626B002A3FF441AFBBF188
:104CEC00040F7FF43DAF11F0060F7FF439AF9978C4
:104CFC00D87800EB012080B2904731E7602A08D1C8
:104D0C009A78D97801EB022189B22046FFF7DDFEB3
:104D1C0026E7702ADFD0902A3FF422AFC02A0AD1AE
:104D2C00D0221A70E36900225A70E16902222046EF
:104D3C0001F0B9FB14E7D02A04BF002384F82C300F
:104D4C000EE7F7B504460F461646FFF70BFD054672
:104D5C0010B3214601A8FFF7E5FB238C01339BB26E
:104D6C00EBB12384238CE2691B0A5371E369228C17
:104D7C009A71E269072339462046FFF7D7FCE369AD
:104D8C001E54043883B2E26982212046FFF792FC5C
:104D9C00054601A8FFF7D1FB284603B0F0BD01235F
:104DAC00DFE70022FFF7CDBF08B50146002251F81E
:104DBC00043B1B689847B0FA80F0400908BD00001E
:104DCC0010B5024C04600174427410BDA0760B0047
:104DDC0007B50190FFF78AFB019903B05DF804EB6E
:104DEC0001F0CABA08B5FFF781FBBDE8084001F035
:104DFC003BBA07B50190FFF779FB019903B05DF859
:104E0C0004EB01F04BBA00002DE9FF4780461E462B
:104E1C00254B00934FF0000A244B9DF83050029321
:104E2C0068460127144641F080098DF804A0ADF8BE
:104E3C000C70FFF7DEFF98F81000514602F01FF8D7
:104E4C00013C4846E4B2FFF7C3FF65B1FF23484677
:104E5C0003FA05F5FFF7BCFF337823EA0503054099
:104E6C002B4333703D4606EB050A2F46BC4207D94F
:104E7C004846FFF7ADFF01370AF8010BFFB2F5E723
:104E8C00621BD2B2AC4238BF002200201544FFF79F
:104E9C009FFF7055012198F8100001F0F0FF04B04D
:104EAC00BDE8F047FFF79EBFF0740B0000093D0012
:104EBC0010B49DF8044022B101945DF8044BFFF747
:104ECC00A3BF5DF8044B7047F0B585B00446114B99
:104EDC0000930025104B0293012768460E468DF86F
:104EEC000450ADF80C70FFF784FF2946207C01F0CC
:104EFC00C6FF46F08000FFF76BFF2846FFF768FF00
:104F0C0039460546207C01F0BAFFFFF76BFF2846B7
:104F1C0005B0F0BDF0740B0000093D0010B56E211A
:104F2C00FFF7D2FF044601F05BFE204901F007F9C0
:104F3C0001F056FE1022214601F01DF9122C23D04F
:104F4C0004F17803DBB20A2B22D8A4F188030A2BD4
:104F5C001ED8DFE803F0061D1D1D1D1D1D1D0D11A6
:104F6C00150001F03DFE1249BDE8104001F001B9F9
:104F7C0001F036FE0F49F7E701F032FE0E49F3E778
:104F8C0001F02EFE0D49EFE701F02AFE0C49EBE78C
:104F9C00013C01F025FEE4B20A4901F0EAF8FD2CCF
:104FAC0003D901F01DFE0849DEE710BDFC740B00AF
:104FBC0011750B001C750B0024750B002C750B0068
:104FCC0034750B0048750B0055750B002DE9FF412E
:104FDC001C46144B00930646134B02934FF00008EB
:104FEC000123684615460F46ADF80C308DF8048049
:104FFC00FFF7FFFE307C414601F041FF3846FFF7DA
:10500C00E7FE2544AC4204D014F8010BFFF7E0FE98
:10501C00F8E7307C012101F032FF04B0BDE8F0412B
:10502C00FFF7E0BEF0740B0000093D002DE9FF41D5
:10503C000446114B00934FF00008104B02930127CC
:10504C00684615460E468DF80480ADF80C70FFF7D7
:10505C00D0FE4146207C01F012FF3046FFF7B8FE2F
:10506C002846FFF7B5FE207C394601F008FF04B056
:10507C00BDE8F041FFF7B6BEF0740B0000093D002F
:10508C0070B5164604460D46FFF71EFF3043C2B2FC
:10509C0029462046BDE87040FFF7C8BF70B51646DC
:1050AC0004460D46FFF710FF20EA0600C2B229465F
:1050BC002046BDE87040FFF7B9BFF8B50446164668
:1050CC000F46002202211D46FFF7B0FF04220A21E1
:1050DC002046FFF7ABFF802214212046FFF7A6FFE6
:1050EC003B46324612212046FFF770FF0322022175
:1050FC002046FFF79BFF00F0C3FB00F159060A2185
:10510C002046FFF7E1FE430710D50022022120467E
:10511C00FFF78CFF44212046FFF7D6FE4221287072
:10512C002046FFF7D1FE68700020F8BD00F070FB40
:10513C0000F0A6FB8642E2D80320F6E738B50F2232
:10514C0002210546FFF772FF0324322000F0ECFD2C
:10515C0002212846FFF7B8FEC30603D5013C14F024
:10516C00FF04F2D138BD10B528210446FFF7ACFE80
:10517C0000F00303032B08D040F00302D2B2204608
:10518C002821BDE81040FFF751BF10BD38B50446CB
:10519C000121007C01F062FE207C012101F06FFEF8
:1051AC00607CFF284CD0002101F058FE607C01F09F
:1051BC007FFE0546002843D1607C012101F04EFEA4
:1051CC002946607C01F05BFE022000F051FB607C04
:1051DC00012101F054FE322000F0A6FD20460022F1
:1051EC002421FFF723FF204600222621FFF71EFF74
:1051FC00204626224821FFF719FF20468022542101
:10520C00FFF714FF2046A9225621FFF70FFF204677
:10521C0003225821FFF70AFF2046E8225A21FFF704
:10522C0005FF204640222A21FFF700FF20463D22A1
:10523C002221FFF7FBFE2046BDE83840FFF793BF65
:10524C002046FFF77BFFC9E730B500259BB004462D
:10525C00FFF774FF2946152204A8039501F0E2FF1D
:10526C00802214212046FFF7E1FE03AB1922122104
:10527C002046FFF7ABFE012202212046FFF7D6FEA7
:10528C0009226C212046FFF7D1FE2A461221204626
:10529C00FFF7CCFE032202212046FFF7C7FEFF25B5
:1052AC0014212046FFF710FE3F2803D8013D15F0CE
:1052BC00FF05F5D10022022120460025FFF7B6FE9E
:1052CC000AAB4022122120460095FFF79DFD2A468D
:1052DC006C212046FFF7AAFE6E212046FFF7F4FD55
:1052EC0088380A281FD8DFE800F01C1E1E1E1E1E60
:1052FC001E1E06181A000D4B591E0AAA3F3312F82F
:10530C00010B11F8015F85420DD19942F7D120466E
:10531C00FFF73CFF01201BB030BD054BECE7054B04
:10532C00EAE7054BE8E70020F5E700BFD8750B006E
:10533C0018760B0058760B0098750B002DE9F04F82
:10534C0087B09246DDF84C809DF854209DF850B003
:10535C000292DDE9117504468946B8F1000F3ED082
:10536C0098F800600393002202212046FFF75EFEAE
:10537C007F2208212046FFF759FE06EB0B168022F0
:10538C0014212046FFF752FEF6B2039B9DF84020F5
:10539C0012212046FFF71AFE32461A212046FFF74B
:1053AC0045FE4A4602212046FFF740FEB9F10C0F9C
:1053BC0004D180221A212046FFF762FE00F060FA29
:1053CC0000F1240608212046FFF77EFD10EA0A0FA3
:1053DC005BD1C30705D5032007B0BDE8F08F464667
:1053EC00C0E700F015FA00F04BFA8642EAD8F2E773
:1053FC00DFB1D5B114212046FFF766FD2B7883422F
:10540C0002463ED328703B4612212046CDF800B010
:10541C00FFF74EFD18212046FFF756FD00F007035D
:10542C00B8F1000F01D088F8003016F008002AD12E
:10543C00002FD1D0002DCFD0029A002ACCD02A78C0
:10544C00012A03D1042B1AD1FF20C5E717D9B3B910
:10545C00023A05ABD2B239462046FFF72EFE0028A1
:10546C00BAD12B781F449DF8143017F8022C9A42AD
:10547C0005D117F8012C9DF815309A42ACD00720B5
:10548C00AAE70420A8E70220A6E70C212046FFF794
:10549C001BFD10F013030646AAD001209CE710B5A3
:1054AC0086B09DF82C4005949DF828400494099CE6
:1054BC000394089C0092CDE9013430220B460C2158
:1054CC00FFF73CFF06B010BD70B588B006461C4611
:1054DC008DF81710154612B31B78012B1FD980229B
:1054EC001C21FFF7DBFD07238DF81F300023CDE9CE
:1054FC0002330DF11F03CDE9004301222B460DF1C0
:10550C0017013046FFF7CBFF38B92378022B08D1AF
:10551C009DF81F00003818BF012008B070BD042092
:10552C00FBE70120F9E713460A462621FFF7CCBF1B
:10553C0013B502230446002224218DF80330FFF713
:10554C0075FD204600222621FFF770FD20462622FD
:10555C004821FFF76BFD0DF1030201A92046FFF76F
:10556C00E2FF10F0FD0F0CBF0120002002B010BDB7
:10557C002DE9F04F502A8BB082460F46904600F230
:10558C003E8180221C21FFF789FD93238DF81C306E
:10559C00B8F1000F00F0B9803B78042B94BF0023C6
:1055AC000123012500260BE095238DF81C30B8F162
:1055BC00000F00F0AC803B78072B94BF0023012335
:1055CC00A8EBC60464B224EAE474002B00F0A180BA
:1055DC0088228DF81E20032114F0070218BF012227
:1055EC0002EBE40212F0FF02E0B21DD0002B14BF5C
:1055FC004FF003094FF0040906F1010C914594BFDB
:10560C0001EB090E01EB020E57FA8CFC5FFA8EFED1
:10561C000A460DF1280B0131C9B25A441CF8019B02
:10562C0002F80C9C7145F3D10BB1083044B21F2C1D
:10563C0071DD4FF070039DF81F208DF81D309DF823
:10564C001E3053409DF8202053409DF8212053409C
:10565C008DF8223007220DF1230307A95046FFF7DE
:10566C002CFD8146002840F0C68003238DF81A00DB
:10567C008DF81B3004940DF1220B4FF009099DF8A5
:10568C001A30059303EB0312D2B21A215046FFF7DE
:10569C00CDFC059B02930DF11A03002201930DF131
:1056AC001B03039200934A465B4607A95046FFF73B
:1056BC00F6FE022881464AD11C215046FFF704FC15
:1056CC00830600F1988010F01F0008BF2020A04234
:1056DC0040F3868010F0070318BF012303EBD003BF
:1056EC000AAA0133134444B20138012200F0070026
:1056FC0002FA00F013F80C2C104303F80C0C96E78C
:10570C0097228DF81C2006265AE7434649E7434664
:10571C0056E7022160E7E3100233DBB204F0070224
:10572C0014F007098DF81A2002EB03128DF81D20D6
:10573C0018BF4FF0010907AA994402EB030BC3F100
:10574C0009035FFA89F98DF81B30049497E7002858
:10575C0051D1049B1F2B4FF020047FF76AAF9DF8AB
:10576C001E30882B3FD103231A4601361A4457FAB0
:10577C0086F6D2B219460AA801330144DBB211F8FD
:10578C000C1C06F8011B9342F4D19DF81B60032EF0
:10579C0038D19DF81A30ABBB0DF11E0301225946CE
:1057AC005046FFF78AFC8146034620BB9DF81E102D
:1057BC009BF80120914228D19DF81F109BF80220E4
:1057CC00914222D19BF8002012F004090ED0013531
:1057DC00EDB2032D94D0042D02D0022D3FF4E4AE93
:1057EC004FF0050907E002230422BEE705EB45054F
:1057FC000135FA723D7048460BB0BDE8F08F4FF0A2
:10580C000609F8E74FF00109F5E74FF00709F2E751
:10581C0008B5024B1B68DB68019308BD4802030006
:10582C0008B5024B1B681B6B019308BD48020300B3
:10583C0008B5024B1B689B6B019308BD4802030023
:10584C0008B5024B1B681B6C019308BD4802030092
:10585C0008B5024B1B685B6C019308BD4802030042
:10586C0008B5024B1B685B68019308BD1802030066
:10587C0008B5024B1B68DB68019308BD18020300D6
:10588C0008B5024B1B685B69019308BD1802030045
:10589C0008B5024B1B689B68019308BD2C020300E2
:1058AC0008B5024B1B68DB68019308BD2C02030092
:1058BC0008B5024B1B681B69019308BD2C02030041
:1058CC0008B5024B1B685B69019308BD2C020300F1
:1058DC0008B5024B1B681B6A019308BD2802030024
:1058EC0008B5024B1B685B6A019308BD28020300D4
:1058FC0008B5024B1B689B6A019308BD2802030084
:10590C0008B5024B1B68DB6A019308BD2802030033
:10591C0008B5024B1B681B6B019308BD28020300E2
:10592C0008B5024B1B685B6B019308BD2802030092
:10593C0008B5024B1B681B6C019308BD28020300C1
:10594C0008B5024B1B685B69019308BD6C02030030
:10595C0008B5024B1B685B69019308BD6402030028
:10596C0008B5024B1B681B6A019308BD6402030057
:10597C0008B5024B1B689B6A019308BD64020300C7
:10598C0008B5024B1B689B68019308BD68020300B5
:10599C0008B5024B1B68DB68019308BD6802030065
:1059AC0008B5024B1B689B69019308BD38020300C4
:1059BC0008B5024B1B68DB69019308BD3802030074
:1059CC0008B5024B1B681B6A019308BD3802030023
:1059DC0008B5024B1B689B6A019308BD3802030093
:1059EC0008B5024B1B681B6B019308BD3802030002
:1059FC0008B5024B1B689B6B019308BD3802030072
:105A0C0008B5024B1B681B68019308BD30020300EC
:105A1C0008B5024B1B685B69019308BD300203009B
:105A2C0008B5024B1B68DB69019308BD300203000B
:105A3C0008B5024B1B681B6A019308BD30020300BA
:105A4C0008B5024B1B685B6A019308BD300203006A
:105A5C0008B5024B1B68DB6B019308BD30020300D9
:105A6C0008B5024B1B681B6C019308BD3002030088
:105A7C0008B5024B1B685B6C019308BD3002030038
:105A8C0008B5024B1B68DB68019308BD3C020300A0
:105A9C0008B5024B1B681B69019308BD3C0203004F
:105AAC0008B5024B1B685B69019308BD3C020300FF
:105ABC0008B5024B1B689B69019308BD3C020300AF
:105ACC0008B5024B1B68DB69019308BD3C0203005F
:105ADC0008B5024B1B681B6A019308BD3C0203000E
:105AEC0008B5024B1B689B6A019308BD3C0203007E
:105AFC0008B5024B1B681B6C019308BD3C020300EC
:105B0C0008B5024B1B681B68019308BD4C020300CF
:105B1C0008B5024B1B685B68019308BD4C0203007F
:105B2C0008B5024B1B681B69019308BD4C020300AE
:105B3C0008B5024B1B685B69019308BD4C0203005E
:105B4C0008B5024B1B689B69019308BD4C0203000E
:105B5C0008B5024B1B68DB69019308BD4C020300BE
:105B6C0008B5024B1B681B6A019308BD4C0203006D
:105B7C0008B5024B1B681B6D019308BD6002030046
:105B8C0008B5024B1B685B68019308BD200203003B
:105B9C0008B5024B1B685B69019308BD200203002A
:105BAC0008B5024B1B68DB6A019308BD2002030099
:105BBC0008B5034B1B68D3F88830019308BD00006F
:105BCC002002030008B5034B1B68D3F894300193F3
:105BDC0008BD00002002030008B5024B1B68DB69FE
:105BEC00019308BD4402030008B5024B1B68DB6B34
:105BFC00019308BD4402030008B5024B1B685B68A7
:105C0C00019308BD4002030008B5024B1B689B685A
:105C1C00019308BD4002030008B5024B1B68DB680A
:105C2C00019308BD4002030008B5024B1B681B69B9
:105C3C00019308BD4002030008B5024B1B685B6969
:105C4C00019308BD4002030008B5024B1B689B6919
:105C5C00019308BD4002030008B5024B1B68DB69C9
:105C6C00019308BD4002030008B5024B1B681B6A78
:105C7C00019308BD4002030008B5024B1B681B6B67
:105C8C00019308BD4002030008B5024B1B685B6B17
:105C9C00019308BD4002030008B5024B1B681B6C46
:105CAC00019308BD4002030008B5024B1B685B6CF6
:105CBC00019308BD4002030008B5024B1B681B682A
:105CCC00019308BD1C02030008B5024B1B685B68FE
:105CDC00019308BD1C02030008B5024B1B689B68AE
:105CEC00019308BD1C02030008B5024B1B685B6ADC
:105CFC00019308BD1C02030008B5024B1B68DB6B4B
:105D0C00019308BD1C02030008B5024B1B681B6CF9
:105D1C00019308BD1C02030008B5024B1B685B6CA9
:105D2C00019308BD1C0203000021FFF731BF0000E6
:105D3C00024800230360FFF78BBD00BFC4E60320BD
:105D4C00002240681146FFF78FBF002240681146C1
:105D5C00FFF79ABF40680022FFF78EBF4068002211
:105D6C0081F00101FFF778BF002340681A461946FD
:105D7C00FFF76ABF002340681A461946FFF75CBF5D
:105D8C00002240681146FFF74FBF002240681146C1
:105D9C00FFF73ABF406800220221FFF73DBF002306
:105DAC0040681A46FFF728BF024B03225A60024A8A
:105DBC001A607047C8E60320BC760B007047F8B534
:105DCC00064615460C468F18BC4206D0336814F8AC
:105DDC00011B9B6830469847F6E72846F8BD007CC7
:105DEC000022FFF775BD007C0021FFF779BD007C18
:105DFC000021FFF77DBD007C0021FFF781BD007CF9
:105E0C000021FFF785BD10B514210446FEF753F9A8
:105E1C00204610BD38B5044615464FF47A7300225F
:105E2C00C4E90123094B2174084623602946FFF776
:105E3C007FFDBF3008D16B69DB0705D56868FFF7BC
:105E4C0043FFE868FFF740FF204638BDF8760B00AB
:105E5C00704710B518210446FEF72DF9204610BDE9
:105E6C00F0B5037D062B8DB00E4600F104074FF004
:105E7C00000412D000F1080515F8011D0A22304665
:105E8C0000F079F9AF42044419D0002CF4D02E2143
:105E9C00304600F051F90444EEE72F236A463946A8
:105EAC000A208DF80040FFF753FD6846FEF7BAF85C
:105EBC0033680246DB6869463046984704462046FC
:105ECC000DB0F0BD10B5054B0446112240F8043B53
:105EDC00002101F0A7F9204610BD00BF20770B0070
:105EEC000346074A10B543F8042B01F1100251F890
:105EFC00044B43F8044B9142F9D10A781A7010BD47
:105F0C0020770B00037D042B04D14068003818BFA8
:105F1C0001207047062B07D143683BB983682BB926
:105F2C00C3681BB90069F1E7002070470120704776
:105F3C0010B59DF8084044EA032343EA024242EAC2
:105F4C00016104234160037510BD000007B5064BC9
:105F5C000360CB7800938B784A780978FFF7E8FFD9
:105F6C0003B05DF804FB00BF20770B00014B024A25
:105F7C001A607047D0E603202C770B000023406892
:105F8C001A46FFF739BE406800220221FFF744BED3
:105F9C00002240681146FFF737BE002240681146C8
:105FAC00FFF742BE002340681A461946FFF744BE6D
:105FBC00002340681A461946FFF746BE4068002188
:105FCC00FFF76ABE40680021FFF76EBE40680022F2
:105FDC0081F00101FFF740BE40680022FFF74CBE84
:105FEC00002240681146FFF74FBE00224068114660
:105FFC00FFF73ABE2DE9F04395B014460D4607461F
:10600C00FFF760FF00211C220DA8009101F00AF996
:10601C0040230C9320466B460CAA0021FFF7B8FCDA
:10602C00044600284BD1024601216868FFF7FCFDAD
:10603C000221804622466868FFF7F6FD009E8146E5
:10604C002146002E3BD0002939D17368022B03D096
:10605C000A2B11D0F669F4E7B8F1000FFAD0716988
:10606C0006A8043107ADFFF771FF0FCD3C1D0FC41F
:10607C002B6823704146EDE7B9F1000FEAD0746943
:10608C00102201A801F0CEF806238DF8143001ADD2
:10609C0004F108031834186859682A4603C20833F7
:1060AC00A3421546F7D101A906A807ADFFF718FFC3
:1060BC000FCD3C1D0FC42B6823704946CAE70098CE
:1060CC00FFF75EFC384615B0BDE8F083024B034A7F
:1060DC001A6000225A607047D4E6032038770B0010
:1060EC00F8B506460D468F180024BD420CD0336817
:1060FC0015F8011B9B6830469847031E01DB1C44B6
:10610C00F3E7002C08BF1C462046F8BD13B5044627
:10611C00084659B10191FDF785FF23680199DB68A9
:10612C000246204602B0BDE81040184702B010BD30
:10613C0008B5FFF7EBFF08BD03689B68184708B567
:10614C00FFF7E4FF08BD38B50D210546FFF7F4FF56
:10615C000A2104462846FFF7EFFF204438BD38B526
:10616C000546FFF7D3FF04462846FFF7ECFF204413
:10617C0038BDFFF7F4BF30B58BB00023012A8DF882
:10618C00243098BF0A2209AC0D46B1FBF2F101FB99
:10619C00125303F0FF03092B94BF30333733DBB2B8
:1061AC00AA4204F8013DEFD92146FFF7AFFF0BB02F
:1061BC0030BD2DE9F04186B000AF05460E46381DC6
:1061CC00142114463B60FFF78FFD13280ED8391DA0
:1061DC002846FFF79BFF04461EB12846FFF7B3FF86
:1061EC00044420461837BD46BDE8F08100F1080391
:1061FC0023F00703E846ADEB030D2246411C3B6838
:10620C006846FFF771FD69462846FFF77FFF044695
:10621C00C546E1E7014B00229A607047DCE603209B
:10622C000021FFF725BC0021FFF71ABC10B504466E
:10623C0008462170FFF7F4FB00236360204610BD75
:10624C0013B504460078FFF7EEFF58B9207801909B
:10625C004FF6FF71FFF7D4FB019802B0BDE8104078
:10626C00FFF7DEBF02B010BD0078FFF7D9BF00000A
:10627C00400830B51860002418688842E5B206D989
:10628C000134082C02D040081860F5E70725024BB2
:10629C005B5D137030BD00BF6C770B002DE9F043D4
:1062AC0006468FB000780C46FFF7BDFF00281BDBBD
:1062BC0035781422002109A800F0B4FF0B2300222A
:1062CC0009A92846ADF82430FFF7BAFB9DF82D300C
:1062DC0013B19DF82C5055B10027B946B84601258D
:1062EC0023795DB1C3B100200FB0BDE8F083DDF8B8
:1062FC0030809DF834909DF83570F1E7002B35D146
:10630C00A368434508D18DF820908DF82170BDF815
:10631C002020A3899A42E6D00023A1688DF80F3083
:10632C000A9804AB0DF10F02FFF7A2FF217985B992
:10633C0089B9A36843450ED38DF820908DF8217050
:10634C00BDF82020A3899A4205D1049B434502D174
:10635C00C9E70029F9D100230193637B00939DF8D1
:10636C000F20237B3078FFF773FBBCE7CDE900559A
:10637C002B462A460121F5E708B50078FFF748FBC4
:10638C00C0B208BD10B504460068FFF79DFC20465E
:10639C0010BD10B50446006808B1FFF795FC00234A
:1063AC00C4E90133236010BD38B504460D460068BE
:1063BC000131FFF791FC10B1C4E90005012038BD93
:1063CC0010B50368044623B143688B4201D3012006
:1063DC0010BD2046FFF7E8FF0028F9D0A368002B7A
:1063EC00F5D122681370F2E737B50D4611460192CC
:1063FC000446FFF7E5FF019A28B92046FFF7C9FFCD
:10640C00204603B030BDA2602946206800F0FCFE97
:10641C002268A3680021D154F2E7002313B5C0E928
:10642C00003304468360037341B108460191FDF7C4
:10643C00F9FD019902462046FFF7D6FF204602B02F
:10644C0010BD13B5044659B108460191FDF7EAFD9C
:10645C00019902462046FFF7C7FF204602B010BD47
:10646C00FFF797FFF9E70000054B02221A60054B76
:10647C00054A9A600020C3E90000FFF781BB00BF0A
:10648C00F8E60320ECE603200000FFFF13B50368D9
:10649C008DF80710DC6B01224FF0FF330DF1070173
:1064AC00A04702B010BD10B40368DC6B4FF0FF3393
:1064BC00A4465DF8044B604713B5134602688DF88B
:1064CC000710D46B0DF107010122A04702B010BDDB
:1064DC0010B54369B3F88620B3F884309A42044669
:1064EC0008D06369B3F88420511CA3F884101344BA
:1064FC00187910BD03681B6998470028F1D14FF03B
:10650C00FF30F6E7704743691868C043C00F704707
:10651C0070470000064B994210B500F10C0405D0F1
:10652C00084600F059FD002808BF0024204610BD85
:10653C00AC760B0010B5AC210446FDF7BCFD204633
:10654C0010BDAC21FDF7B7BD2DE9F0414FF00008AF
:10655C0086B01C46C0F8048005460E4617464146D8
:10656C00102202A800F05EFE631C09D04FF47A736F
:10657C00B4FBF3F203FB1244CDE902285C43049410
:10658C00686910230093006802AB41F2050240F6E3
:10659C00FF71FFF705FA002807DAFFF7ADFB036878
:1065AC006B60002006B0BDE8F081686900230068CC
:1065BC003A463146FFF714FA031EEEDB1846F1E7B4
:1065CC0038B584690A4B036005467CB16368013BAE
:1065DC0063605BB9236820469B689847A368013BBE
:1065EC00A3601BB923682046DB689847284638BD52
:1065FC00B0770B0010B50446FFF7E2FF20461C21D4
:10660C00FDF759FD204610BD30B587B0044601ADED
:10661C006846FFF79BFC0FCD04340FC42B68237026
:10662C0007B030BD70B54D69054B04468C3544F848
:10663C00043B06460FCD0FC42B682370304670BD4B
:10664C0020770B002DE9F0439846036893B00D4674
:10665C000024DB6A06461746984728466B462246B6
:10666C0021460094FFF794F90546002863D1009B5E
:10667C00002B4BD05B69002B48D006A8FFF722FCFF
:10668C00009B5C696378022B04D1211D06A8FFF7DF
:10669C00BBFF26E00A2B24D11122294601A800F0C9
:1066AC00C1FDA368002B38D004F108030DF1040CD4
:1066BC00183418685968624603C20833A3429446DA
:1066CC00F7D1062301A90CA88DF81430FFF708FCAC
:1066DC000DF1340CBCE80F0007AC0FC4DCF8003033
:1066EC00237006A8FFF70EFC80B1336807ADD3F812
:1066FC002090124B0C930FCD0DAC0FC42B68237054
:10670C003A4643460CA93046C84705460098FFF761
:10671C0037F9284613B0BDE8F083E368002BC3D1EA
:10672C004FF6FF70D4F81090FFF71AF98145BBD1E2
:10673C0004F11401AAE72546E8E700BF20770B0017
:10674C0038B543691A68002A054610DAB3F8862072
:10675C00B3F884309A420AD103681B6998470446FF
:10676C0028B92B682846DB6A9847204638BD01209B
:10677C00FCE710B54369B3F88620B3F884309A422D
:10678C00044605D06369B3F884201344187910BD0E
:10679C0003681B6998470028F4D14FF0FF30F6E7E7
:1067AC00F8B543691746B3F88620B3F884309A429B
:1067BC0005460E4616D06969B1F88430B1F88640AA
:1067CC00E41ABC4228BF3C460433224619443046E6
:1067DC0000F01AFD6A69B2F884302344A2F88430C0
:1067EC002046F8BD03681B6998470028E3D14FF099
:1067FC00FF34F5E742690023A2F884304269A2F81D
:10680C00863070472DE9F0411F4603680C46DB6A61
:10681C008AB0054616469847237DD5F81480042B7C
:10682C000CBF02200A2006220121FFF7E1F8C8F86C
:10683C0000006B691B68002B08DA2B682846DB6AA2
:10684C000024984720460AB0BDE8F0812846FFF79F
:10685C00D1FFB7B1002303A9F8B20393ADF8103000
:10686C00FFF76EF80028E8D16869062300930068EA
:10687C0003AB41F20B0240F6FF71FFF791F80028D1
:10688C00DBD11C22002103A800F0CCFC237D042BBF
:10689C001DD14FF407733046ADF80C30FFF768F894
:1068AC00ADF80E006068FFF75BF804906B691C2272
:1068BC00186803A9FFF784F80028BED104340FCC64
:1068CC006D698C350FC523682B700124BAE740F62F
:1068DC001C233046ADF80C30FFF74AF805AEADF886
:1068EC000E00231D04F1140718685968324603C2C0
:1068FC000833BB421646F7D1D8E7000030B54269E1
:10690C00B2F886308BB004462BB1B2F884209A4290
:10691C0001D1FFF76FFF61690868002818DBB1F837
:10692C0086507F2D14D804310823C5F180022944E8
:10693C00FFF74EF8002813DD6369B3F886200AB917
:10694C00A3F884206369B3F886201044A3F886006A
:10695C006369B3F88600B3F88430C01A0BB030BD4D
:10696C00FFF7CAF903680B2BF2D0FFF7C5F90368E0
:10697C000B2BEDD020230025CDE90235FFF7BCF918
:10698C0003680193084B0949009302AA2B46322055
:10699C00FFF7EEF863691868FFF70AF863694FF0C0
:1069AC00FF321A60D4E700BF7B770B0074770B00C3
:1069BC0010B5436904461868002801DBFEF7F8FFA0
:1069CC0063694FF0FF321A606069112200218C302C
:1069DC0000F028FC2046BDE81040FFF70BBF10B5B7
:1069EC00002304460160C0F884308830FFF76AFA4F
:1069FC00204610BD73B500234FF47A72C0E9013202
:106A0C000E4A0361026043610446AC200191FDF71C
:106A1C004CFB051E05F10C0608D00123C5E901331A
:106A2C00074B01992B603046FFF7D9FF2046C4E98C
:106A3C000565FFF7DFFE02B070BD00BFB0770B003D
:106A4C0094770B0010B54FF0FF310446FFF7D2FFDF
:106A5C00204610BD10B504460068002801DBFEF787
:106A6C00A7FF204610BD0C30FFF7F4BF024B1A688D
:106A7C00024B1A60704700BFD8E50320FCE60320E8
:106A8C0070474174704708B5007CFFF729F820EA7D
:106A9C00E07008BD08B5007CFEF7FAFF20EAE07054
:106AAC0008BD08B5007CFFF703F840EAE07008BDAC
:106ABC0008B5007CFEF7F4FF40EAE07008BD007CEE
:106ACC00FEF7FEBF37B5457C04462DB1207C03B0E4
:106ADC00BDE83040FEF7D4BF007C0191FFF700F811
:106AEC0000280199F2DC284603B030BD10B5142102
:106AFC000446FDF7E0FA204610BD000010B54FF437
:106B0C007A730446084611460022C4E90123044B5B
:106B1C002360012320746374FEF7EAFF204610BD46
:106B2C0018780B00417470477047704708B5002106
:106B3C00007CFFF705F840EAE07008BD08B50121BC
:106B4C00007CFEF7FDFF40EAE07008BD08B5007C54
:106B5C00FEF7EEFF20EAE07008BD08B5007CFEF7FA
:106B6C00DFFF20EAE07008BD13B50446007C0191FC
:106B7C00FEF7DEFF0028019901DC607C20B1207C4F
:106B8C00FEF7E6FF20EAE07002B010BD007CFEF7D5
:106B9C00E7BF10B514210446FDF78DFA204610BD51
:106BAC0010B54FF47A73044608460021C4E901136A
:106BBC00044B23600123207463741146FEF7A0FF7D
:106BCC00204610BD48780B00007C0022FEF7A0BFC9
:106BDC0010B514220446002100F024FB204610BD01
:106BEC0010B50F4C88B003A8FFF7F2FF2178BFF364
:106BFC005B8F11F001010FD120460191FDF75DFA79
:106C0C00019948B103AA0748FFF7CAFF2046FDF7D0
:106C1C0059FA054800F0F2FA024808B010BD00BF5E
:106C2C0000E7032004E70320356B0B0000224068CB
:106C3C001146FEF7F9BF002240681146FFF714B861
:106C4C00002240681146FFF71FB840680022FFF78A
:106C5C0013B84068002281F00101FEF7FDBF00234C
:106C6C0040681A461946FEF7EFBF002340681A46E3
:106C7C001946FEF7E1BF002240681146FEF7C4BF7B
:106C8C00406800220221FEF7C7BF002340681A4665
:106C9C00FEF7B2BF024B04225A60024A1A607047D8
:106CAC0018E7032078780B00014B1860704700BF81
:106CBC00DCE5032008B50B4B43B1FFF791FF0368EC
:106CCC001B699847002801DDAFF30080064B43B1E8
:106CDC0000F05CF903681B699847002801DDAFF3ED
:106CEC00008008BD000000000000000008B5FFF7A0
:106CFC00E1FFFEF7C5FD014B186008BD28E7032036
:106D0C000548064A064908B5121A00F07DFA054BEB
:106D1C00054A1A6008BD00BF00F4032004F40320E8
:106D2C00CC7A0B0000F403201E1C279A07B5002315
:106D3C0000931A466FF07701FEF744FF03B05DF83D
:106D4C0004FB000007B543880A2B08D0502B0BD14D
:106D5C00094B1B684BB103B05DF804EB1847FFF708
:106D6C00E5FF03B05DF804FB002300931A466FF0B7
:106D7C007701FEF727FFF4E724E7032010B512484C
:106D8C000021FEF7C9FF114B1A68114B9A42114BA7
:106D9C000CBF012200221A7001D0FFF7B1FFFEF7E1
:106DAC005FFD044600F046FA0B4B13B12046AFF3DF
:106DBC00008000210848FEF717FFBDE81040074887
:106DCC000021FEF7F5BE00BFB56C0B0000F40320EC
:106DDC001E1C279A20E7032000000000516D0B00B9
:106DEC00232813B502D9002002B010BDA0F10B036B
:106DFC00022B1AD8174C2178BFF35B8F11F00101CD
:106E0C000BD120460191FDF758F9019928B1124890
:106E1C00FFF70CFA2046FDF755F90F4B1878FEF7E3
:106E2C0007FE0028DFD10120DEE7012809D800F099
:106E3C006DF80021007CFEF773FD80F00100C0B2FC
:106E4C00D2E709380128EED800F0A0F8007CFEF754
:106E5C003FFEF2E744E6032048E60320232838B53A
:106E6C0004460D460AD8FF2908D0FFF7B9FF28B110
:106E7C0029462046BDE83840FEF70ABD38BD38B576
:106E8C0004460D46FEF70CFDFF2810D0062804D84A
:106E9C004D2323FA00F0C30709D42046FFF7A0FFC7
:106EAC0028B129462046BDE83840FEF701BD38BD63
:106EBC0010B50446FEF7F4FC031FDBB2012B08D916
:106ECC002046FFF78DFF20B12046BDE81040FEF7AD
:106EDC00F7BC002010BD704738B50A4B0360012386
:106EEC00044643610849202000F074F820256060B6
:106EFC000549A560284600F06DF8C4E90305204655
:106F0C0038BD00BF18000100AC780B0030B50E4D39
:106F1C002978BFF35B8F11F0010487B011D128469B
:106F2C00FDF7CBF868B16846FFF7D6FF6A462146F5
:106F3C000648FEF76FFF2846FDF7C4F8044800F03A
:106F4C005DF9024807B030BD2CE7032030E7032081
:106F5C00E36E0B007047000038B5044614252A4632
:106F6C00002100F05FF9258040250749258128463E
:106F7C00258200F02FF804496060284600F02AF8BA
:106F8C00E060204638BD00BFAC780B0030B50E4D2C
:106F9C002978BFF35B8F11F0010487B011D128461B
:106FAC00FDF78BF868B101A8FFF7D6FF01AA2146BF
:106FBC000648FFF7A3FD2846FDF784F8044800F0C7
:106FCC001DF9024807B030BD44E7032048E7032011
:106FDC00616F0B00FDF76BB8014900F0F9B800BF09
:106FEC00C8780B007FB500241023CDE90234036868
:106FFC0015469E6912686B46CDE90044B0479DF872
:10700C00043003F00603062B03BF009B2B6001200A
:10701C00204604B070BD0098904214BF0120062099
:10702C007047000010B5034B0360044600F0CDF828
:10703C00204610BD08790B0010B50446FFF7F2FF8F
:10704C0020460821FDF737F8204610BD2DE9F04108
:10705C001F46DDE90834DDF81880984506461546CC
:10706C0007D1079900F0B4F818B165710020BDE89C
:10707C00F0813946304600F0ABF80028F6D00123F9
:10708C00C4F800802571A371F0E738B515461C468D
:10709C0000F09EF820B10823E360062325602371DD
:1070AC0038BD73B505460C4601921E4600F090F8AB
:1070BC0050B9032E08D82368019A5B6929462046EB
:1070CC0002B0BDE87040184702B070BD10B5034B5C
:1070DC0003600446FFF7A6FF204610BD68790B003D
:1070EC0010B50446FFF7F2FF20460C21FCF7E3FF36
:1070FC00204610BDF7B5089F974205460E4614462C
:10710C000AD0A86802680897156A31462246AC4630
:10711C0003B0BDE8F04060471946019300F058F801
:10712C00019B0028EDD0062003B0F0BD2DE9F14FF6
:10713C000D461946DDE90A4BDDE90CA681461746DA
:10714C00984600F045F890B1002D3460377109DB9A
:10715C0061198A450CBF06210121B171002001B0D3
:10716C00BDE8F08F0235F9D10123B371F6E7544530
:10717C0006D15946484600F02BF808B17771EDE777
:10718C00D9F808000368CDE90CA6CDE90A4BDC69F7
:10719C003A4643462946A44601B0BDE8F04F604745
:1071AC002DE9F04107460C4615461E46FFF76DFFCC
:1071BC0048B9B86803689F692A4633462146BC46DD
:1071CC00BDE8F0416047BDE8F08170470020704792
:1071DC00814208B50ED0406803782A2B0CD0496840
:1071EC000B782A2B08BF0131FCF712FFB0FA80F0A4
:1071FC00400908BD0120FCE70020FAE70023014606
:10720C001A46184600F044B80A44914200F1FF3384
:10721C0000D1704710B511F8014B03F8014F9142A2
:10722C00F9D110BD02440346934200D1704703F8D4
:10723C00011BF9E738B5104B1D68AB6B0446B3B9AD
:10724C001820FEF739FD0246A86320B90B4B0C48F9
:10725C004221FEF759FD0B490B4BC0E900130B4BB8
:10726C0083600B23838100210120C2E90401AB6BF5
:10727C0000221C615A6138BDDCE50320A1790B00AA
:10728C00B8790B000E33CDAB34126DE6ECDE050095
:10729C002DE9F843DFF8B8800646D8F800001F4601
:1072AC000D46914600F056F8254B1C6834B9254C18
:1072BC001C60254B13B11B68C4F8883063681F2B06
:1072CC0007DDD8F8000000F047F84FF0FF30BDE8BC
:1072DC00F8834EB3D4F8880088B91C4B23B9D8F87E
:1072EC00000000F038F8F0E74FF48470FEF7E4FC8F
:1072FC000028F4D00023C0E94033C4F88800636848
:10730C0040F8239001229A4000EB8301D0F8003121
:10731C001343C0F80031022EC1F8807002BFD0F8C0
:10732C0004311343C0F804316368D8F800005A1CC8
:10733C000233626044F8235000F00EF80020C6E7D8
:10734C00E8E703205CE7032000000000C55C0B00AD
:10735C0040E60320704770477047000000044D5111
:10736C0054540400064D51497364700341400B00A2
:10737C007D400B00A5400B00A9400B000000000055
:10738C00203000436172642050726573656E740026
:10739C0043617264205549443A004C696768742013
:1073AC0031210043617073746F6E654E6F646500BC
:1073BC004C31004C69676874203221004C32004C0F
:1073CC0069676874203321004C33004C696768741A
:1073DC00203421004C34002A2A2A2A2A2A2A2A2A32
:1073EC002A2A2A2A2A2A2A2A2A2A2A2A2A2A2A2AF1
:1073FC002A2A2A2A004D46524335323220446967E4
:10740C006974616C2073656C662074657374002DEF
:10741C002D2D2D2D2D2D2D2D2D2D2D2D2D2D2D2D90
:10742C002D2D2D2D2D2D2D2D2D2D2D2D004F6E6C0B
:10743C0079206B6E6F776E2076657273696F6E73E1
:10744C0020737570706F7274656400506572666F2E
:10745C00726D696E6720746573742E2E2E005265E2
:10746C0073756C743A20004F4B00444546454354A9
:10747C00206F7220554E4B4E4F574E006C61622E52
:10748C0074686577636C2E636F6D00436F6E6E6509
:10749C00637465640064656661756C7420004D539B
:1074AC0042004C5342003C53504953657474696E0E
:1074BC0067732064656661756C743E003C5350497B
:1074CC0053657474696E6773202573257520257355
:1074DC00204D4F444525753E000000000000000083
:1074EC0000000000A5440B0079440B007B440B000A
:1074FC004669726D776172652056657273696F6E3D
:10750C003A20307800203D2028636C6F6E6529008E
:10751C00203D2076302E3000203D2076312E30005C
:10752C00203D2076322E3000203D20636F756E7426
:10753C00657266656974206368697000203D202857
:10754C00756E6B6E6F776E29005741524E494E47E0
:10755C003A20436F6D6D756E69636174696F6E204F
:10756C006661696C7572652C20697320746865207E
:10757C004D4652433532322070726F7065726C79A1
:10758C0020636F6E6E65637465643F0000D6788C03
:10759C00E2AA0C182AB87A7FD36ACF0BB137634BA7
:1075AC0069AE91C7C397AE77F437D79B7CF53C1186
:1075BC008F15C3D7C15B002AD075DE9E5164AB3EDC
:1075CC00E915B5AB569A988226EA2A620087980F7D
:1075DC0049FF0719BF2230495963ADCA7FE34E03F7
:1075EC005C4E4950479A3761E7E2C62E755AED0456
:1075FC003D024B7832FF583B7CE90094B44A595B0E
:10760C00FDC929DF3596989E4F30328D00C637D58F
:10761C0032B7575CC2D87C4DD970C77310E6D2AA6A
:10762C005EA13E5A14AF3061C970DB2E642272B574
:10763C00BD65F4EC22BCD37235CDAA411FA7F35320
:10764C0014DE7E02D90FB55E251D297900EB66BAD2
:10765C0057BF2395D0E30D3D27895CDE9D3BA700EA
:10766C00215B8982513AEB020CA500497C844DB315
:10767C00CCD21B815D4876D5716121A98696833861
:10768C00CF9D5B6DDC15BA3E7D953B2F0000000055
:10769C00000000007D550B003D550B00B54D0B0057
:1076AC0000000000000000000000000000000000CE
:1076BC00AB5D0B00A15D0B00975D0B008D5D0B00AE
:1076CC00815D0B00755D0B00C95F0B00D15F0B007A
:1076DC00695D0B00615D0B00575D0B004D5D0B0090
:1076EC0001600B000000000000000000C95D0B00F1
:1076FC00135E0B00EB5D0B00CB5D0B00F35D0B0021
:10770C00FB5D0B00035E0B000B5E0B00000000002A
:10771C00000000006D5E0B005D5E0B005F5E0B00F9
:10772C00617070000000000000000000895F0B0019
:10773C00935F0B009D5F0B00A75F0B00B15F0B000D
:10774C00BD5F0B00C95F0B00D15F0B00D95F0B0055
:10775C00E55F0B00ED5F0B00F75F0B0001600B00AA
:10776C000008101820283038776972696E6700722B
:10777C00656376206572726F72203D20256400006F
:10778C0000000000000000001D650B0041650B00AF
:10779C00736A0B004F650B0021650B0000000000A5
:1077AC0000000000CD650B0001660B0099640B0016
:1077BC00B3640B0009690B00DD640B007F670B00E1
:1077CC0011650B0011680B0051660B00AD670B00C7
:1077DC00BD690B004D670B0013650B00C5640B00F6
:1077EC0055650B0031660B0025592D256D2D256433
:1077FC005425483A254D3A2553257A006173637414
:10780C00696D650000000000000000008D6A0B002F
:10781C00F96A0B00D16A0B00ED600B00A16A0B003A
:10782C00BD6A0B00AF6A0B00CB6A0B008F6A0B00B2
:10783C00936A0B000000000000000000376B0B0087
:10784C009F6B0B00756B0B00ED600B00676B0B00F7
:10785C00396B0B00496B0B00996B0B00596B0B00D0
:10786C00316B0B000000000000000000976C0B0057
:10787C008D6C0B00836C0B00396C0B00776C0B0060
:10788C006B6C0B00C95F0B00D15F0B005F6C0B00C6
:10789C00576C0B004D6C0B00436C0B0001600B0024
:1078AC0000537431395F53705F6D616B655F736842
:1078BC00617265645F7461670000000008790B00F9
:1078CC00AD780B0068790B00DC780B008C790B0021
:1078DC004E31305F5F637878616269763131375F42
:1078EC005F636C6173735F747970655F696E666FEB
:1078FC004500000000000000D0780B0031700B0038
:10790C0045700B00D9710B00D9710B00AF700B00D7
:10791C00F16F0B0097700B0059700B0023700B006C
:10792C0068790B0038790B00D0780B004E31305F42
:10793C005F637878616269763132305F5F73695F5B
:10794C00636C6173735F747970655F696E666F45A4
:10795C0000000000000000002C790B00D9700B0017
:10796C00ED700B00D9710B00D9710B00AF700B00CF
:10797C00F16F0B00AD710B0039710B0001710B0035
:10798C0008790B0094790B00537439747970655F26
:10799C00696E666F005245454E54206D616C6C6F7C
:1079AC006320737563636565646564002F746D7023
:1079BC002F6A656E6B696E732D4743432D31302DE5
:1079CC00706970656C696E652D34385F3230323099
:1079DC00313132345F313630363138303633392F3D
:1079EC007372632F6E65776C69622F6E65776C6945
:1079FC00622F6C6962632F7374646C69622F72619D
:107A0C006E642E6300000000C5430B003D5D0B004F
:107A1C00B55D0B00795F0B00D9600B0021620B0088
:0C7A2C0075640B00796A0B00A16C0B0064
:107A3800040000001400000003000000474E550039
:107A4800DEB0786D717DE8DE500EA2A799457F768D
:047A5800F292141A78
:107A5C000100000008780B00E0E5032000000000A6
:107A6C00000000000000000000000000000000000A
:107A7C0000000000000000000000000000000000FA
:107A8C0000000000000000000000000000000000EA
:107A9C0000000000000000000000000000000000DA
:107AAC0000000000000000000000000000000000CA
:107ABC00000000000000000000000000ECE70320C4
:047ACC0000000000B6
:107AD60000000102030405060708090A0B0C0D0E37
:107AE6000F101112131415161718191A1B1C1D1E28
:047AF6001F20280025
:047AFA007856341274
:04000003B000401CED
:00000001FF
